{
  "_format": "hh3-artifact-1",
  "contractName": "MockMaliciousAirdrop",
  "sourceName": "contracts/MockMaliciousContract.sol",
  "abi": [
    {
      "inputs": [],
      "stateMutability": "nonpayable",
      "type": "constructor"
    },
    {
      "inputs": [],
      "name": "attacker",
      "outputs": [
        {
          "internalType": "address",
          "name": "",
          "type": "address"
        }
      ],
      "stateMutability": "view",
      "type": "function"
    },
    {
      "inputs": [],
      "name": "claim",
      "outputs": [],
      "stateMutability": "nonpayable",
      "type": "function"
    },
    {
      "inputs": [],
      "name": "claimActive",
      "outputs": [
        {
          "internalType": "bool",
          "name": "",
          "type": "bool"
        }
      ],
      "stateMutability": "view",
      "type": "function"
    },
    {
      "inputs": [],
      "name": "flipSwitch",
      "outputs": [],
      "stateMutability": "nonpayable",
      "type": "function"
    },
    {
      "stateMutability": "payable",
      "type": "receive"
    }
  ],
  "bytecode": "0x60806040525f805460ff1916600117905534801561001b575f80fd5b505f80546101003302610100600160a81b0319909116179055610206806100415f395ff3fe608060405260043610610041575f3560e01c806348eb76ee1461004c5780634e71d92d1461008c5780634f0c8fdf146100a2578063d4a6a2fd146100b6575f80fd5b3661004857005b5f80fd5b348015610057575f80fd5b505f5461006f9061010090046001600160a01b031681565b6040516001600160a01b0390911681526020015b60405180910390f35b348015610097575f80fd5b506100a06100de565b005b3480156100ad575f80fd5b506100a0610174565b3480156100c1575f80fd5b505f546100ce9060ff1681565b6040519015158152602001610083565b5f5460ff16156101165760405133905f90655af3107a40009082818181858883f19350505050158015610113573d5f803e3d5ffd5b50565b5f5460405133319161010090046001600160a01b03169082905f6040518083038185875af1925050503d805f8114610169576040519150601f19603f3d011682016040523d82523d5f602084013e61016e565b606091505b50505050565b5f5461010090046001600160a01b031633146101c55760405162461bcd60e51b815260206004820152600c60248201526b2737ba1030ba3a30b1b5b2b960a11b604482015260640160405180910390fd5b5f805460ff1916905556fea2646970667358221220c07136b7fb294ab4f713ff6da0737cea977e03eb13c7589d3087438daa9d85d864736f6c63430008140033",
  "linkReferences": {},
  "deployedLinkReferences": {},
  "immutableReferences": {},
  "inputSourceName": "project/contracts/MockMaliciousContract.sol",
  "buildInfoId": "solc-0_8_20-97063e54fbfffe41176295942b8edb9dc2663c8c"
}