{
  "_format": "hh3-artifact-1",
  "contractName": "ThreatDatabase",
  "sourceName": "contracts/ThreatDatabase.sol",
  "abi": [
    {
      "anonymous": false,
      "inputs": [
        {
          "indexed": true,
          "internalType": "address",
          "name": "contract_",
          "type": "address"
        }
      ],
      "name": "ContractBlacklisted",
      "type": "event"
    },
    {
      "anonymous": false,
      "inputs": [
        {
          "indexed": true,
          "internalType": "address",
          "name": "contract_",
          "type": "address"
        },
        {
          "indexed": true,
          "internalType": "address",
          "name": "reporter",
          "type": "address"
        },
        {
          "indexed": false,
          "internalType": "string",
          "name": "threatType",
          "type": "string"
        }
      ],
      "name": "ThreatReported",
      "type": "event"
    },
    {
      "inputs": [
        {
          "internalType": "address",
          "name": "contract_",
          "type": "address"
        }
      ],
      "name": "getReports",
      "outputs": [
        {
          "components": [
            {
              "internalType": "address",
              "name": "reporter",
              "type": "address"
            },
            {
              "internalType": "address",
              "name": "maliciousContract",
              "type": "address"
            },
            {
              "internalType": "string",
              "name": "threatType",
              "type": "string"
            },
            {
              "internalType": "uint256",
              "name": "timestamp",
              "type": "uint256"
            },
            {
              "internalType": "uint256",
              "name": "votes",
              "type": "uint256"
            }
          ],
          "internalType": "struct ThreatDatabase.ThreatReport[]",
          "name": "",
          "type": "tuple[]"
        }
      ],
      "stateMutability": "view",
      "type": "function"
    },
    {
      "inputs": [
        {
          "internalType": "address",
          "name": "contract_",
          "type": "address"
        }
      ],
      "name": "getThreatScore",
      "outputs": [
        {
          "internalType": "uint256",
          "name": "",
          "type": "uint256"
        }
      ],
      "stateMutability": "view",
      "type": "function"
    },
    {
      "inputs": [
        {
          "internalType": "address",
          "name": "",
          "type": "address"
        }
      ],
      "name": "isBlacklisted",
      "outputs": [
        {
          "internalType": "bool",
          "name": "",
          "type": "bool"
        }
      ],
      "stateMutability": "view",
      "type": "function"
    },
    {
      "inputs": [
        {
          "internalType": "address",
          "name": "maliciousContract",
          "type": "address"
        },
        {
          "internalType": "string",
          "name": "threatType",
          "type": "string"
        }
      ],
      "name": "reportThreat",
      "outputs": [],
      "stateMutability": "nonpayable",
      "type": "function"
    },
    {
      "inputs": [
        {
          "internalType": "address",
          "name": "",
          "type": "address"
        },
        {
          "internalType": "uint256",
          "name": "",
          "type": "uint256"
        }
      ],
      "name": "reports",
      "outputs": [
        {
          "internalType": "address",
          "name": "reporter",
          "type": "address"
        },
        {
          "internalType": "address",
          "name": "maliciousContract",
          "type": "address"
        },
        {
          "internalType": "string",
          "name": "threatType",
          "type": "string"
        },
        {
          "internalType": "uint256",
          "name": "timestamp",
          "type": "uint256"
        },
        {
          "internalType": "uint256",
          "name": "votes",
          "type": "uint256"
        }
      ],
      "stateMutability": "view",
      "type": "function"
    },
    {
      "inputs": [
        {
          "internalType": "address",
          "name": "",
          "type": "address"
        }
      ],
      "name": "threatScore",
      "outputs": [
        {
          "internalType": "uint256",
          "name": "",
          "type": "uint256"
        }
      ],
      "stateMutability": "view",
      "type": "function"
    }
  ],
  "bytecode": "0x608060405234801561000f575f80fd5b506109138061001d5f395ff3fe608060405234801561000f575f80fd5b5060043610610060575f3560e01c80632538db79146100645780633d3d71821461009657806361d67488146100b65780639f6840c6146100cb578063bad02c7e146100f3578063fe575a8714610117575b5f80fd5b61008361007236600461054d565b60026020525f908152604090205481565b6040519081526020015b60405180910390f35b6100a96100a436600461054d565b610149565b60405161008d91906105b0565b6100c96100c4366004610651565b610281565b005b6100836100d936600461054d565b6001600160a01b03165f9081526002602052604090205490565b6101066101013660046106cd565b610455565b60405161008d9594939291906106f5565b61013961012536600461054d565b60016020525f908152604090205460ff1681565b604051901515815260200161008d565b6001600160a01b0381165f90815260208181526040808320805482518185028101850190935280835260609492939192909184015b82821015610276575f8481526020908190206040805160a0810182526005860290920180546001600160a01b03908116845260018201541693830193909352600283018054929392918401916101d390610734565b80601f01602080910402602001604051908101604052809291908181526020018280546101ff90610734565b801561024a5780601f106102215761010080835404028352916020019161024a565b820191905f5260205f20905b81548152906001019060200180831161022d57829003601f168201915b50505050508152602001600382015481526020016004820154815250508152602001906001019061017e565b505050509050919050565b6001600160a01b0383165f8181526020818152604091829020825160a081018452338152808301949094528251601f8601839004830281018301845285815290939283019186908690819084018382808284375f920182905250938552505042602080850191909152600160409485018190528654808201885596845292819020855160059097020180546001600160a01b03199081166001600160a01b03988916178255918601519381018054909216939096169290921790915550810151909190600282019061035390826107ce565b50606082015160038201556080909101516004909101556001600160a01b0383165f9081526002602052604081208054600a929061039290849061088a565b90915550506001600160a01b0383165f9081526002602052604090205460321015610403576001600160a01b0383165f818152600160208190526040808320805460ff1916909217909155517ffb00f7adc91459b5048ecdc60b783959a583bafb1e3041f3e1f017540a0e47d39190a25b336001600160a01b0316836001600160a01b03167fe46d5895b0affc0072cf9d3beadfd09e767beac8df0127768321744d90a1be2984846040516104489291906108af565b60405180910390a3505050565b5f602052815f5260405f20818154811061046d575f80fd5b5f9182526020909120600590910201805460018201546002830180546001600160a01b0393841696509190921693506104a590610734565b80601f01602080910402602001604051908101604052809291908181526020018280546104d190610734565b801561051c5780601f106104f35761010080835404028352916020019161051c565b820191905f5260205f20905b8154815290600101906020018083116104ff57829003601f168201915b5050505050908060030154908060040154905085565b80356001600160a01b0381168114610548575f80fd5b919050565b5f6020828403121561055d575f80fd5b61056682610532565b9392505050565b5f81518084525f5b8181101561059157602081850181015186830182015201610575565b505f602082860101526020601f19601f83011685010191505092915050565b5f6020808301818452808551808352604092508286019150828160051b8701018488015f5b8381101561064357888303603f19018552815180516001600160a01b0390811685528882015116888501528681015160a0888601819052906106198287018261056d565b606084810151908801526080938401519390960192909252505093860193908601906001016105d5565b509098975050505050505050565b5f805f60408486031215610663575f80fd5b61066c84610532565b9250602084013567ffffffffffffffff80821115610688575f80fd5b818601915086601f83011261069b575f80fd5b8135818111156106a9575f80fd5b8760208285010111156106ba575f80fd5b6020830194508093505050509250925092565b5f80604083850312156106de575f80fd5b6106e783610532565b946020939093013593505050565b6001600160a01b0386811682528516602082015260a0604082018190525f906107209083018661056d565b606083019490945250608001529392505050565b600181811c9082168061074857607f821691505b60208210810361076657634e487b7160e01b5f52602260045260245ffd5b50919050565b634e487b7160e01b5f52604160045260245ffd5b601f8211156107c9575f81815260208120601f850160051c810160208610156107a65750805b601f850160051c820191505b818110156107c5578281556001016107b2565b5050505b505050565b815167ffffffffffffffff8111156107e8576107e861076c565b6107fc816107f68454610734565b84610780565b602080601f83116001811461082f575f84156108185750858301515b5f19600386901b1c1916600185901b1785556107c5565b5f85815260208120601f198616915b8281101561085d5788860151825594840194600190910190840161083e565b508582101561087a57878501515f19600388901b60f8161c191681555b5050505050600190811b01905550565b808201808211156108a957634e487b7160e01b5f52601160045260245ffd5b92915050565b60208152816020820152818360408301375f818301604090810191909152601f909201601f1916010191905056fea2646970667358221220f00a499cea2835f69e6a9d40e9949cdf760f70d2cbf82e5c96d49ef0a60de62f64736f6c63430008140033",
  "linkReferences": {},
  "deployedLinkReferences": {},
  "immutableReferences": {},
  "inputSourceName": "project/contracts/ThreatDatabase.sol",
  "buildInfoId": "solc-0_8_20-200a5135c38667bb5b9fc97dd6c2555eede96509"
}