{
  "_format": "hh3-artifact-1",
  "contractName": "Vigilant",
  "sourceName": "contracts/Vigilant.sol",
  "abi": [
    {
      "anonymous": false,
      "inputs": [
        {
          "indexed": true,
          "internalType": "bytes32",
          "name": "intentId",
          "type": "bytes32"
        },
        {
          "indexed": true,
          "internalType": "address",
          "name": "user",
          "type": "address"
        },
        {
          "indexed": false,
          "internalType": "address",
          "name": "target",
          "type": "address"
        },
        {
          "indexed": false,
          "internalType": "uint256",
          "name": "timestamp",
          "type": "uint256"
        }
      ],
      "name": "IntentSubmitted",
      "type": "event"
    },
    {
      "anonymous": false,
      "inputs": [
        {
          "indexed": true,
          "internalType": "bytes32",
          "name": "intentId",
          "type": "bytes32"
        },
        {
          "indexed": true,
          "internalType": "address",
          "name": "simulator",
          "type": "address"
        },
        {
          "indexed": false,
          "internalType": "bool",
          "name": "isRisky",
          "type": "bool"
        },
        {
          "indexed": false,
          "internalType": "uint256",
          "name": "riskScore",
          "type": "uint256"
        }
      ],
      "name": "SimulationSubmitted",
      "type": "event"
    },
    {
      "anonymous": false,
      "inputs": [
        {
          "indexed": true,
          "internalType": "address",
          "name": "simulator",
          "type": "address"
        },
        {
          "indexed": false,
          "internalType": "uint256",
          "name": "stake",
          "type": "uint256"
        }
      ],
      "name": "SimulatorRegistered",
      "type": "event"
    },
    {
      "anonymous": false,
      "inputs": [
        {
          "indexed": true,
          "internalType": "address",
          "name": "simulator",
          "type": "address"
        },
        {
          "indexed": false,
          "internalType": "uint256",
          "name": "amount",
          "type": "uint256"
        }
      ],
      "name": "SimulatorSlashed",
      "type": "event"
    },
    {
      "anonymous": false,
      "inputs": [
        {
          "indexed": true,
          "internalType": "bytes32",
          "name": "intentId",
          "type": "bytes32"
        },
        {
          "indexed": false,
          "internalType": "address",
          "name": "target",
          "type": "address"
        },
        {
          "indexed": false,
          "internalType": "uint256",
          "name": "timestamp",
          "type": "uint256"
        }
      ],
      "name": "StateChangeDetected",
      "type": "event"
    },
    {
      "anonymous": false,
      "inputs": [
        {
          "indexed": true,
          "internalType": "bytes32",
          "name": "intentId",
          "type": "bytes32"
        },
        {
          "indexed": false,
          "internalType": "string",
          "name": "reason",
          "type": "string"
        },
        {
          "indexed": false,
          "internalType": "uint256",
          "name": "riskScore",
          "type": "uint256"
        }
      ],
      "name": "TransactionBlocked",
      "type": "event"
    },
    {
      "anonymous": false,
      "inputs": [
        {
          "indexed": true,
          "internalType": "bytes32",
          "name": "intentId",
          "type": "bytes32"
        },
        {
          "indexed": false,
          "internalType": "bool",
          "name": "success",
          "type": "bool"
        },
        {
          "indexed": false,
          "internalType": "uint256",
          "name": "riskScore",
          "type": "uint256"
        }
      ],
      "name": "TransactionExecuted",
      "type": "event"
    },
    {
      "inputs": [],
      "name": "MIN_STAKE",
      "outputs": [
        {
          "internalType": "uint256",
          "name": "",
          "type": "uint256"
        }
      ],
      "stateMutability": "view",
      "type": "function"
    },
    {
      "inputs": [],
      "name": "SIMULATOR_REWARD",
      "outputs": [
        {
          "internalType": "uint256",
          "name": "",
          "type": "uint256"
        }
      ],
      "stateMutability": "view",
      "type": "function"
    },
    {
      "inputs": [],
      "name": "VERIFICATION_FEE",
      "outputs": [
        {
          "internalType": "uint256",
          "name": "",
          "type": "uint256"
        }
      ],
      "stateMutability": "view",
      "type": "function"
    },
    {
      "inputs": [],
      "name": "activeSimulators",
      "outputs": [
        {
          "internalType": "uint256",
          "name": "",
          "type": "uint256"
        }
      ],
      "stateMutability": "view",
      "type": "function"
    },
    {
      "inputs": [
        {
          "internalType": "bytes32",
          "name": "intentId",
          "type": "bytes32"
        }
      ],
      "name": "checkConsensus",
      "outputs": [
        {
          "internalType": "bool",
          "name": "hasConsensus",
          "type": "bool"
        },
        {
          "internalType": "bool",
          "name": "isSafe",
          "type": "bool"
        },
        {
          "internalType": "uint256",
          "name": "avgRiskScore",
          "type": "uint256"
        }
      ],
      "stateMutability": "view",
      "type": "function"
    },
    {
      "inputs": [
        {
          "internalType": "bytes32",
          "name": "intentId",
          "type": "bytes32"
        }
      ],
      "name": "executeIntent",
      "outputs": [],
      "stateMutability": "nonpayable",
      "type": "function"
    },
    {
      "inputs": [
        {
          "internalType": "bytes32",
          "name": "intentId",
          "type": "bytes32"
        },
        {
          "internalType": "address",
          "name": "target",
          "type": "address"
        }
      ],
      "name": "flagStateChange",
      "outputs": [],
      "stateMutability": "nonpayable",
      "type": "function"
    },
    {
      "inputs": [],
      "name": "getInsurancePool",
      "outputs": [
        {
          "internalType": "uint256",
          "name": "",
          "type": "uint256"
        }
      ],
      "stateMutability": "view",
      "type": "function"
    },
    {
      "inputs": [
        {
          "internalType": "bytes32",
          "name": "intentId",
          "type": "bytes32"
        }
      ],
      "name": "getIntent",
      "outputs": [
        {
          "components": [
            {
              "internalType": "address",
              "name": "user",
              "type": "address"
            },
            {
              "internalType": "address",
              "name": "target",
              "type": "address"
            },
            {
              "internalType": "bytes",
              "name": "callData",
              "type": "bytes"
            },
            {
              "internalType": "uint256",
              "name": "value",
              "type": "uint256"
            },
            {
              "internalType": "uint256",
              "name": "timestamp",
              "type": "uint256"
            },
            {
              "internalType": "uint256",
              "name": "deadline",
              "type": "uint256"
            },
            {
              "internalType": "bool",
              "name": "verified",
              "type": "bool"
            },
            {
              "internalType": "bool",
              "name": "executed",
              "type": "bool"
            },
            {
              "internalType": "bytes32",
              "name": "stateSnapshot",
              "type": "bytes32"
            }
          ],
          "internalType": "struct Vigilant.TransactionIntent",
          "name": "",
          "type": "tuple"
        }
      ],
      "stateMutability": "view",
      "type": "function"
    },
    {
      "inputs": [
        {
          "internalType": "bytes32",
          "name": "intentId",
          "type": "bytes32"
        }
      ],
      "name": "getSimulations",
      "outputs": [
        {
          "components": [
            {
              "internalType": "address",
              "name": "simulator",
              "type": "address"
            },
            {
              "internalType": "bytes32",
              "name": "resultHash",
              "type": "bytes32"
            },
            {
              "internalType": "bool",
              "name": "isRisky",
              "type": "bool"
            },
            {
              "internalType": "uint256",
              "name": "riskScore",
              "type": "uint256"
            },
            {
              "internalType": "uint256",
              "name": "timestamp",
              "type": "uint256"
            }
          ],
          "internalType": "struct Vigilant.SimulationResult[]",
          "name": "",
          "type": "tuple[]"
        }
      ],
      "stateMutability": "view",
      "type": "function"
    },
    {
      "inputs": [],
      "name": "insurancePool",
      "outputs": [
        {
          "internalType": "uint256",
          "name": "",
          "type": "uint256"
        }
      ],
      "stateMutability": "view",
      "type": "function"
    },
    {
      "inputs": [
        {
          "internalType": "bytes32",
          "name": "",
          "type": "bytes32"
        }
      ],
      "name": "intents",
      "outputs": [
        {
          "internalType": "address",
          "name": "user",
          "type": "address"
        },
        {
          "internalType": "address",
          "name": "target",
          "type": "address"
        },
        {
          "internalType": "bytes",
          "name": "callData",
          "type": "bytes"
        },
        {
          "internalType": "uint256",
          "name": "value",
          "type": "uint256"
        },
        {
          "internalType": "uint256",
          "name": "timestamp",
          "type": "uint256"
        },
        {
          "internalType": "uint256",
          "name": "deadline",
          "type": "uint256"
        },
        {
          "internalType": "bool",
          "name": "verified",
          "type": "bool"
        },
        {
          "internalType": "bool",
          "name": "executed",
          "type": "bool"
        },
        {
          "internalType": "bytes32",
          "name": "stateSnapshot",
          "type": "bytes32"
        }
      ],
      "stateMutability": "view",
      "type": "function"
    },
    {
      "inputs": [],
      "name": "registerSimulator",
      "outputs": [],
      "stateMutability": "payable",
      "type": "function"
    },
    {
      "inputs": [
        {
          "internalType": "bytes32",
          "name": "",
          "type": "bytes32"
        },
        {
          "internalType": "uint256",
          "name": "",
          "type": "uint256"
        }
      ],
      "name": "simulations",
      "outputs": [
        {
          "internalType": "address",
          "name": "simulator",
          "type": "address"
        },
        {
          "internalType": "bytes32",
          "name": "resultHash",
          "type": "bytes32"
        },
        {
          "internalType": "bool",
          "name": "isRisky",
          "type": "bool"
        },
        {
          "internalType": "uint256",
          "name": "riskScore",
          "type": "uint256"
        },
        {
          "internalType": "uint256",
          "name": "timestamp",
          "type": "uint256"
        }
      ],
      "stateMutability": "view",
      "type": "function"
    },
    {
      "inputs": [
        {
          "internalType": "address",
          "name": "",
          "type": "address"
        }
      ],
      "name": "simulatorReputation",
      "outputs": [
        {
          "internalType": "uint256",
          "name": "",
          "type": "uint256"
        }
      ],
      "stateMutability": "view",
      "type": "function"
    },
    {
      "inputs": [
        {
          "internalType": "address",
          "name": "",
          "type": "address"
        }
      ],
      "name": "simulatorStakes",
      "outputs": [
        {
          "internalType": "uint256",
          "name": "",
          "type": "uint256"
        }
      ],
      "stateMutability": "view",
      "type": "function"
    },
    {
      "inputs": [
        {
          "internalType": "address",
          "name": "simulator",
          "type": "address"
        }
      ],
      "name": "slashSimulator",
      "outputs": [],
      "stateMutability": "nonpayable",
      "type": "function"
    },
    {
      "inputs": [
        {
          "internalType": "bytes32",
          "name": "",
          "type": "bytes32"
        }
      ],
      "name": "stateChangeFlagged",
      "outputs": [
        {
          "internalType": "bool",
          "name": "",
          "type": "bool"
        }
      ],
      "stateMutability": "view",
      "type": "function"
    },
    {
      "inputs": [
        {
          "internalType": "address",
          "name": "target",
          "type": "address"
        },
        {
          "internalType": "bytes",
          "name": "data",
          "type": "bytes"
        },
        {
          "internalType": "uint256",
          "name": "value",
          "type": "uint256"
        }
      ],
      "name": "submitIntent",
      "outputs": [
        {
          "internalType": "bytes32",
          "name": "",
          "type": "bytes32"
        }
      ],
      "stateMutability": "payable",
      "type": "function"
    },
    {
      "inputs": [
        {
          "internalType": "bytes32",
          "name": "intentId",
          "type": "bytes32"
        },
        {
          "internalType": "bytes32",
          "name": "resultHash",
          "type": "bytes32"
        },
        {
          "internalType": "bool",
          "name": "isRisky",
          "type": "bool"
        },
        {
          "internalType": "uint256",
          "name": "riskScore",
          "type": "uint256"
        }
      ],
      "name": "submitSimulation",
      "outputs": [],
      "stateMutability": "nonpayable",
      "type": "function"
    },
    {
      "inputs": [],
      "name": "withdrawStake",
      "outputs": [],
      "stateMutability": "nonpayable",
      "type": "function"
    }
  ],
  "bytecode": "0x608060405234801561000f575f80fd5b50611c918061001d5f395ff3fe608060405260043610610126575f3560e01c80639601bd23116100a8578063bed9d8611161006d578063bed9d8611461034f578063cb1c2b5c14610363578063d0d5665b1461037e578063ddfeb4e214610392578063e1daa5a5146103a7578063f13c46aa146103fe575f80fd5b80639601bd23146102aa5780639c724c4a146102c45780639d1ac7bf146102e3578063ab2adc001461030f578063b5a0c8c014610324575f80fd5b80636b9498d3116100ee5780636b9498d31461021657806378a1bffd146102355780637a1c9ca71461024f578063865d87471461026e5780639021578a14610276575f80fd5b80631bdf5e641461012a5780632946cd56146101685780632bcd10cb146101a45780632fbbe156146101b75780635b8a0104146101d8575b5f80fd5b348015610135575f80fd5b506101556101443660046116a1565b60036020525f908152604090205481565b6040519081526020015b60405180910390f35b348015610173575f80fd5b506101876101823660046116c1565b61042a565b60408051931515845291151560208401529082015260600161015f565b6101556101b23660046116d8565b610638565b3480156101c2575f80fd5b506101d66101d136600461175a565b610888565b005b3480156101e3575f80fd5b506102066101f23660046116c1565b60026020525f908152604090205460ff1681565b604051901515815260200161015f565b348015610221575f80fd5b506101d66102303660046116a1565b610d1d565b348015610240575f80fd5b5061015566038d7ea4c6800081565b34801561025a575f80fd5b506101d66102693660046116c1565b610e2a565b6101d661104f565b348015610281575f80fd5b506102956102903660046116c1565b611156565b60405161015f999897969594939291906117dd565b3480156102b5575f80fd5b5061015566012c221cc6a00081565b3480156102cf575f80fd5b506101d66102de366004611840565b611237565b3480156102ee575f80fd5b506103026102fd3660046116c1565b6112ed565b60405161015f919061186a565b34801561031a575f80fd5b5061015560065481565b34801561032f575f80fd5b5061015561033e3660046116a1565b60046020525f908152604090205481565b34801561035a575f80fd5b506101d6611395565b34801561036e575f80fd5b50610155678ac7230489e8000081565b348015610389575f80fd5b50600654610155565b34801561039d575f80fd5b5061015560055481565b3480156103b2575f80fd5b506103c66103c13660046118e2565b611481565b604080516001600160a01b0390961686526020860194909452911515928401929092526060830191909152608082015260a00161015f565b348015610409575f80fd5b5061041d6104183660046116c1565b6114d8565b60405161015f9190611902565b5f805f8060015f8681526020019081526020015f20805480602002602001604051908101604052809291908181526020015f905b828210156104c9575f8481526020908190206040805160a0810182526005860290920180546001600160a01b0316835260018082015484860152600282015460ff1615159284019290925260038101546060840152600401546080830152908352909201910161045e565b50505050905080515f036104e7576001805f93509350935050610631565b6003815110156105345760405162461bcd60e51b81526020600482015260136024820152724e65656420332b2073696d756c6174696f6e7360681b60448201526064015b60405180910390fd5b5f815f81518110610547576105476119ae565b60200260200101516020015190505f805f805b85518110156106035784868281518110610576576105766119ae565b602002602001015160200151036105955783610591816119d6565b9450505b8581815181106105a7576105a76119ae565b602002602001015160400151156105c657826105c2816119d6565b9350505b8581815181106105d8576105d86119ae565b602002602001015160600151826105ef91906119ee565b9150806105fb816119d6565b91505061055a565b5084516106109082611a07565b9550600283101597506002821080156106295750603286105b965050505050505b9193909250565b5f61064a66038d7ea4c68000836119ee565b3410156106905760405162461bcd60e51b8152602060048201526014602482015273125b9cdd59999a58da595b9d081c185e5b595b9d60621b604482015260640161052b565b5f3386868642436040516020016106ac96959493929190611a26565b6040516020818303038152906040528051906020012090505f6106ce87611634565b9050604051806101200160405280336001600160a01b03168152602001886001600160a01b0316815260200187878080601f0160208091040260200160405190810160405280939291908181526020018383808284375f9201919091525050509082525060208101869052426040820181905260609091019061075290603c6119ee565b81525f60208083018290526040808401839052606090930185905285825281815290829020835181546001600160a01b03199081166001600160a01b03928316178355928501516001830180549094169116179091559082015160028201906107bb9082611b05565b50606082015160038201556080820151600482015560a0820151600582015560c082015160068201805460e085015161ffff1990911692151561ff00191692909217610100921515830217905590910151600790910155610824600266038d7ea4c68000611a07565b60065f82825461083491906119ee565b9091555050604080516001600160a01b0389168152426020820152339184917fcb03dc93817e5aa381078ea8f167eed0635094015e207790a2605d5dc4b14e9d910160405180910390a35095945050505050565b335f90815260036020526040902054678ac7230489e8000011156108e55760405162461bcd60e51b81526020600482015260146024820152732737ba1039ba30b5b2b21039b4b6bab630ba37b960611b604482015260640161052b565b5f8481526020818152604080832081516101208101835281546001600160a01b03908116825260018301541693810193909352600281018054919284019161092c90611a7f565b80601f016020809104026020016040519081016040528092919081815260200182805461095890611a7f565b80156109a35780601f1061097a576101008083540402835291602001916109a3565b820191905f5260205f20905b81548152906001019060200180831161098657829003601f168201915b5050509183525050600382015460208201526004820154604082015260058201546060820152600682015460ff8082161515608084015261010090910416151560a082015260079091015460c09091015280519091506001600160a01b0316610a415760405162461bcd60e51b815260206004820152601060248201526f125b9d195b9d081b9bdd08199bdd5b9960821b604482015260640161052b565b8060a00151421115610a865760405162461bcd60e51b815260206004820152600e60248201526d125b9d195b9d08195e1c1a5c995960921b604482015260640161052b565b8060e0015115610acb5760405162461bcd60e51b815260206004820152601060248201526f105b1c9958591e48195e1958dd5d195960821b604482015260640161052b565b5f85815260016020908152604080832080548251818502810185019093528083529192909190849084015b82821015610b61575f8481526020908190206040805160a0810182526005860290920180546001600160a01b0316835260018082015484860152600282015460ff16151592840192909252600381015460608401526004015460808301529083529092019101610af6565b5050505090505f5b8151811015610bf557336001600160a01b0316828281518110610b8e57610b8e6119ae565b60200260200101515f01516001600160a01b031603610be35760405162461bcd60e51b8152602060048201526011602482015270105b1c9958591e481cdd589b5a5d1d1959607a1b604482015260640161052b565b80610bed816119d6565b915050610b69565b505f868152600160208181526040808420815160a081018352338082528185018c81528b1515838601818152606085018d815242608087019081528754808c018955978c529a8990209551600590970290950180546001600160a01b0319166001600160a01b039097169690961786559151978501979097555160028401805460ff1916911515919091179055905160038301559451600490910155805192835290820186905288917feb2d6cf0f91a0fbf91681a90a6842098ce1438f56122fffa6acad4886e87c6c4910160405180910390a360405133905f9066012c221cc6a0009082818181858883f19350505050158015610cf5573d5f803e3d5ffd5b50335f908152600460205260408120805491610d10836119d6565b9190505550505050505050565b6001600160a01b0381165f90815260046020526040902054601e11610d7a5760405162461bcd60e51b81526020600482015260136024820152720a4cae0eae8c2e8d2dedc40e8dede40d0d2ced606b1b604482015260640161052b565b6001600160a01b0381165f90815260036020526040812054610d9e90600a90611a07565b6001600160a01b0383165f90815260036020526040812080549293508392909190610dca908490611bc1565b925050819055508060065f828254610de291906119ee565b90915550506040518181526001600160a01b038316907f1e47e6dbb9f53156b118857b7c5d03b4add354e2be4b072201bf390da18b83fc906020015b60405180910390a25050565b5f81815260208190526040902080546001600160a01b03163314610e815760405162461bcd60e51b815260206004820152600e60248201526d139bdd08185d5d1a1bdc9a5e995960921b604482015260640161052b565b6006810154610100900460ff1615610ece5760405162461bcd60e51b815260206004820152601060248201526f105b1c9958591e48195e1958dd5d195960821b604482015260640161052b565b8060050154421115610f0c5760405162461bcd60e51b8152602060048201526007602482015266115e1c1a5c995960ca1b604482015260640161052b565b5f805f610f188561042a565b92509250925082610f5e5760405162461bcd60e51b815260206004820152601060248201526f139bc818dbdb9cd95b9cdd5cc81e595d60821b604482015260640161052b565b60068401805461ff00191661010017905560018401545f906001600160a01b031615801590610f9057505f8560030154115b1561100657600185015460038601546040516001600160a01b0390921691610fbc906002890190611bd4565b5f6040518083038185875af1925050503d805f8114610ff6576040519150601f19603f3d011682016040523d82523d5f602084013e610ffb565b606091505b50508091505061100a565b5060015b6040805182151581526020810184905287917f318779ca6603af3177f69050c37bcbd11cda39233f1bdeebe4f3e557b92134dc910160405180910390a2505050505050565b678ac7230489e8000034101561109c5760405162461bcd60e51b8152602060048201526012602482015271496e73756666696369656e74207374616b6560701b604482015260640161052b565b335f90815260036020526040902054156110ed5760405162461bcd60e51b8152602060048201526012602482015271105b1c9958591e481c9959da5cdd195c995960721b604482015260640161052b565b335f9081526003602090815260408083203490556004909152812060649055600580549161111a836119d6565b909155505060405134815233907f35d0894dec0c0bddd9875096d467a927ef15c68bc2ba727def28646a258ccad39060200160405180910390a2565b5f602081905290815260409020805460018201546002830180546001600160a01b0393841694929093169261118a90611a7f565b80601f01602080910402602001604051908101604052809291908181526020018280546111b690611a7f565b80156112015780601f106111d857610100808354040283529160200191611201565b820191905f5260205f20905b8154815290600101906020018083116111e457829003601f168201915b505050600384015460048501546005860154600687015460079097015495969295919450925060ff808316926101009004169089565b5f828152602081905260409020546001600160a01b031661128d5760405162461bcd60e51b815260206004820152601060248201526f125b9d195b9d081b9bdd08199bdd5b9960821b604482015260640161052b565b5f8281526002602052604090819020805460ff191660011790555182907f67b3be42d6f00d96d423921d7f71b20808f2cdab144cc750107744a31f7c39e790610e1e90849042906001600160a01b03929092168252602082015260400190565b606060015f8381526020019081526020015f20805480602002602001604051908101604052809291908181526020015f905b8282101561138a575f8481526020908190206040805160a0810182526005860290920180546001600160a01b0316835260018082015484860152600282015460ff1615159284019290925260038101546060840152600401546080830152908352909201910161131f565b505050509050919050565b335f908152600360205260409020546113db5760405162461bcd60e51b81526020600482015260086024820152674e6f207374616b6560c01b604482015260640161052b565b335f908152600460205260409020546032111561142b5760405162461bcd60e51b815260206004820152600e60248201526d2637bb903932b83aba30ba34b7b760911b604482015260640161052b565b335f90815260036020526040812080549082905560058054919261144e83611c46565b9091555050604051339082156108fc029083905f818181858888f1935050505015801561147d573d5f803e3d5ffd5b5050565b6001602052815f5260405f20818154811061149a575f80fd5b5f918252602090912060059091020180546001820154600283015460038401546004909401546001600160a01b03909316955090935060ff16919085565b6040805161012080820183525f8083526020808401829052606084860181905284018290526080840182905260a0840182905260c0840182905260e084018290526101008401829052858252818152908490208451928301855280546001600160a01b0390811684526001820154169183019190915260028101805493949293919284019161156690611a7f565b80601f016020809104026020016040519081016040528092919081815260200182805461159290611a7f565b80156115dd5780601f106115b4576101008083540402835291602001916115dd565b820191905f5260205f20905b8154815290600101906020018083116115c057829003601f168201915b5050509183525050600382015460208201526004820154604082015260058201546060820152600682015460ff8082161515608084015261010090910416151560a082015260079091015460c09091015292915050565b5f6001600160a01b0382168031903b61164e600143611bc1565b604080516020810194909452830191909152406060820152608001604051602081830303815290604052805190602001209050919050565b80356001600160a01b038116811461169c575f80fd5b919050565b5f602082840312156116b1575f80fd5b6116ba82611686565b9392505050565b5f602082840312156116d1575f80fd5b5035919050565b5f805f80606085870312156116eb575f80fd5b6116f485611686565b9350602085013567ffffffffffffffff80821115611710575f80fd5b818701915087601f830112611723575f80fd5b813581811115611731575f80fd5b886020828501011115611742575f80fd5b95986020929092019750949560400135945092505050565b5f805f806080858703121561176d575f80fd5b84359350602085013592506040850135801515811461178a575f80fd5b9396929550929360600135925050565b5f81518084525f5b818110156117be576020818501810151868301820152016117a2565b505f602082860101526020601f19601f83011685010191505092915050565b6001600160a01b038a8116825289166020820152610120604082018190525f906118098382018b61179a565b60608401999099525050608081019590955260a085019390935290151560c0840152151560e0830152610100909101529392505050565b5f8060408385031215611851575f80fd5b8235915061186160208401611686565b90509250929050565b602080825282518282018190525f919060409081850190868401855b828110156118d557815180516001600160a01b03168552868101518786015285810151151586860152606080820151908601526080908101519085015260a09093019290850190600101611886565b5091979650505050505050565b5f80604083850312156118f3575f80fd5b50508035926020909101359150565b6020815261191c6020820183516001600160a01b03169052565b5f602083015161193760408401826001600160a01b03169052565b50604083015161012080606085015261195461014085018361179a565b915060608501516080850152608085015160a085015260a085015160c085015260c085015161198760e086018215159052565b5060e085015161010061199d8187018315159052565b959095015193019290925250919050565b634e487b7160e01b5f52603260045260245ffd5b634e487b7160e01b5f52601160045260245ffd5b5f600182016119e7576119e76119c2565b5060010190565b80820180821115611a0157611a016119c2565b92915050565b5f82611a2157634e487b7160e01b5f52601260045260245ffd5b500490565b5f6bffffffffffffffffffffffff19808960601b168352808860601b166014840152508486602884013750602893019283019190915260488201526068019392505050565b634e487b7160e01b5f52604160045260245ffd5b600181811c90821680611a9357607f821691505b602082108103611ab157634e487b7160e01b5f52602260045260245ffd5b50919050565b601f821115611b00575f81815260208120601f850160051c81016020861015611add5750805b601f850160051c820191505b81811015611afc57828155600101611ae9565b5050505b505050565b815167ffffffffffffffff811115611b1f57611b1f611a6b565b611b3381611b2d8454611a7f565b84611ab7565b602080601f831160018114611b66575f8415611b4f5750858301515b5f19600386901b1c1916600185901b178555611afc565b5f85815260208120601f198616915b82811015611b9457888601518255948401946001909101908401611b75565b5085821015611bb157878501515f19600388901b60f8161c191681555b5050505050600190811b01905550565b81810381811115611a0157611a016119c2565b5f808354611be181611a7f565b60018281168015611bf95760018114611c0e57611c3a565b60ff1984168752821515830287019450611c3a565b875f526020805f205f5b85811015611c315781548a820152908401908201611c18565b50505082870194505b50929695505050505050565b5f81611c5457611c546119c2565b505f19019056fea264697066735822122055214588d10ac52de302c9679bad7fe4bc4b6cf2d8aa4f9712f156c5eec6343d64736f6c63430008140033",
  "linkReferences": {},
  "deployedLinkReferences": {},
  "immutableReferences": {},
  "inputSourceName": "project/contracts/Vigilant.sol",
  "buildInfoId": "solc-0_8_20-97063e54fbfffe41176295942b8edb9dc2663c8c"
}