{"project/contracts/ThreatDatabase.sol":{"ThreatDatabase":{"abi":[{"anonymous":false,"inputs":[{"indexed":true,"internalType":"address","name":"contract_","type":"address"}],"name":"ContractBlacklisted","type":"event"},{"anonymous":false,"inputs":[{"indexed":true,"internalType":"address","name":"contract_","type":"address"},{"indexed":true,"internalType":"address","name":"reporter","type":"address"},{"indexed":false,"internalType":"string","name":"threatType","type":"string"}],"name":"ThreatReported","type":"event"},{"inputs":[{"internalType":"address","name":"contract_","type":"address"}],"name":"getReports","outputs":[{"components":[{"internalType":"address","name":"reporter","type":"address"},{"internalType":"address","name":"maliciousContract","type":"address"},{"internalType":"string","name":"threatType","type":"string"},{"internalType":"uint256","name":"timestamp","type":"uint256"},{"internalType":"uint256","name":"votes","type":"uint256"}],"internalType":"struct ThreatDatabase.ThreatReport[]","name":"","type":"tuple[]"}],"stateMutability":"view","type":"function"},{"inputs":[{"internalType":"address","name":"contract_","type":"address"}],"name":"getThreatScore","outputs":[{"internalType":"uint256","name":"","type":"uint256"}],"stateMutability":"view","type":"function"},{"inputs":[{"internalType":"address","name":"","type":"address"}],"name":"isBlacklisted","outputs":[{"internalType":"bool","name":"","type":"bool"}],"stateMutability":"view","type":"function"},{"inputs":[{"internalType":"address","name":"maliciousContract","type":"address"},{"internalType":"string","name":"threatType","type":"string"}],"name":"reportThreat","outputs":[],"stateMutability":"nonpayable","type":"function"},{"inputs":[{"internalType":"address","name":"","type":"address"},{"internalType":"uint256","name":"","type":"uint256"}],"name":"reports","outputs":[{"internalType":"address","name":"reporter","type":"address"},{"internalType":"address","name":"maliciousContract","type":"address"},{"internalType":"string","name":"threatType","type":"string"},{"internalType":"uint256","name":"timestamp","type":"uint256"},{"internalType":"uint256","name":"votes","type":"uint256"}],"stateMutability":"view","type":"function"},{"inputs":[{"internalType":"address","name":"","type":"address"}],"name":"threatScore","outputs":[{"internalType":"uint256","name":"","type":"uint256"}],"stateMutability":"view","type":"function"}],"evm":{"bytecode":{"linkReferences":{},"object":"608060405234801561000f575f80fd5b506109138061001d5f395ff3fe608060405234801561000f575f80fd5b5060043610610060575f3560e01c80632538db79146100645780633d3d71821461009657806361d67488146100b65780639f6840c6146100cb578063bad02c7e146100f3578063fe575a8714610117575b5f80fd5b61008361007236600461054d565b60026020525f908152604090205481565b6040519081526020015b60405180910390f35b6100a96100a436600461054d565b610149565b60405161008d91906105b0565b6100c96100c4366004610651565b610281565b005b6100836100d936600461054d565b6001600160a01b03165f9081526002602052604090205490565b6101066101013660046106cd565b610455565b60405161008d9594939291906106f5565b61013961012536600461054d565b60016020525f908152604090205460ff1681565b604051901515815260200161008d565b6001600160a01b0381165f90815260208181526040808320805482518185028101850190935280835260609492939192909184015b82821015610276575f8481526020908190206040805160a0810182526005860290920180546001600160a01b03908116845260018201541693830193909352600283018054929392918401916101d390610734565b80601f01602080910402602001604051908101604052809291908181526020018280546101ff90610734565b801561024a5780601f106102215761010080835404028352916020019161024a565b820191905f5260205f20905b81548152906001019060200180831161022d57829003601f168201915b50505050508152602001600382015481526020016004820154815250508152602001906001019061017e565b505050509050919050565b6001600160a01b0383165f8181526020818152604091829020825160a081018452338152808301949094528251601f8601839004830281018301845285815290939283019186908690819084018382808284375f920182905250938552505042602080850191909152600160409485018190528654808201885596845292819020855160059097020180546001600160a01b03199081166001600160a01b03988916178255918601519381018054909216939096169290921790915550810151909190600282019061035390826107ce565b50606082015160038201556080909101516004909101556001600160a01b0383165f9081526002602052604081208054600a929061039290849061088a565b90915550506001600160a01b0383165f9081526002602052604090205460321015610403576001600160a01b0383165f818152600160208190526040808320805460ff1916909217909155517ffb00f7adc91459b5048ecdc60b783959a583bafb1e3041f3e1f017540a0e47d39190a25b336001600160a01b0316836001600160a01b03167fe46d5895b0affc0072cf9d3beadfd09e767beac8df0127768321744d90a1be2984846040516104489291906108af565b60405180910390a3505050565b5f602052815f5260405f20818154811061046d575f80fd5b5f9182526020909120600590910201805460018201546002830180546001600160a01b0393841696509190921693506104a590610734565b80601f01602080910402602001604051908101604052809291908181526020018280546104d190610734565b801561051c5780601f106104f35761010080835404028352916020019161051c565b820191905f5260205f20905b8154815290600101906020018083116104ff57829003601f168201915b5050505050908060030154908060040154905085565b80356001600160a01b0381168114610548575f80fd5b919050565b5f6020828403121561055d575f80fd5b61056682610532565b9392505050565b5f81518084525f5b8181101561059157602081850181015186830182015201610575565b505f602082860101526020601f19601f83011685010191505092915050565b5f6020808301818452808551808352604092508286019150828160051b8701018488015f5b8381101561064357888303603f19018552815180516001600160a01b0390811685528882015116888501528681015160a0888601819052906106198287018261056d565b606084810151908801526080938401519390960192909252505093860193908601906001016105d5565b509098975050505050505050565b5f805f60408486031215610663575f80fd5b61066c84610532565b9250602084013567ffffffffffffffff80821115610688575f80fd5b818601915086601f83011261069b575f80fd5b8135818111156106a9575f80fd5b8760208285010111156106ba575f80fd5b6020830194508093505050509250925092565b5f80604083850312156106de575f80fd5b6106e783610532565b946020939093013593505050565b6001600160a01b0386811682528516602082015260a0604082018190525f906107209083018661056d565b606083019490945250608001529392505050565b600181811c9082168061074857607f821691505b60208210810361076657634e487b7160e01b5f52602260045260245ffd5b50919050565b634e487b7160e01b5f52604160045260245ffd5b601f8211156107c9575f81815260208120601f850160051c810160208610156107a65750805b601f850160051c820191505b818110156107c5578281556001016107b2565b5050505b505050565b815167ffffffffffffffff8111156107e8576107e861076c565b6107fc816107f68454610734565b84610780565b602080601f83116001811461082f575f84156108185750858301515b5f19600386901b1c1916600185901b1785556107c5565b5f85815260208120601f198616915b8281101561085d5788860151825594840194600190910190840161083e565b508582101561087a57878501515f19600388901b60f8161c191681555b5050505050600190811b01905550565b808201808211156108a957634e487b7160e01b5f52601160045260245ffd5b92915050565b60208152816020820152818360408301375f818301604090810191909152601f909201601f1916010191905056fea2646970667358221220f00a499cea2835f69e6a9d40e9949cdf760f70d2cbf82e5c96d49ef0a60de62f64736f6c63430008140033","opcodes":"PUSH1 0x80 PUSH1 0x40 MSTORE CALLVALUE DUP1 ISZERO PUSH2 0xF JUMPI PUSH0 DUP1 REVERT JUMPDEST POP PUSH2 0x913 DUP1 PUSH2 0x1D PUSH0 CODECOPY PUSH0 RETURN INVALID PUSH1 0x80 PUSH1 0x40 MSTORE CALLVALUE DUP1 ISZERO PUSH2 0xF JUMPI PUSH0 DUP1 REVERT JUMPDEST POP PUSH1 0x4 CALLDATASIZE LT PUSH2 0x60 JUMPI PUSH0 CALLDATALOAD PUSH1 0xE0 SHR DUP1 PUSH4 0x2538DB79 EQ PUSH2 0x64 JUMPI DUP1 PUSH4 0x3D3D7182 EQ PUSH2 0x96 JUMPI DUP1 PUSH4 0x61D67488 EQ PUSH2 0xB6 JUMPI DUP1 PUSH4 0x9F6840C6 EQ PUSH2 0xCB JUMPI DUP1 PUSH4 0xBAD02C7E EQ PUSH2 0xF3 JUMPI DUP1 PUSH4 0xFE575A87 EQ PUSH2 0x117 JUMPI JUMPDEST PUSH0 DUP1 REVERT JUMPDEST PUSH2 0x83 PUSH2 0x72 CALLDATASIZE PUSH1 0x4 PUSH2 0x54D JUMP JUMPDEST PUSH1 0x2 PUSH1 0x20 MSTORE PUSH0 SWAP1 DUP2 MSTORE PUSH1 0x40 SWAP1 KECCAK256 SLOAD DUP2 JUMP JUMPDEST PUSH1 0x40 MLOAD SWAP1 DUP2 MSTORE PUSH1 0x20 ADD JUMPDEST PUSH1 0x40 MLOAD DUP1 SWAP2 SUB SWAP1 RETURN JUMPDEST PUSH2 0xA9 PUSH2 0xA4 CALLDATASIZE PUSH1 0x4 PUSH2 0x54D JUMP JUMPDEST PUSH2 0x149 JUMP JUMPDEST PUSH1 0x40 MLOAD PUSH2 0x8D SWAP2 SWAP1 PUSH2 0x5B0 JUMP JUMPDEST PUSH2 0xC9 PUSH2 0xC4 CALLDATASIZE PUSH1 0x4 PUSH2 0x651 JUMP JUMPDEST PUSH2 0x281 JUMP JUMPDEST STOP JUMPDEST PUSH2 0x83 PUSH2 0xD9 CALLDATASIZE PUSH1 0x4 PUSH2 0x54D JUMP JUMPDEST PUSH1 0x1 PUSH1 0x1 PUSH1 0xA0 SHL SUB AND PUSH0 SWAP1 DUP2 MSTORE PUSH1 0x2 PUSH1 0x20 MSTORE PUSH1 0x40 SWAP1 KECCAK256 SLOAD SWAP1 JUMP JUMPDEST PUSH2 0x106 PUSH2 0x101 CALLDATASIZE PUSH1 0x4 PUSH2 0x6CD JUMP JUMPDEST PUSH2 0x455 JUMP JUMPDEST PUSH1 0x40 MLOAD PUSH2 0x8D SWAP6 SWAP5 SWAP4 SWAP3 SWAP2 SWAP1 PUSH2 0x6F5 JUMP JUMPDEST PUSH2 0x139 PUSH2 0x125 CALLDATASIZE PUSH1 0x4 PUSH2 0x54D JUMP JUMPDEST PUSH1 0x1 PUSH1 0x20 MSTORE PUSH0 SWAP1 DUP2 MSTORE PUSH1 0x40 SWAP1 KECCAK256 SLOAD PUSH1 0xFF AND DUP2 JUMP JUMPDEST PUSH1 0x40 MLOAD SWAP1 ISZERO ISZERO DUP2 MSTORE PUSH1 0x20 ADD PUSH2 0x8D JUMP JUMPDEST PUSH1 0x1 PUSH1 0x1 PUSH1 0xA0 SHL SUB DUP2 AND PUSH0 SWAP1 DUP2 MSTORE PUSH1 0x20 DUP2 DUP2 MSTORE PUSH1 0x40 DUP1 DUP4 KECCAK256 DUP1 SLOAD DUP3 MLOAD DUP2 DUP6 MUL DUP2 ADD DUP6 ADD SWAP1 SWAP4 MSTORE DUP1 DUP4 MSTORE PUSH1 0x60 SWAP5 SWAP3 SWAP4 SWAP2 SWAP3 SWAP1 SWAP2 DUP5 ADD JUMPDEST DUP3 DUP3 LT ISZERO PUSH2 0x276 JUMPI PUSH0 DUP5 DUP2 MSTORE PUSH1 0x20 SWAP1 DUP2 SWAP1 KECCAK256 PUSH1 0x40 DUP1 MLOAD PUSH1 0xA0 DUP2 ADD DUP3 MSTORE PUSH1 0x5 DUP7 MUL SWAP1 SWAP3 ADD DUP1 SLOAD PUSH1 0x1 PUSH1 0x1 PUSH1 0xA0 SHL SUB SWAP1 DUP2 AND DUP5 MSTORE PUSH1 0x1 DUP3 ADD SLOAD AND SWAP4 DUP4 ADD SWAP4 SWAP1 SWAP4 MSTORE PUSH1 0x2 DUP4 ADD DUP1 SLOAD SWAP3 SWAP4 SWAP3 SWAP2 DUP5 ADD SWAP2 PUSH2 0x1D3 SWAP1 PUSH2 0x734 JUMP JUMPDEST DUP1 PUSH1 0x1F ADD PUSH1 0x20 DUP1 SWAP2 DIV MUL PUSH1 0x20 ADD PUSH1 0x40 MLOAD SWAP1 DUP2 ADD PUSH1 0x40 MSTORE DUP1 SWAP3 SWAP2 SWAP1 DUP2 DUP2 MSTORE PUSH1 0x20 ADD DUP3 DUP1 SLOAD PUSH2 0x1FF SWAP1 PUSH2 0x734 JUMP JUMPDEST DUP1 ISZERO PUSH2 0x24A JUMPI DUP1 PUSH1 0x1F LT PUSH2 0x221 JUMPI PUSH2 0x100 DUP1 DUP4 SLOAD DIV MUL DUP4 MSTORE SWAP2 PUSH1 0x20 ADD SWAP2 PUSH2 0x24A JUMP JUMPDEST DUP3 ADD SWAP2 SWAP1 PUSH0 MSTORE PUSH1 0x20 PUSH0 KECCAK256 SWAP1 JUMPDEST DUP2 SLOAD DUP2 MSTORE SWAP1 PUSH1 0x1 ADD SWAP1 PUSH1 0x20 ADD DUP1 DUP4 GT PUSH2 0x22D JUMPI DUP3 SWAP1 SUB PUSH1 0x1F AND DUP3 ADD SWAP2 JUMPDEST POP POP POP POP POP DUP2 MSTORE PUSH1 0x20 ADD PUSH1 0x3 DUP3 ADD SLOAD DUP2 MSTORE PUSH1 0x20 ADD PUSH1 0x4 DUP3 ADD SLOAD DUP2 MSTORE POP POP DUP2 MSTORE PUSH1 0x20 ADD SWAP1 PUSH1 0x1 ADD SWAP1 PUSH2 0x17E JUMP JUMPDEST POP POP POP POP SWAP1 POP SWAP2 SWAP1 POP JUMP JUMPDEST PUSH1 0x1 PUSH1 0x1 PUSH1 0xA0 SHL SUB DUP4 AND PUSH0 DUP2 DUP2 MSTORE PUSH1 0x20 DUP2 DUP2 MSTORE PUSH1 0x40 SWAP2 DUP3 SWAP1 KECCAK256 DUP3 MLOAD PUSH1 0xA0 DUP2 ADD DUP5 MSTORE CALLER DUP2 MSTORE DUP1 DUP4 ADD SWAP5 SWAP1 SWAP5 MSTORE DUP3 MLOAD PUSH1 0x1F DUP7 ADD DUP4 SWAP1 DIV DUP4 MUL DUP2 ADD DUP4 ADD DUP5 MSTORE DUP6 DUP2 MSTORE SWAP1 SWAP4 SWAP3 DUP4 ADD SWAP2 DUP7 SWAP1 DUP7 SWAP1 DUP2 SWAP1 DUP5 ADD DUP4 DUP3 DUP1 DUP3 DUP5 CALLDATACOPY PUSH0 SWAP3 ADD DUP3 SWAP1 MSTORE POP SWAP4 DUP6 MSTORE POP POP TIMESTAMP PUSH1 0x20 DUP1 DUP6 ADD SWAP2 SWAP1 SWAP2 MSTORE PUSH1 0x1 PUSH1 0x40 SWAP5 DUP6 ADD DUP2 SWAP1 MSTORE DUP7 SLOAD DUP1 DUP3 ADD DUP9 SSTORE SWAP7 DUP5 MSTORE SWAP3 DUP2 SWAP1 KECCAK256 DUP6 MLOAD PUSH1 0x5 SWAP1 SWAP8 MUL ADD DUP1 SLOAD PUSH1 0x1 PUSH1 0x1 PUSH1 0xA0 SHL SUB NOT SWAP1 DUP2 AND PUSH1 0x1 PUSH1 0x1 PUSH1 0xA0 SHL SUB SWAP9 DUP10 AND OR DUP3 SSTORE SWAP2 DUP7 ADD MLOAD SWAP4 DUP2 ADD DUP1 SLOAD SWAP1 SWAP3 AND SWAP4 SWAP1 SWAP7 AND SWAP3 SWAP1 SWAP3 OR SWAP1 SWAP2 SSTORE POP DUP2 ADD MLOAD SWAP1 SWAP2 SWAP1 PUSH1 0x2 DUP3 ADD SWAP1 PUSH2 0x353 SWAP1 DUP3 PUSH2 0x7CE JUMP JUMPDEST POP PUSH1 0x60 DUP3 ADD MLOAD PUSH1 0x3 DUP3 ADD SSTORE PUSH1 0x80 SWAP1 SWAP2 ADD MLOAD PUSH1 0x4 SWAP1 SWAP2 ADD SSTORE PUSH1 0x1 PUSH1 0x1 PUSH1 0xA0 SHL SUB DUP4 AND PUSH0 SWAP1 DUP2 MSTORE PUSH1 0x2 PUSH1 0x20 MSTORE PUSH1 0x40 DUP2 KECCAK256 DUP1 SLOAD PUSH1 0xA SWAP3 SWAP1 PUSH2 0x392 SWAP1 DUP5 SWAP1 PUSH2 0x88A JUMP JUMPDEST SWAP1 SWAP2 SSTORE POP POP PUSH1 0x1 PUSH1 0x1 PUSH1 0xA0 SHL SUB DUP4 AND PUSH0 SWAP1 DUP2 MSTORE PUSH1 0x2 PUSH1 0x20 MSTORE PUSH1 0x40 SWAP1 KECCAK256 SLOAD PUSH1 0x32 LT ISZERO PUSH2 0x403 JUMPI PUSH1 0x1 PUSH1 0x1 PUSH1 0xA0 SHL SUB DUP4 AND PUSH0 DUP2 DUP2 MSTORE PUSH1 0x1 PUSH1 0x20 DUP2 SWAP1 MSTORE PUSH1 0x40 DUP1 DUP4 KECCAK256 DUP1 SLOAD PUSH1 0xFF NOT AND SWAP1 SWAP3 OR SWAP1 SWAP2 SSTORE MLOAD PUSH32 0xFB00F7ADC91459B5048ECDC60B783959A583BAFB1E3041F3E1F017540A0E47D3 SWAP2 SWAP1 LOG2 JUMPDEST CALLER PUSH1 0x1 PUSH1 0x1 PUSH1 0xA0 SHL SUB AND DUP4 PUSH1 0x1 PUSH1 0x1 PUSH1 0xA0 SHL SUB AND PUSH32 0xE46D5895B0AFFC0072CF9D3BEADFD09E767BEAC8DF0127768321744D90A1BE29 DUP5 DUP5 PUSH1 0x40 MLOAD PUSH2 0x448 SWAP3 SWAP2 SWAP1 PUSH2 0x8AF JUMP JUMPDEST PUSH1 0x40 MLOAD DUP1 SWAP2 SUB SWAP1 LOG3 POP POP POP JUMP JUMPDEST PUSH0 PUSH1 0x20 MSTORE DUP2 PUSH0 MSTORE PUSH1 0x40 PUSH0 KECCAK256 DUP2 DUP2 SLOAD DUP2 LT PUSH2 0x46D JUMPI PUSH0 DUP1 REVERT JUMPDEST PUSH0 SWAP2 DUP3 MSTORE PUSH1 0x20 SWAP1 SWAP2 KECCAK256 PUSH1 0x5 SWAP1 SWAP2 MUL ADD DUP1 SLOAD PUSH1 0x1 DUP3 ADD SLOAD PUSH1 0x2 DUP4 ADD DUP1 SLOAD PUSH1 0x1 PUSH1 0x1 PUSH1 0xA0 SHL SUB SWAP4 DUP5 AND SWAP7 POP SWAP2 SWAP1 SWAP3 AND SWAP4 POP PUSH2 0x4A5 SWAP1 PUSH2 0x734 JUMP JUMPDEST DUP1 PUSH1 0x1F ADD PUSH1 0x20 DUP1 SWAP2 DIV MUL PUSH1 0x20 ADD PUSH1 0x40 MLOAD SWAP1 DUP2 ADD PUSH1 0x40 MSTORE DUP1 SWAP3 SWAP2 SWAP1 DUP2 DUP2 MSTORE PUSH1 0x20 ADD DUP3 DUP1 SLOAD PUSH2 0x4D1 SWAP1 PUSH2 0x734 JUMP JUMPDEST DUP1 ISZERO PUSH2 0x51C JUMPI DUP1 PUSH1 0x1F LT PUSH2 0x4F3 JUMPI PUSH2 0x100 DUP1 DUP4 SLOAD DIV MUL DUP4 MSTORE SWAP2 PUSH1 0x20 ADD SWAP2 PUSH2 0x51C JUMP JUMPDEST DUP3 ADD SWAP2 SWAP1 PUSH0 MSTORE PUSH1 0x20 PUSH0 KECCAK256 SWAP1 JUMPDEST DUP2 SLOAD DUP2 MSTORE SWAP1 PUSH1 0x1 ADD SWAP1 PUSH1 0x20 ADD DUP1 DUP4 GT PUSH2 0x4FF JUMPI DUP3 SWAP1 SUB PUSH1 0x1F AND DUP3 ADD SWAP2 JUMPDEST POP POP POP POP POP SWAP1 DUP1 PUSH1 0x3 ADD SLOAD SWAP1 DUP1 PUSH1 0x4 ADD SLOAD SWAP1 POP DUP6 JUMP JUMPDEST DUP1 CALLDATALOAD PUSH1 0x1 PUSH1 0x1 PUSH1 0xA0 SHL SUB DUP2 AND DUP2 EQ PUSH2 0x548 JUMPI PUSH0 DUP1 REVERT JUMPDEST SWAP2 SWAP1 POP JUMP JUMPDEST PUSH0 PUSH1 0x20 DUP3 DUP5 SUB SLT ISZERO PUSH2 0x55D JUMPI PUSH0 DUP1 REVERT JUMPDEST PUSH2 0x566 DUP3 PUSH2 0x532 JUMP JUMPDEST SWAP4 SWAP3 POP POP POP JUMP JUMPDEST PUSH0 DUP2 MLOAD DUP1 DUP5 MSTORE PUSH0 JUMPDEST DUP2 DUP2 LT ISZERO PUSH2 0x591 JUMPI PUSH1 0x20 DUP2 DUP6 ADD DUP2 ADD MLOAD DUP7 DUP4 ADD DUP3 ADD MSTORE ADD PUSH2 0x575 JUMP JUMPDEST POP PUSH0 PUSH1 0x20 DUP3 DUP7 ADD ADD MSTORE PUSH1 0x20 PUSH1 0x1F NOT PUSH1 0x1F DUP4 ADD AND DUP6 ADD ADD SWAP2 POP POP SWAP3 SWAP2 POP POP JUMP JUMPDEST PUSH0 PUSH1 0x20 DUP1 DUP4 ADD DUP2 DUP5 MSTORE DUP1 DUP6 MLOAD DUP1 DUP4 MSTORE PUSH1 0x40 SWAP3 POP DUP3 DUP7 ADD SWAP2 POP DUP3 DUP2 PUSH1 0x5 SHL DUP8 ADD ADD DUP5 DUP9 ADD PUSH0 JUMPDEST DUP4 DUP2 LT ISZERO PUSH2 0x643 JUMPI DUP9 DUP4 SUB PUSH1 0x3F NOT ADD DUP6 MSTORE DUP2 MLOAD DUP1 MLOAD PUSH1 0x1 PUSH1 0x1 PUSH1 0xA0 SHL SUB SWAP1 DUP2 AND DUP6 MSTORE DUP9 DUP3 ADD MLOAD AND DUP9 DUP6 ADD MSTORE DUP7 DUP2 ADD MLOAD PUSH1 0xA0 DUP9 DUP7 ADD DUP2 SWAP1 MSTORE SWAP1 PUSH2 0x619 DUP3 DUP8 ADD DUP3 PUSH2 0x56D JUMP JUMPDEST PUSH1 0x60 DUP5 DUP2 ADD MLOAD SWAP1 DUP9 ADD MSTORE PUSH1 0x80 SWAP4 DUP5 ADD MLOAD SWAP4 SWAP1 SWAP7 ADD SWAP3 SWAP1 SWAP3 MSTORE POP POP SWAP4 DUP7 ADD SWAP4 SWAP1 DUP7 ADD SWAP1 PUSH1 0x1 ADD PUSH2 0x5D5 JUMP JUMPDEST POP SWAP1 SWAP9 SWAP8 POP POP POP POP POP POP POP POP JUMP JUMPDEST PUSH0 DUP1 PUSH0 PUSH1 0x40 DUP5 DUP7 SUB SLT ISZERO PUSH2 0x663 JUMPI PUSH0 DUP1 REVERT JUMPDEST PUSH2 0x66C DUP5 PUSH2 0x532 JUMP JUMPDEST SWAP3 POP PUSH1 0x20 DUP5 ADD CALLDATALOAD PUSH8 0xFFFFFFFFFFFFFFFF DUP1 DUP3 GT ISZERO PUSH2 0x688 JUMPI PUSH0 DUP1 REVERT JUMPDEST DUP2 DUP7 ADD SWAP2 POP DUP7 PUSH1 0x1F DUP4 ADD SLT PUSH2 0x69B JUMPI PUSH0 DUP1 REVERT JUMPDEST DUP2 CALLDATALOAD DUP2 DUP2 GT ISZERO PUSH2 0x6A9 JUMPI PUSH0 DUP1 REVERT JUMPDEST DUP8 PUSH1 0x20 DUP3 DUP6 ADD ADD GT ISZERO PUSH2 0x6BA JUMPI PUSH0 DUP1 REVERT JUMPDEST PUSH1 0x20 DUP4 ADD SWAP5 POP DUP1 SWAP4 POP POP POP POP SWAP3 POP SWAP3 POP SWAP3 JUMP JUMPDEST PUSH0 DUP1 PUSH1 0x40 DUP4 DUP6 SUB SLT ISZERO PUSH2 0x6DE JUMPI PUSH0 DUP1 REVERT JUMPDEST PUSH2 0x6E7 DUP4 PUSH2 0x532 JUMP JUMPDEST SWAP5 PUSH1 0x20 SWAP4 SWAP1 SWAP4 ADD CALLDATALOAD SWAP4 POP POP POP JUMP JUMPDEST PUSH1 0x1 PUSH1 0x1 PUSH1 0xA0 SHL SUB DUP7 DUP2 AND DUP3 MSTORE DUP6 AND PUSH1 0x20 DUP3 ADD MSTORE PUSH1 0xA0 PUSH1 0x40 DUP3 ADD DUP2 SWAP1 MSTORE PUSH0 SWAP1 PUSH2 0x720 SWAP1 DUP4 ADD DUP7 PUSH2 0x56D JUMP JUMPDEST PUSH1 0x60 DUP4 ADD SWAP5 SWAP1 SWAP5 MSTORE POP PUSH1 0x80 ADD MSTORE SWAP4 SWAP3 POP POP POP JUMP JUMPDEST PUSH1 0x1 DUP2 DUP2 SHR SWAP1 DUP3 AND DUP1 PUSH2 0x748 JUMPI PUSH1 0x7F DUP3 AND SWAP2 POP JUMPDEST PUSH1 0x20 DUP3 LT DUP2 SUB PUSH2 0x766 JUMPI PUSH4 0x4E487B71 PUSH1 0xE0 SHL PUSH0 MSTORE PUSH1 0x22 PUSH1 0x4 MSTORE PUSH1 0x24 PUSH0 REVERT JUMPDEST POP SWAP2 SWAP1 POP JUMP JUMPDEST PUSH4 0x4E487B71 PUSH1 0xE0 SHL PUSH0 MSTORE PUSH1 0x41 PUSH1 0x4 MSTORE PUSH1 0x24 PUSH0 REVERT JUMPDEST PUSH1 0x1F DUP3 GT ISZERO PUSH2 0x7C9 JUMPI PUSH0 DUP2 DUP2 MSTORE PUSH1 0x20 DUP2 KECCAK256 PUSH1 0x1F DUP6 ADD PUSH1 0x5 SHR DUP2 ADD PUSH1 0x20 DUP7 LT ISZERO PUSH2 0x7A6 JUMPI POP DUP1 JUMPDEST PUSH1 0x1F DUP6 ADD PUSH1 0x5 SHR DUP3 ADD SWAP2 POP JUMPDEST DUP2 DUP2 LT ISZERO PUSH2 0x7C5 JUMPI DUP3 DUP2 SSTORE PUSH1 0x1 ADD PUSH2 0x7B2 JUMP JUMPDEST POP POP POP JUMPDEST POP POP POP JUMP JUMPDEST DUP2 MLOAD PUSH8 0xFFFFFFFFFFFFFFFF DUP2 GT ISZERO PUSH2 0x7E8 JUMPI PUSH2 0x7E8 PUSH2 0x76C JUMP JUMPDEST PUSH2 0x7FC DUP2 PUSH2 0x7F6 DUP5 SLOAD PUSH2 0x734 JUMP JUMPDEST DUP5 PUSH2 0x780 JUMP JUMPDEST PUSH1 0x20 DUP1 PUSH1 0x1F DUP4 GT PUSH1 0x1 DUP2 EQ PUSH2 0x82F JUMPI PUSH0 DUP5 ISZERO PUSH2 0x818 JUMPI POP DUP6 DUP4 ADD MLOAD JUMPDEST PUSH0 NOT PUSH1 0x3 DUP7 SWAP1 SHL SHR NOT AND PUSH1 0x1 DUP6 SWAP1 SHL OR DUP6 SSTORE PUSH2 0x7C5 JUMP JUMPDEST PUSH0 DUP6 DUP2 MSTORE PUSH1 0x20 DUP2 KECCAK256 PUSH1 0x1F NOT DUP7 AND SWAP2 JUMPDEST DUP3 DUP2 LT ISZERO PUSH2 0x85D JUMPI DUP9 DUP7 ADD MLOAD DUP3 SSTORE SWAP5 DUP5 ADD SWAP5 PUSH1 0x1 SWAP1 SWAP2 ADD SWAP1 DUP5 ADD PUSH2 0x83E JUMP JUMPDEST POP DUP6 DUP3 LT ISZERO PUSH2 0x87A JUMPI DUP8 DUP6 ADD MLOAD PUSH0 NOT PUSH1 0x3 DUP9 SWAP1 SHL PUSH1 0xF8 AND SHR NOT AND DUP2 SSTORE JUMPDEST POP POP POP POP POP PUSH1 0x1 SWAP1 DUP2 SHL ADD SWAP1 SSTORE POP JUMP JUMPDEST DUP1 DUP3 ADD DUP1 DUP3 GT ISZERO PUSH2 0x8A9 JUMPI PUSH4 0x4E487B71 PUSH1 0xE0 SHL PUSH0 MSTORE PUSH1 0x11 PUSH1 0x4 MSTORE PUSH1 0x24 PUSH0 REVERT JUMPDEST SWAP3 SWAP2 POP POP JUMP JUMPDEST PUSH1 0x20 DUP2 MSTORE DUP2 PUSH1 0x20 DUP3 ADD MSTORE DUP2 DUP4 PUSH1 0x40 DUP4 ADD CALLDATACOPY PUSH0 DUP2 DUP4 ADD PUSH1 0x40 SWAP1 DUP2 ADD SWAP2 SWAP1 SWAP2 MSTORE PUSH1 0x1F SWAP1 SWAP3 ADD PUSH1 0x1F NOT AND ADD ADD SWAP2 SWAP1 POP JUMP INVALID LOG2 PUSH5 0x6970667358 0x22 SLT KECCAK256 CREATE EXP 0x49 SWAP13 0xEA 0x28 CALLDATALOAD 0xF6 SWAP15 PUSH11 0x9D40E9949CDF760F70D2CB 0xF8 0x2E 0x5C SWAP7 0xD4 SWAP15 CREATE 0xA6 0xD 0xE6 0x2F PUSH5 0x736F6C6343 STOP ADDMOD EQ STOP CALLER "},"methodIdentifiers":{"getReports(address)":"3d3d7182","getThreatScore(address)":"9f6840c6","isBlacklisted(address)":"fe575a87","reportThreat(address,string)":"61d67488","reports(address,uint256)":"bad02c7e","threatScore(address)":"2538db79"}}}}}