{"project/contracts/Vigilant.sol":{"Vigilant":{"abi":[{"anonymous":false,"inputs":[{"indexed":true,"internalType":"bytes32","name":"intentId","type":"bytes32"},{"indexed":true,"internalType":"address","name":"user","type":"address"},{"indexed":false,"internalType":"address","name":"target","type":"address"},{"indexed":false,"internalType":"uint256","name":"timestamp","type":"uint256"}],"name":"IntentSubmitted","type":"event"},{"anonymous":false,"inputs":[{"indexed":true,"internalType":"bytes32","name":"intentId","type":"bytes32"},{"indexed":true,"internalType":"address","name":"simulator","type":"address"},{"indexed":false,"internalType":"bool","name":"isRisky","type":"bool"},{"indexed":false,"internalType":"uint256","name":"riskScore","type":"uint256"}],"name":"SimulationSubmitted","type":"event"},{"anonymous":false,"inputs":[{"indexed":true,"internalType":"address","name":"simulator","type":"address"},{"indexed":false,"internalType":"uint256","name":"stake","type":"uint256"}],"name":"SimulatorRegistered","type":"event"},{"anonymous":false,"inputs":[{"indexed":true,"internalType":"address","name":"simulator","type":"address"},{"indexed":false,"internalType":"uint256","name":"amount","type":"uint256"}],"name":"SimulatorSlashed","type":"event"},{"anonymous":false,"inputs":[{"indexed":true,"internalType":"bytes32","name":"intentId","type":"bytes32"},{"indexed":false,"internalType":"address","name":"target","type":"address"},{"indexed":false,"internalType":"uint256","name":"timestamp","type":"uint256"}],"name":"StateChangeDetected","type":"event"},{"anonymous":false,"inputs":[{"indexed":true,"internalType":"bytes32","name":"intentId","type":"bytes32"},{"indexed":false,"internalType":"string","name":"reason","type":"string"},{"indexed":false,"internalType":"uint256","name":"riskScore","type":"uint256"}],"name":"TransactionBlocked","type":"event"},{"anonymous":false,"inputs":[{"indexed":true,"internalType":"bytes32","name":"intentId","type":"bytes32"},{"indexed":false,"internalType":"bool","name":"success","type":"bool"},{"indexed":false,"internalType":"uint256","name":"riskScore","type":"uint256"}],"name":"TransactionExecuted","type":"event"},{"inputs":[],"name":"MIN_STAKE","outputs":[{"internalType":"uint256","name":"","type":"uint256"}],"stateMutability":"view","type":"function"},{"inputs":[],"name":"SIMULATOR_REWARD","outputs":[{"internalType":"uint256","name":"","type":"uint256"}],"stateMutability":"view","type":"function"},{"inputs":[],"name":"VERIFICATION_FEE","outputs":[{"internalType":"uint256","name":"","type":"uint256"}],"stateMutability":"view","type":"function"},{"inputs":[],"name":"activeSimulators","outputs":[{"internalType":"uint256","name":"","type":"uint256"}],"stateMutability":"view","type":"function"},{"inputs":[{"internalType":"bytes32","name":"intentId","type":"bytes32"}],"name":"checkConsensus","outputs":[{"internalType":"bool","name":"hasConsensus","type":"bool"},{"internalType":"bool","name":"isSafe","type":"bool"},{"internalType":"uint256","name":"avgRiskScore","type":"uint256"}],"stateMutability":"view","type":"function"},{"inputs":[{"internalType":"bytes32","name":"intentId","type":"bytes32"}],"name":"executeIntent","outputs":[],"stateMutability":"nonpayable","type":"function"},{"inputs":[{"internalType":"bytes32","name":"intentId","type":"bytes32"},{"internalType":"address","name":"target","type":"address"}],"name":"flagStateChange","outputs":[],"stateMutability":"nonpayable","type":"function"},{"inputs":[],"name":"getInsurancePool","outputs":[{"internalType":"uint256","name":"","type":"uint256"}],"stateMutability":"view","type":"function"},{"inputs":[{"internalType":"bytes32","name":"intentId","type":"bytes32"}],"name":"getIntent","outputs":[{"components":[{"internalType":"address","name":"user","type":"address"},{"internalType":"address","name":"target","type":"address"},{"internalType":"bytes","name":"callData","type":"bytes"},{"internalType":"uint256","name":"value","type":"uint256"},{"internalType":"uint256","name":"timestamp","type":"uint256"},{"internalType":"uint256","name":"deadline","type":"uint256"},{"internalType":"bool","name":"verified","type":"bool"},{"internalType":"bool","name":"executed","type":"bool"},{"internalType":"bytes32","name":"stateSnapshot","type":"bytes32"}],"internalType":"struct Vigilant.TransactionIntent","name":"","type":"tuple"}],"stateMutability":"view","type":"function"},{"inputs":[{"internalType":"bytes32","name":"intentId","type":"bytes32"}],"name":"getSimulations","outputs":[{"components":[{"internalType":"address","name":"simulator","type":"address"},{"internalType":"bytes32","name":"resultHash","type":"bytes32"},{"internalType":"bool","name":"isRisky","type":"bool"},{"internalType":"uint256","name":"riskScore","type":"uint256"},{"internalType":"uint256","name":"timestamp","type":"uint256"}],"internalType":"struct Vigilant.SimulationResult[]","name":"","type":"tuple[]"}],"stateMutability":"view","type":"function"},{"inputs":[],"name":"insurancePool","outputs":[{"internalType":"uint256","name":"","type":"uint256"}],"stateMutability":"view","type":"function"},{"inputs":[{"internalType":"bytes32","name":"","type":"bytes32"}],"name":"intents","outputs":[{"internalType":"address","name":"user","type":"address"},{"internalType":"address","name":"target","type":"address"},{"internalType":"bytes","name":"callData","type":"bytes"},{"internalType":"uint256","name":"value","type":"uint256"},{"internalType":"uint256","name":"timestamp","type":"uint256"},{"internalType":"uint256","name":"deadline","type":"uint256"},{"internalType":"bool","name":"verified","type":"bool"},{"internalType":"bool","name":"executed","type":"bool"},{"internalType":"bytes32","name":"stateSnapshot","type":"bytes32"}],"stateMutability":"view","type":"function"},{"inputs":[],"name":"registerSimulator","outputs":[],"stateMutability":"payable","type":"function"},{"inputs":[{"internalType":"bytes32","name":"","type":"bytes32"},{"internalType":"uint256","name":"","type":"uint256"}],"name":"simulations","outputs":[{"internalType":"address","name":"simulator","type":"address"},{"internalType":"bytes32","name":"resultHash","type":"bytes32"},{"internalType":"bool","name":"isRisky","type":"bool"},{"internalType":"uint256","name":"riskScore","type":"uint256"},{"internalType":"uint256","name":"timestamp","type":"uint256"}],"stateMutability":"view","type":"function"},{"inputs":[{"internalType":"address","name":"","type":"address"}],"name":"simulatorReputation","outputs":[{"internalType":"uint256","name":"","type":"uint256"}],"stateMutability":"view","type":"function"},{"inputs":[{"internalType":"address","name":"","type":"address"}],"name":"simulatorStakes","outputs":[{"internalType":"uint256","name":"","type":"uint256"}],"stateMutability":"view","type":"function"},{"inputs":[{"internalType":"address","name":"simulator","type":"address"}],"name":"slashSimulator","outputs":[],"stateMutability":"nonpayable","type":"function"},{"inputs":[{"internalType":"bytes32","name":"","type":"bytes32"}],"name":"stateChangeFlagged","outputs":[{"internalType":"bool","name":"","type":"bool"}],"stateMutability":"view","type":"function"},{"inputs":[{"internalType":"address","name":"target","type":"address"},{"internalType":"bytes","name":"data","type":"bytes"},{"internalType":"uint256","name":"value","type":"uint256"}],"name":"submitIntent","outputs":[{"internalType":"bytes32","name":"","type":"bytes32"}],"stateMutability":"payable","type":"function"},{"inputs":[{"internalType":"bytes32","name":"intentId","type":"bytes32"},{"internalType":"bytes32","name":"resultHash","type":"bytes32"},{"internalType":"bool","name":"isRisky","type":"bool"},{"internalType":"uint256","name":"riskScore","type":"uint256"}],"name":"submitSimulation","outputs":[],"stateMutability":"nonpayable","type":"function"},{"inputs":[],"name":"withdrawStake","outputs":[],"stateMutability":"nonpayable","type":"function"}],"evm":{"bytecode":{"linkReferences":{},"object":"608060405234801561000f575f80fd5b50611ebf8061001d5f395ff3fe608060405260043610610126575f3560e01c80639601bd23116100a8578063bed9d8611161006d578063bed9d8611461034f578063cb1c2b5c14610363578063d0d5665b1461037e578063ddfeb4e214610392578063e1daa5a5146103a7578063f13c46aa146103fe575f80fd5b80639601bd23146102aa5780639c724c4a146102c45780639d1ac7bf146102e3578063ab2adc001461030f578063b5a0c8c014610324575f80fd5b80636b9498d3116100ee5780636b9498d31461021657806378a1bffd146102355780637a1c9ca71461024f578063865d87471461026e5780639021578a14610276575f80fd5b80631bdf5e641461012a5780632946cd56146101685780632bcd10cb146101a45780632fbbe156146101b75780635b8a0104146101d8575b5f80fd5b348015610135575f80fd5b506101556101443660046118d3565b60036020525f908152604090205481565b6040519081526020015b60405180910390f35b348015610173575f80fd5b506101876101823660046118f3565b61042a565b60408051931515845291151560208401529082015260600161015f565b6101556101b236600461190a565b61061f565b3480156101c2575f80fd5b506101d66101d136600461198c565b6108ba565b005b3480156101e3575f80fd5b506102066101f23660046118f3565b60026020525f908152604090205460ff1681565b604051901515815260200161015f565b348015610221575f80fd5b506101d66102303660046118d3565b610d4f565b348015610240575f80fd5b5061015566038d7ea4c6800081565b34801561025a575f80fd5b506101d66102693660046118f3565b610e5c565b6101d6611281565b348015610281575f80fd5b506102956102903660046118f3565b611388565b60405161015f99989796959493929190611a0f565b3480156102b5575f80fd5b5061015566012c221cc6a00081565b3480156102cf575f80fd5b506101d66102de366004611a72565b611469565b3480156102ee575f80fd5b506103026102fd3660046118f3565b61151f565b60405161015f9190611a9c565b34801561031a575f80fd5b5061015560065481565b34801561032f575f80fd5b5061015561033e3660046118d3565b60046020525f908152604090205481565b34801561035a575f80fd5b506101d66115c7565b34801561036e575f80fd5b50610155678ac7230489e8000081565b348015610389575f80fd5b50600654610155565b34801561039d575f80fd5b5061015560055481565b3480156103b2575f80fd5b506103c66103c1366004611b14565b6116b3565b604080516001600160a01b0390961686526020860194909452911515928401929092526060830191909152608082015260a00161015f565b348015610409575f80fd5b5061041d6104183660046118f3565b61170a565b60405161015f9190611b34565b5f805f8060015f8681526020019081526020015f20805480602002602001604051908101604052809291908181526020015f905b828210156104c9575f8481526020908190206040805160a0810182526005860290920180546001600160a01b0316835260018082015484860152600282015460ff1615159284019290925260038101546060840152600401546080830152908352909201910161045e565b50505050905060038151101561051c5760405162461bcd60e51b81526020600482015260136024820152724e65656420332b2073696d756c6174696f6e7360681b60448201526064015b60405180910390fd5b5f815f8151811061052f5761052f611be0565b60200260200101516020015190505f805f805b85518110156105eb578486828151811061055e5761055e611be0565b6020026020010151602001510361057d578361057981611c08565b9450505b85818151811061058f5761058f611be0565b602002602001015160400151156105ae57826105aa81611c08565b9350505b8581815181106105c0576105c0611be0565b602002602001015160600151826105d79190611c20565b9150806105e381611c08565b915050610542565b5084516105f89082611c39565b9550600283101597506002821080156106115750603286105b965050505050509193909250565b5f61063166038d7ea4c6800083611c20565b3410156106775760405162461bcd60e51b8152602060048201526014602482015273125b9cdd59999a58da595b9d081c185e5b595b9d60621b6044820152606401610513565b600360055410156106c25760405162461bcd60e51b81526020600482015260156024820152744e6f7420656e6f7567682073696d756c61746f727360581b6044820152606401610513565b5f3386868642436040516020016106de96959493929190611c58565b6040516020818303038152906040528051906020012090505f61070087611866565b9050604051806101200160405280336001600160a01b03168152602001886001600160a01b0316815260200187878080601f0160208091040260200160405190810160405280939291908181526020018383808284375f9201919091525050509082525060208101869052426040820181905260609091019061078490603c611c20565b81525f60208083018290526040808401839052606090930185905285825281815290829020835181546001600160a01b03199081166001600160a01b03928316178355928501516001830180549094169116179091559082015160028201906107ed9082611d33565b50606082015160038201556080820151600482015560a0820151600582015560c082015160068201805460e085015161ffff1990911692151561ff00191692909217610100921515830217905590910151600790910155610856600266038d7ea4c68000611c39565b60065f8282546108669190611c20565b9091555050604080516001600160a01b0389168152426020820152339184917fcb03dc93817e5aa381078ea8f167eed0635094015e207790a2605d5dc4b14e9d910160405180910390a35095945050505050565b335f90815260036020526040902054678ac7230489e8000011156109175760405162461bcd60e51b81526020600482015260146024820152732737ba1039ba30b5b2b21039b4b6bab630ba37b960611b6044820152606401610513565b5f8481526020818152604080832081516101208101835281546001600160a01b03908116825260018301541693810193909352600281018054919284019161095e90611cb1565b80601f016020809104026020016040519081016040528092919081815260200182805461098a90611cb1565b80156109d55780601f106109ac576101008083540402835291602001916109d5565b820191905f5260205f20905b8154815290600101906020018083116109b857829003601f168201915b5050509183525050600382015460208201526004820154604082015260058201546060820152600682015460ff8082161515608084015261010090910416151560a082015260079091015460c09091015280519091506001600160a01b0316610a735760405162461bcd60e51b815260206004820152601060248201526f125b9d195b9d081b9bdd08199bdd5b9960821b6044820152606401610513565b8060a00151421115610ab85760405162461bcd60e51b815260206004820152600e60248201526d125b9d195b9d08195e1c1a5c995960921b6044820152606401610513565b8060e0015115610afd5760405162461bcd60e51b815260206004820152601060248201526f105b1c9958591e48195e1958dd5d195960821b6044820152606401610513565b5f85815260016020908152604080832080548251818502810185019093528083529192909190849084015b82821015610b93575f8481526020908190206040805160a0810182526005860290920180546001600160a01b0316835260018082015484860152600282015460ff16151592840192909252600381015460608401526004015460808301529083529092019101610b28565b5050505090505f5b8151811015610c2757336001600160a01b0316828281518110610bc057610bc0611be0565b60200260200101515f01516001600160a01b031603610c155760405162461bcd60e51b8152602060048201526011602482015270105b1c9958591e481cdd589b5a5d1d1959607a1b6044820152606401610513565b80610c1f81611c08565b915050610b9b565b505f868152600160208181526040808420815160a081018352338082528185018c81528b1515838601818152606085018d815242608087019081528754808c018955978c529a8990209551600590970290950180546001600160a01b0319166001600160a01b039097169690961786559151978501979097555160028401805460ff1916911515919091179055905160038301559451600490910155805192835290820186905288917feb2d6cf0f91a0fbf91681a90a6842098ce1438f56122fffa6acad4886e87c6c4910160405180910390a360405133905f9066012c221cc6a0009082818181858883f19350505050158015610d27573d5f803e3d5ffd5b50335f908152600460205260408120805491610d4283611c08565b9190505550505050505050565b6001600160a01b0381165f90815260046020526040902054601e11610dac5760405162461bcd60e51b81526020600482015260136024820152720a4cae0eae8c2e8d2dedc40e8dede40d0d2ced606b1b6044820152606401610513565b6001600160a01b0381165f90815260036020526040812054610dd090600a90611c39565b6001600160a01b0383165f90815260036020526040812080549293508392909190610dfc908490611def565b925050819055508060065f828254610e149190611c20565b90915550506040518181526001600160a01b038316907f1e47e6dbb9f53156b118857b7c5d03b4add354e2be4b072201bf390da18b83fc906020015b60405180910390a25050565b5f81815260208190526040902080546001600160a01b03163314610eb35760405162461bcd60e51b815260206004820152600e60248201526d139bdd08185d5d1a1bdc9a5e995960921b6044820152606401610513565b6006810154610100900460ff1615610f005760405162461bcd60e51b815260206004820152601060248201526f105b1c9958591e48195e1958dd5d195960821b6044820152606401610513565b8060050154421115610f3e5760405162461bcd60e51b8152602060048201526007602482015266115e1c1a5c995960ca1b6044820152606401610513565b5f805f610f4a8561042a565b92509250925082610f905760405162461bcd60e51b815260206004820152601060248201526f139bc818dbdb9cd95b9cdd5cc81e595d60821b6044820152606401610513565b5f8581526002602052604090205460ff16156110845760018401545f90610fbf906001600160a01b0316611866565b90508460070154811461108257857f4c1d8dd193e6f5da130c5f803490cd0ca085b0385db8eba187b72e0d17d396828360405161102691906040808252600d908201526c14dd185d194818da185b99d959609a1b6060820152602081019190915260800190565b60405180910390a260405162461bcd60e51b815260206004820152602360248201527f5374617465206368616e676564202d207472616e73616374696f6e20626c6f636044820152621ad95960ea1b6064820152608401610513565b505b811580611092575060328110155b1561117f57847f4c1d8dd193e6f5da130c5f803490cd0ca085b0385db8eba187b72e0d17d39682826040516110f69190604080825260129082015271121a59da081c9a5cdac819195d1958dd195960721b6060820152602081019190915260800190565b60405180910390a283546040516001600160a01b03909116905f9066038d7ea4c680009082818181858883f19350505050158015611136573d5f803e3d5ffd5b5060405162461bcd60e51b815260206004820152601f60248201527f5472616e73616374696f6e20626c6f636b6564202d2068696768207269736b006044820152606401610513565b60068401805461ff001916610100179055600184015460038501546040515f926001600160a01b031691906111b8906002890190611e02565b5f6040518083038185875af1925050503d805f81146111f2576040519150601f19603f3d011682016040523d82523d5f602084013e6111f7565b606091505b50506040805182151581526020810185905291925087917f318779ca6603af3177f69050c37bcbd11cda39233f1bdeebe4f3e557b92134dc910160405180910390a2806112795760405162461bcd60e51b815260206004820152601060248201526f115e1958dd5d1a5bdb8819985a5b195960821b6044820152606401610513565b505050505050565b678ac7230489e800003410156112ce5760405162461bcd60e51b8152602060048201526012602482015271496e73756666696369656e74207374616b6560701b6044820152606401610513565b335f908152600360205260409020541561131f5760405162461bcd60e51b8152602060048201526012602482015271105b1c9958591e481c9959da5cdd195c995960721b6044820152606401610513565b335f9081526003602090815260408083203490556004909152812060649055600580549161134c83611c08565b909155505060405134815233907f35d0894dec0c0bddd9875096d467a927ef15c68bc2ba727def28646a258ccad39060200160405180910390a2565b5f602081905290815260409020805460018201546002830180546001600160a01b039384169492909316926113bc90611cb1565b80601f01602080910402602001604051908101604052809291908181526020018280546113e890611cb1565b80156114335780601f1061140a57610100808354040283529160200191611433565b820191905f5260205f20905b81548152906001019060200180831161141657829003601f168201915b505050600384015460048501546005860154600687015460079097015495969295919450925060ff808316926101009004169089565b5f828152602081905260409020546001600160a01b03166114bf5760405162461bcd60e51b815260206004820152601060248201526f125b9d195b9d081b9bdd08199bdd5b9960821b6044820152606401610513565b5f8281526002602052604090819020805460ff191660011790555182907f67b3be42d6f00d96d423921d7f71b20808f2cdab144cc750107744a31f7c39e790610e5090849042906001600160a01b03929092168252602082015260400190565b606060015f8381526020019081526020015f20805480602002602001604051908101604052809291908181526020015f905b828210156115bc575f8481526020908190206040805160a0810182526005860290920180546001600160a01b0316835260018082015484860152600282015460ff16151592840192909252600381015460608401526004015460808301529083529092019101611551565b505050509050919050565b335f9081526003602052604090205461160d5760405162461bcd60e51b81526020600482015260086024820152674e6f207374616b6560c01b6044820152606401610513565b335f908152600460205260409020546032111561165d5760405162461bcd60e51b815260206004820152600e60248201526d2637bb903932b83aba30ba34b7b760911b6044820152606401610513565b335f90815260036020526040812080549082905560058054919261168083611e74565b9091555050604051339082156108fc029083905f818181858888f193505050501580156116af573d5f803e3d5ffd5b5050565b6001602052815f5260405f2081815481106116cc575f80fd5b5f918252602090912060059091020180546001820154600283015460038401546004909401546001600160a01b03909316955090935060ff16919085565b6040805161012080820183525f8083526020808401829052606084860181905284018290526080840182905260a0840182905260c0840182905260e084018290526101008401829052858252818152908490208451928301855280546001600160a01b0390811684526001820154169183019190915260028101805493949293919284019161179890611cb1565b80601f01602080910402602001604051908101604052809291908181526020018280546117c490611cb1565b801561180f5780601f106117e65761010080835404028352916020019161180f565b820191905f5260205f20905b8154815290600101906020018083116117f257829003601f168201915b5050509183525050600382015460208201526004820154604082015260058201546060820152600682015460ff8082161515608084015261010090910416151560a082015260079091015460c09091015292915050565b5f6001600160a01b0382168031903b611880600143611def565b604080516020810194909452830191909152406060820152608001604051602081830303815290604052805190602001209050919050565b80356001600160a01b03811681146118ce575f80fd5b919050565b5f602082840312156118e3575f80fd5b6118ec826118b8565b9392505050565b5f60208284031215611903575f80fd5b5035919050565b5f805f806060858703121561191d575f80fd5b611926856118b8565b9350602085013567ffffffffffffffff80821115611942575f80fd5b818701915087601f830112611955575f80fd5b813581811115611963575f80fd5b886020828501011115611974575f80fd5b95986020929092019750949560400135945092505050565b5f805f806080858703121561199f575f80fd5b8435935060208501359250604085013580151581146119bc575f80fd5b9396929550929360600135925050565b5f81518084525f5b818110156119f0576020818501810151868301820152016119d4565b505f602082860101526020601f19601f83011685010191505092915050565b6001600160a01b038a8116825289166020820152610120604082018190525f90611a3b8382018b6119cc565b60608401999099525050608081019590955260a085019390935290151560c0840152151560e0830152610100909101529392505050565b5f8060408385031215611a83575f80fd5b82359150611a93602084016118b8565b90509250929050565b602080825282518282018190525f919060409081850190868401855b82811015611b0757815180516001600160a01b03168552868101518786015285810151151586860152606080820151908601526080908101519085015260a09093019290850190600101611ab8565b5091979650505050505050565b5f8060408385031215611b25575f80fd5b50508035926020909101359150565b60208152611b4e6020820183516001600160a01b03169052565b5f6020830151611b6960408401826001600160a01b03169052565b506040830151610120806060850152611b866101408501836119cc565b915060608501516080850152608085015160a085015260a085015160c085015260c0850151611bb960e086018215159052565b5060e0850151610100611bcf8187018315159052565b959095015193019290925250919050565b634e487b7160e01b5f52603260045260245ffd5b634e487b7160e01b5f52601160045260245ffd5b5f60018201611c1957611c19611bf4565b5060010190565b80820180821115611c3357611c33611bf4565b92915050565b5f82611c5357634e487b7160e01b5f52601260045260245ffd5b500490565b5f6bffffffffffffffffffffffff19808960601b168352808860601b166014840152508486602884013750602893019283019190915260488201526068019392505050565b634e487b7160e01b5f52604160045260245ffd5b600181811c90821680611cc557607f821691505b602082108103611ce357634e487b7160e01b5f52602260045260245ffd5b50919050565b601f821115611d2e575f81815260208120601f850160051c81016020861015611d0f5750805b601f850160051c820191505b8181101561127957828155600101611d1b565b505050565b815167ffffffffffffffff811115611d4d57611d4d611c9d565b611d6181611d5b8454611cb1565b84611ce9565b602080601f831160018114611d94575f8415611d7d5750858301515b5f19600386901b1c1916600185901b178555611279565b5f85815260208120601f198616915b82811015611dc257888601518255948401946001909101908401611da3565b5085821015611ddf57878501515f19600388901b60f8161c191681555b5050505050600190811b01905550565b81810381811115611c3357611c33611bf4565b5f808354611e0f81611cb1565b60018281168015611e275760018114611e3c57611e68565b60ff1984168752821515830287019450611e68565b875f526020805f205f5b85811015611e5f5781548a820152908401908201611e46565b50505082870194505b50929695505050505050565b5f81611e8257611e82611bf4565b505f19019056fea264697066735822122011061575f08ed06d227ba05c0fc90c4e32c21eab21033b332a187784d679b88d64736f6c63430008140033","opcodes":"PUSH1 0x80 PUSH1 0x40 MSTORE CALLVALUE DUP1 ISZERO PUSH2 0xF JUMPI PUSH0 DUP1 REVERT JUMPDEST POP PUSH2 0x1EBF DUP1 PUSH2 0x1D PUSH0 CODECOPY PUSH0 RETURN INVALID PUSH1 0x80 PUSH1 0x40 MSTORE PUSH1 0x4 CALLDATASIZE LT PUSH2 0x126 JUMPI PUSH0 CALLDATALOAD PUSH1 0xE0 SHR DUP1 PUSH4 0x9601BD23 GT PUSH2 0xA8 JUMPI DUP1 PUSH4 0xBED9D861 GT PUSH2 0x6D JUMPI DUP1 PUSH4 0xBED9D861 EQ PUSH2 0x34F JUMPI DUP1 PUSH4 0xCB1C2B5C EQ PUSH2 0x363 JUMPI DUP1 PUSH4 0xD0D5665B EQ PUSH2 0x37E JUMPI DUP1 PUSH4 0xDDFEB4E2 EQ PUSH2 0x392 JUMPI DUP1 PUSH4 0xE1DAA5A5 EQ PUSH2 0x3A7 JUMPI DUP1 PUSH4 0xF13C46AA EQ PUSH2 0x3FE JUMPI PUSH0 DUP1 REVERT JUMPDEST DUP1 PUSH4 0x9601BD23 EQ PUSH2 0x2AA JUMPI DUP1 PUSH4 0x9C724C4A EQ PUSH2 0x2C4 JUMPI DUP1 PUSH4 0x9D1AC7BF EQ PUSH2 0x2E3 JUMPI DUP1 PUSH4 0xAB2ADC00 EQ PUSH2 0x30F JUMPI DUP1 PUSH4 0xB5A0C8C0 EQ PUSH2 0x324 JUMPI PUSH0 DUP1 REVERT JUMPDEST DUP1 PUSH4 0x6B9498D3 GT PUSH2 0xEE JUMPI DUP1 PUSH4 0x6B9498D3 EQ PUSH2 0x216 JUMPI DUP1 PUSH4 0x78A1BFFD EQ PUSH2 0x235 JUMPI DUP1 PUSH4 0x7A1C9CA7 EQ PUSH2 0x24F JUMPI DUP1 PUSH4 0x865D8747 EQ PUSH2 0x26E JUMPI DUP1 PUSH4 0x9021578A EQ PUSH2 0x276 JUMPI PUSH0 DUP1 REVERT JUMPDEST DUP1 PUSH4 0x1BDF5E64 EQ PUSH2 0x12A JUMPI DUP1 PUSH4 0x2946CD56 EQ PUSH2 0x168 JUMPI DUP1 PUSH4 0x2BCD10CB EQ PUSH2 0x1A4 JUMPI DUP1 PUSH4 0x2FBBE156 EQ PUSH2 0x1B7 JUMPI DUP1 PUSH4 0x5B8A0104 EQ PUSH2 0x1D8 JUMPI JUMPDEST PUSH0 DUP1 REVERT JUMPDEST CALLVALUE DUP1 ISZERO PUSH2 0x135 JUMPI PUSH0 DUP1 REVERT JUMPDEST POP PUSH2 0x155 PUSH2 0x144 CALLDATASIZE PUSH1 0x4 PUSH2 0x18D3 JUMP JUMPDEST PUSH1 0x3 PUSH1 0x20 MSTORE PUSH0 SWAP1 DUP2 MSTORE PUSH1 0x40 SWAP1 KECCAK256 SLOAD DUP2 JUMP JUMPDEST PUSH1 0x40 MLOAD SWAP1 DUP2 MSTORE PUSH1 0x20 ADD JUMPDEST PUSH1 0x40 MLOAD DUP1 SWAP2 SUB SWAP1 RETURN JUMPDEST CALLVALUE DUP1 ISZERO PUSH2 0x173 JUMPI PUSH0 DUP1 REVERT JUMPDEST POP PUSH2 0x187 PUSH2 0x182 CALLDATASIZE PUSH1 0x4 PUSH2 0x18F3 JUMP JUMPDEST PUSH2 0x42A JUMP JUMPDEST PUSH1 0x40 DUP1 MLOAD SWAP4 ISZERO ISZERO DUP5 MSTORE SWAP2 ISZERO ISZERO PUSH1 0x20 DUP5 ADD MSTORE SWAP1 DUP3 ADD MSTORE PUSH1 0x60 ADD PUSH2 0x15F JUMP JUMPDEST PUSH2 0x155 PUSH2 0x1B2 CALLDATASIZE PUSH1 0x4 PUSH2 0x190A JUMP JUMPDEST PUSH2 0x61F JUMP JUMPDEST CALLVALUE DUP1 ISZERO PUSH2 0x1C2 JUMPI PUSH0 DUP1 REVERT JUMPDEST POP PUSH2 0x1D6 PUSH2 0x1D1 CALLDATASIZE PUSH1 0x4 PUSH2 0x198C JUMP JUMPDEST PUSH2 0x8BA JUMP JUMPDEST STOP JUMPDEST CALLVALUE DUP1 ISZERO PUSH2 0x1E3 JUMPI PUSH0 DUP1 REVERT JUMPDEST POP PUSH2 0x206 PUSH2 0x1F2 CALLDATASIZE PUSH1 0x4 PUSH2 0x18F3 JUMP JUMPDEST PUSH1 0x2 PUSH1 0x20 MSTORE PUSH0 SWAP1 DUP2 MSTORE PUSH1 0x40 SWAP1 KECCAK256 SLOAD PUSH1 0xFF AND DUP2 JUMP JUMPDEST PUSH1 0x40 MLOAD SWAP1 ISZERO ISZERO DUP2 MSTORE PUSH1 0x20 ADD PUSH2 0x15F JUMP JUMPDEST CALLVALUE DUP1 ISZERO PUSH2 0x221 JUMPI PUSH0 DUP1 REVERT JUMPDEST POP PUSH2 0x1D6 PUSH2 0x230 CALLDATASIZE PUSH1 0x4 PUSH2 0x18D3 JUMP JUMPDEST PUSH2 0xD4F JUMP JUMPDEST CALLVALUE DUP1 ISZERO PUSH2 0x240 JUMPI PUSH0 DUP1 REVERT JUMPDEST POP PUSH2 0x155 PUSH7 0x38D7EA4C68000 DUP2 JUMP JUMPDEST CALLVALUE DUP1 ISZERO PUSH2 0x25A JUMPI PUSH0 DUP1 REVERT JUMPDEST POP PUSH2 0x1D6 PUSH2 0x269 CALLDATASIZE PUSH1 0x4 PUSH2 0x18F3 JUMP JUMPDEST PUSH2 0xE5C JUMP JUMPDEST PUSH2 0x1D6 PUSH2 0x1281 JUMP JUMPDEST CALLVALUE DUP1 ISZERO PUSH2 0x281 JUMPI PUSH0 DUP1 REVERT JUMPDEST POP PUSH2 0x295 PUSH2 0x290 CALLDATASIZE PUSH1 0x4 PUSH2 0x18F3 JUMP JUMPDEST PUSH2 0x1388 JUMP JUMPDEST PUSH1 0x40 MLOAD PUSH2 0x15F SWAP10 SWAP9 SWAP8 SWAP7 SWAP6 SWAP5 SWAP4 SWAP3 SWAP2 SWAP1 PUSH2 0x1A0F JUMP JUMPDEST CALLVALUE DUP1 ISZERO PUSH2 0x2B5 JUMPI PUSH0 DUP1 REVERT JUMPDEST POP PUSH2 0x155 PUSH7 0x12C221CC6A000 DUP2 JUMP JUMPDEST CALLVALUE DUP1 ISZERO PUSH2 0x2CF JUMPI PUSH0 DUP1 REVERT JUMPDEST POP PUSH2 0x1D6 PUSH2 0x2DE CALLDATASIZE PUSH1 0x4 PUSH2 0x1A72 JUMP JUMPDEST PUSH2 0x1469 JUMP JUMPDEST CALLVALUE DUP1 ISZERO PUSH2 0x2EE JUMPI PUSH0 DUP1 REVERT JUMPDEST POP PUSH2 0x302 PUSH2 0x2FD CALLDATASIZE PUSH1 0x4 PUSH2 0x18F3 JUMP JUMPDEST PUSH2 0x151F JUMP JUMPDEST PUSH1 0x40 MLOAD PUSH2 0x15F SWAP2 SWAP1 PUSH2 0x1A9C JUMP JUMPDEST CALLVALUE DUP1 ISZERO PUSH2 0x31A JUMPI PUSH0 DUP1 REVERT JUMPDEST POP PUSH2 0x155 PUSH1 0x6 SLOAD DUP2 JUMP JUMPDEST CALLVALUE DUP1 ISZERO PUSH2 0x32F JUMPI PUSH0 DUP1 REVERT JUMPDEST POP PUSH2 0x155 PUSH2 0x33E CALLDATASIZE PUSH1 0x4 PUSH2 0x18D3 JUMP JUMPDEST PUSH1 0x4 PUSH1 0x20 MSTORE PUSH0 SWAP1 DUP2 MSTORE PUSH1 0x40 SWAP1 KECCAK256 SLOAD DUP2 JUMP JUMPDEST CALLVALUE DUP1 ISZERO PUSH2 0x35A JUMPI PUSH0 DUP1 REVERT JUMPDEST POP PUSH2 0x1D6 PUSH2 0x15C7 JUMP JUMPDEST CALLVALUE DUP1 ISZERO PUSH2 0x36E JUMPI PUSH0 DUP1 REVERT JUMPDEST POP PUSH2 0x155 PUSH8 0x8AC7230489E80000 DUP2 JUMP JUMPDEST CALLVALUE DUP1 ISZERO PUSH2 0x389 JUMPI PUSH0 DUP1 REVERT JUMPDEST POP PUSH1 0x6 SLOAD PUSH2 0x155 JUMP JUMPDEST CALLVALUE DUP1 ISZERO PUSH2 0x39D JUMPI PUSH0 DUP1 REVERT JUMPDEST POP PUSH2 0x155 PUSH1 0x5 SLOAD DUP2 JUMP JUMPDEST CALLVALUE DUP1 ISZERO PUSH2 0x3B2 JUMPI PUSH0 DUP1 REVERT JUMPDEST POP PUSH2 0x3C6 PUSH2 0x3C1 CALLDATASIZE PUSH1 0x4 PUSH2 0x1B14 JUMP JUMPDEST PUSH2 0x16B3 JUMP JUMPDEST PUSH1 0x40 DUP1 MLOAD PUSH1 0x1 PUSH1 0x1 PUSH1 0xA0 SHL SUB SWAP1 SWAP7 AND DUP7 MSTORE PUSH1 0x20 DUP7 ADD SWAP5 SWAP1 SWAP5 MSTORE SWAP2 ISZERO ISZERO SWAP3 DUP5 ADD SWAP3 SWAP1 SWAP3 MSTORE PUSH1 0x60 DUP4 ADD SWAP2 SWAP1 SWAP2 MSTORE PUSH1 0x80 DUP3 ADD MSTORE PUSH1 0xA0 ADD PUSH2 0x15F JUMP JUMPDEST CALLVALUE DUP1 ISZERO PUSH2 0x409 JUMPI PUSH0 DUP1 REVERT JUMPDEST POP PUSH2 0x41D PUSH2 0x418 CALLDATASIZE PUSH1 0x4 PUSH2 0x18F3 JUMP JUMPDEST PUSH2 0x170A JUMP JUMPDEST PUSH1 0x40 MLOAD PUSH2 0x15F SWAP2 SWAP1 PUSH2 0x1B34 JUMP JUMPDEST PUSH0 DUP1 PUSH0 DUP1 PUSH1 0x1 PUSH0 DUP7 DUP2 MSTORE PUSH1 0x20 ADD SWAP1 DUP2 MSTORE PUSH1 0x20 ADD PUSH0 KECCAK256 DUP1 SLOAD DUP1 PUSH1 0x20 MUL PUSH1 0x20 ADD PUSH1 0x40 MLOAD SWAP1 DUP2 ADD PUSH1 0x40 MSTORE DUP1 SWAP3 SWAP2 SWAP1 DUP2 DUP2 MSTORE PUSH1 0x20 ADD PUSH0 SWAP1 JUMPDEST DUP3 DUP3 LT ISZERO PUSH2 0x4C9 JUMPI PUSH0 DUP5 DUP2 MSTORE PUSH1 0x20 SWAP1 DUP2 SWAP1 KECCAK256 PUSH1 0x40 DUP1 MLOAD PUSH1 0xA0 DUP2 ADD DUP3 MSTORE PUSH1 0x5 DUP7 MUL SWAP1 SWAP3 ADD DUP1 SLOAD PUSH1 0x1 PUSH1 0x1 PUSH1 0xA0 SHL SUB AND DUP4 MSTORE PUSH1 0x1 DUP1 DUP3 ADD SLOAD DUP5 DUP7 ADD MSTORE PUSH1 0x2 DUP3 ADD SLOAD PUSH1 0xFF AND ISZERO ISZERO SWAP3 DUP5 ADD SWAP3 SWAP1 SWAP3 MSTORE PUSH1 0x3 DUP2 ADD SLOAD PUSH1 0x60 DUP5 ADD MSTORE PUSH1 0x4 ADD SLOAD PUSH1 0x80 DUP4 ADD MSTORE SWAP1 DUP4 MSTORE SWAP1 SWAP3 ADD SWAP2 ADD PUSH2 0x45E JUMP JUMPDEST POP POP POP POP SWAP1 POP PUSH1 0x3 DUP2 MLOAD LT ISZERO PUSH2 0x51C JUMPI PUSH1 0x40 MLOAD PUSH3 0x461BCD PUSH1 0xE5 SHL DUP2 MSTORE PUSH1 0x20 PUSH1 0x4 DUP3 ADD MSTORE PUSH1 0x13 PUSH1 0x24 DUP3 ADD MSTORE PUSH19 0x4E65656420332B2073696D756C6174696F6E73 PUSH1 0x68 SHL PUSH1 0x44 DUP3 ADD MSTORE PUSH1 0x64 ADD JUMPDEST PUSH1 0x40 MLOAD DUP1 SWAP2 SUB SWAP1 REVERT JUMPDEST PUSH0 DUP2 PUSH0 DUP2 MLOAD DUP2 LT PUSH2 0x52F JUMPI PUSH2 0x52F PUSH2 0x1BE0 JUMP JUMPDEST PUSH1 0x20 MUL PUSH1 0x20 ADD ADD MLOAD PUSH1 0x20 ADD MLOAD SWAP1 POP PUSH0 DUP1 PUSH0 DUP1 JUMPDEST DUP6 MLOAD DUP2 LT ISZERO PUSH2 0x5EB JUMPI DUP5 DUP7 DUP3 DUP2 MLOAD DUP2 LT PUSH2 0x55E JUMPI PUSH2 0x55E PUSH2 0x1BE0 JUMP JUMPDEST PUSH1 0x20 MUL PUSH1 0x20 ADD ADD MLOAD PUSH1 0x20 ADD MLOAD SUB PUSH2 0x57D JUMPI DUP4 PUSH2 0x579 DUP2 PUSH2 0x1C08 JUMP JUMPDEST SWAP5 POP POP JUMPDEST DUP6 DUP2 DUP2 MLOAD DUP2 LT PUSH2 0x58F JUMPI PUSH2 0x58F PUSH2 0x1BE0 JUMP JUMPDEST PUSH1 0x20 MUL PUSH1 0x20 ADD ADD MLOAD PUSH1 0x40 ADD MLOAD ISZERO PUSH2 0x5AE JUMPI DUP3 PUSH2 0x5AA DUP2 PUSH2 0x1C08 JUMP JUMPDEST SWAP4 POP POP JUMPDEST DUP6 DUP2 DUP2 MLOAD DUP2 LT PUSH2 0x5C0 JUMPI PUSH2 0x5C0 PUSH2 0x1BE0 JUMP JUMPDEST PUSH1 0x20 MUL PUSH1 0x20 ADD ADD MLOAD PUSH1 0x60 ADD MLOAD DUP3 PUSH2 0x5D7 SWAP2 SWAP1 PUSH2 0x1C20 JUMP JUMPDEST SWAP2 POP DUP1 PUSH2 0x5E3 DUP2 PUSH2 0x1C08 JUMP JUMPDEST SWAP2 POP POP PUSH2 0x542 JUMP JUMPDEST POP DUP5 MLOAD PUSH2 0x5F8 SWAP1 DUP3 PUSH2 0x1C39 JUMP JUMPDEST SWAP6 POP PUSH1 0x2 DUP4 LT ISZERO SWAP8 POP PUSH1 0x2 DUP3 LT DUP1 ISZERO PUSH2 0x611 JUMPI POP PUSH1 0x32 DUP7 LT JUMPDEST SWAP7 POP POP POP POP POP POP SWAP2 SWAP4 SWAP1 SWAP3 POP JUMP JUMPDEST PUSH0 PUSH2 0x631 PUSH7 0x38D7EA4C68000 DUP4 PUSH2 0x1C20 JUMP JUMPDEST CALLVALUE LT ISZERO PUSH2 0x677 JUMPI PUSH1 0x40 MLOAD PUSH3 0x461BCD PUSH1 0xE5 SHL DUP2 MSTORE PUSH1 0x20 PUSH1 0x4 DUP3 ADD MSTORE PUSH1 0x14 PUSH1 0x24 DUP3 ADD MSTORE PUSH20 0x125B9CDD59999A58DA595B9D081C185E5B595B9D PUSH1 0x62 SHL PUSH1 0x44 DUP3 ADD MSTORE PUSH1 0x64 ADD PUSH2 0x513 JUMP JUMPDEST PUSH1 0x3 PUSH1 0x5 SLOAD LT ISZERO PUSH2 0x6C2 JUMPI PUSH1 0x40 MLOAD PUSH3 0x461BCD PUSH1 0xE5 SHL DUP2 MSTORE PUSH1 0x20 PUSH1 0x4 DUP3 ADD MSTORE PUSH1 0x15 PUSH1 0x24 DUP3 ADD MSTORE PUSH21 0x4E6F7420656E6F7567682073696D756C61746F7273 PUSH1 0x58 SHL PUSH1 0x44 DUP3 ADD MSTORE PUSH1 0x64 ADD PUSH2 0x513 JUMP JUMPDEST PUSH0 CALLER DUP7 DUP7 DUP7 TIMESTAMP NUMBER PUSH1 0x40 MLOAD PUSH1 0x20 ADD PUSH2 0x6DE SWAP7 SWAP6 SWAP5 SWAP4 SWAP3 SWAP2 SWAP1 PUSH2 0x1C58 JUMP JUMPDEST PUSH1 0x40 MLOAD PUSH1 0x20 DUP2 DUP4 SUB SUB DUP2 MSTORE SWAP1 PUSH1 0x40 MSTORE DUP1 MLOAD SWAP1 PUSH1 0x20 ADD KECCAK256 SWAP1 POP PUSH0 PUSH2 0x700 DUP8 PUSH2 0x1866 JUMP JUMPDEST SWAP1 POP PUSH1 0x40 MLOAD DUP1 PUSH2 0x120 ADD PUSH1 0x40 MSTORE DUP1 CALLER PUSH1 0x1 PUSH1 0x1 PUSH1 0xA0 SHL SUB AND DUP2 MSTORE PUSH1 0x20 ADD DUP9 PUSH1 0x1 PUSH1 0x1 PUSH1 0xA0 SHL SUB AND DUP2 MSTORE PUSH1 0x20 ADD DUP8 DUP8 DUP1 DUP1 PUSH1 0x1F ADD PUSH1 0x20 DUP1 SWAP2 DIV MUL PUSH1 0x20 ADD PUSH1 0x40 MLOAD SWAP1 DUP2 ADD PUSH1 0x40 MSTORE DUP1 SWAP4 SWAP3 SWAP2 SWAP1 DUP2 DUP2 MSTORE PUSH1 0x20 ADD DUP4 DUP4 DUP1 DUP3 DUP5 CALLDATACOPY PUSH0 SWAP3 ADD SWAP2 SWAP1 SWAP2 MSTORE POP POP POP SWAP1 DUP3 MSTORE POP PUSH1 0x20 DUP2 ADD DUP7 SWAP1 MSTORE TIMESTAMP PUSH1 0x40 DUP3 ADD DUP2 SWAP1 MSTORE PUSH1 0x60 SWAP1 SWAP2 ADD SWAP1 PUSH2 0x784 SWAP1 PUSH1 0x3C PUSH2 0x1C20 JUMP JUMPDEST DUP2 MSTORE PUSH0 PUSH1 0x20 DUP1 DUP4 ADD DUP3 SWAP1 MSTORE PUSH1 0x40 DUP1 DUP5 ADD DUP4 SWAP1 MSTORE PUSH1 0x60 SWAP1 SWAP4 ADD DUP6 SWAP1 MSTORE DUP6 DUP3 MSTORE DUP2 DUP2 MSTORE SWAP1 DUP3 SWAP1 KECCAK256 DUP4 MLOAD DUP2 SLOAD PUSH1 0x1 PUSH1 0x1 PUSH1 0xA0 SHL SUB NOT SWAP1 DUP2 AND PUSH1 0x1 PUSH1 0x1 PUSH1 0xA0 SHL SUB SWAP3 DUP4 AND OR DUP4 SSTORE SWAP3 DUP6 ADD MLOAD PUSH1 0x1 DUP4 ADD DUP1 SLOAD SWAP1 SWAP5 AND SWAP2 AND OR SWAP1 SWAP2 SSTORE SWAP1 DUP3 ADD MLOAD PUSH1 0x2 DUP3 ADD SWAP1 PUSH2 0x7ED SWAP1 DUP3 PUSH2 0x1D33 JUMP JUMPDEST POP PUSH1 0x60 DUP3 ADD MLOAD PUSH1 0x3 DUP3 ADD SSTORE PUSH1 0x80 DUP3 ADD MLOAD PUSH1 0x4 DUP3 ADD SSTORE PUSH1 0xA0 DUP3 ADD MLOAD PUSH1 0x5 DUP3 ADD SSTORE PUSH1 0xC0 DUP3 ADD MLOAD PUSH1 0x6 DUP3 ADD DUP1 SLOAD PUSH1 0xE0 DUP6 ADD MLOAD PUSH2 0xFFFF NOT SWAP1 SWAP2 AND SWAP3 ISZERO ISZERO PUSH2 0xFF00 NOT AND SWAP3 SWAP1 SWAP3 OR PUSH2 0x100 SWAP3 ISZERO ISZERO DUP4 MUL OR SWAP1 SSTORE SWAP1 SWAP2 ADD MLOAD PUSH1 0x7 SWAP1 SWAP2 ADD SSTORE PUSH2 0x856 PUSH1 0x2 PUSH7 0x38D7EA4C68000 PUSH2 0x1C39 JUMP JUMPDEST PUSH1 0x6 PUSH0 DUP3 DUP3 SLOAD PUSH2 0x866 SWAP2 SWAP1 PUSH2 0x1C20 JUMP JUMPDEST SWAP1 SWAP2 SSTORE POP POP PUSH1 0x40 DUP1 MLOAD PUSH1 0x1 PUSH1 0x1 PUSH1 0xA0 SHL SUB DUP10 AND DUP2 MSTORE TIMESTAMP PUSH1 0x20 DUP3 ADD MSTORE CALLER SWAP2 DUP5 SWAP2 PUSH32 0xCB03DC93817E5AA381078EA8F167EED0635094015E207790A2605D5DC4B14E9D SWAP2 ADD PUSH1 0x40 MLOAD DUP1 SWAP2 SUB SWAP1 LOG3 POP SWAP6 SWAP5 POP POP POP POP POP JUMP JUMPDEST CALLER PUSH0 SWAP1 DUP2 MSTORE PUSH1 0x3 PUSH1 0x20 MSTORE PUSH1 0x40 SWAP1 KECCAK256 SLOAD PUSH8 0x8AC7230489E80000 GT ISZERO PUSH2 0x917 JUMPI PUSH1 0x40 MLOAD PUSH3 0x461BCD PUSH1 0xE5 SHL DUP2 MSTORE PUSH1 0x20 PUSH1 0x4 DUP3 ADD MSTORE PUSH1 0x14 PUSH1 0x24 DUP3 ADD MSTORE PUSH20 0x2737BA1039BA30B5B2B21039B4B6BAB630BA37B9 PUSH1 0x61 SHL PUSH1 0x44 DUP3 ADD MSTORE PUSH1 0x64 ADD PUSH2 0x513 JUMP JUMPDEST PUSH0 DUP5 DUP2 MSTORE PUSH1 0x20 DUP2 DUP2 MSTORE PUSH1 0x40 DUP1 DUP4 KECCAK256 DUP2 MLOAD PUSH2 0x120 DUP2 ADD DUP4 MSTORE DUP2 SLOAD PUSH1 0x1 PUSH1 0x1 PUSH1 0xA0 SHL SUB SWAP1 DUP2 AND DUP3 MSTORE PUSH1 0x1 DUP4 ADD SLOAD AND SWAP4 DUP2 ADD SWAP4 SWAP1 SWAP4 MSTORE PUSH1 0x2 DUP2 ADD DUP1 SLOAD SWAP2 SWAP3 DUP5 ADD SWAP2 PUSH2 0x95E SWAP1 PUSH2 0x1CB1 JUMP JUMPDEST DUP1 PUSH1 0x1F ADD PUSH1 0x20 DUP1 SWAP2 DIV MUL PUSH1 0x20 ADD PUSH1 0x40 MLOAD SWAP1 DUP2 ADD PUSH1 0x40 MSTORE DUP1 SWAP3 SWAP2 SWAP1 DUP2 DUP2 MSTORE PUSH1 0x20 ADD DUP3 DUP1 SLOAD PUSH2 0x98A SWAP1 PUSH2 0x1CB1 JUMP JUMPDEST DUP1 ISZERO PUSH2 0x9D5 JUMPI DUP1 PUSH1 0x1F LT PUSH2 0x9AC JUMPI PUSH2 0x100 DUP1 DUP4 SLOAD DIV MUL DUP4 MSTORE SWAP2 PUSH1 0x20 ADD SWAP2 PUSH2 0x9D5 JUMP JUMPDEST DUP3 ADD SWAP2 SWAP1 PUSH0 MSTORE PUSH1 0x20 PUSH0 KECCAK256 SWAP1 JUMPDEST DUP2 SLOAD DUP2 MSTORE SWAP1 PUSH1 0x1 ADD SWAP1 PUSH1 0x20 ADD DUP1 DUP4 GT PUSH2 0x9B8 JUMPI DUP3 SWAP1 SUB PUSH1 0x1F AND DUP3 ADD SWAP2 JUMPDEST POP POP POP SWAP2 DUP4 MSTORE POP POP PUSH1 0x3 DUP3 ADD SLOAD PUSH1 0x20 DUP3 ADD MSTORE PUSH1 0x4 DUP3 ADD SLOAD PUSH1 0x40 DUP3 ADD MSTORE PUSH1 0x5 DUP3 ADD SLOAD PUSH1 0x60 DUP3 ADD MSTORE PUSH1 0x6 DUP3 ADD SLOAD PUSH1 0xFF DUP1 DUP3 AND ISZERO ISZERO PUSH1 0x80 DUP5 ADD MSTORE PUSH2 0x100 SWAP1 SWAP2 DIV AND ISZERO ISZERO PUSH1 0xA0 DUP3 ADD MSTORE PUSH1 0x7 SWAP1 SWAP2 ADD SLOAD PUSH1 0xC0 SWAP1 SWAP2 ADD MSTORE DUP1 MLOAD SWAP1 SWAP2 POP PUSH1 0x1 PUSH1 0x1 PUSH1 0xA0 SHL SUB AND PUSH2 0xA73 JUMPI PUSH1 0x40 MLOAD PUSH3 0x461BCD PUSH1 0xE5 SHL DUP2 MSTORE PUSH1 0x20 PUSH1 0x4 DUP3 ADD MSTORE PUSH1 0x10 PUSH1 0x24 DUP3 ADD MSTORE PUSH16 0x125B9D195B9D081B9BDD08199BDD5B99 PUSH1 0x82 SHL PUSH1 0x44 DUP3 ADD MSTORE PUSH1 0x64 ADD PUSH2 0x513 JUMP JUMPDEST DUP1 PUSH1 0xA0 ADD MLOAD TIMESTAMP GT ISZERO PUSH2 0xAB8 JUMPI PUSH1 0x40 MLOAD PUSH3 0x461BCD PUSH1 0xE5 SHL DUP2 MSTORE PUSH1 0x20 PUSH1 0x4 DUP3 ADD MSTORE PUSH1 0xE PUSH1 0x24 DUP3 ADD MSTORE PUSH14 0x125B9D195B9D08195E1C1A5C9959 PUSH1 0x92 SHL PUSH1 0x44 DUP3 ADD MSTORE PUSH1 0x64 ADD PUSH2 0x513 JUMP JUMPDEST DUP1 PUSH1 0xE0 ADD MLOAD ISZERO PUSH2 0xAFD JUMPI PUSH1 0x40 MLOAD PUSH3 0x461BCD PUSH1 0xE5 SHL DUP2 MSTORE PUSH1 0x20 PUSH1 0x4 DUP3 ADD MSTORE PUSH1 0x10 PUSH1 0x24 DUP3 ADD MSTORE PUSH16 0x105B1C9958591E48195E1958DD5D1959 PUSH1 0x82 SHL PUSH1 0x44 DUP3 ADD MSTORE PUSH1 0x64 ADD PUSH2 0x513 JUMP JUMPDEST PUSH0 DUP6 DUP2 MSTORE PUSH1 0x1 PUSH1 0x20 SWAP1 DUP2 MSTORE PUSH1 0x40 DUP1 DUP4 KECCAK256 DUP1 SLOAD DUP3 MLOAD DUP2 DUP6 MUL DUP2 ADD DUP6 ADD SWAP1 SWAP4 MSTORE DUP1 DUP4 MSTORE SWAP2 SWAP3 SWAP1 SWAP2 SWAP1 DUP5 SWAP1 DUP5 ADD JUMPDEST DUP3 DUP3 LT ISZERO PUSH2 0xB93 JUMPI PUSH0 DUP5 DUP2 MSTORE PUSH1 0x20 SWAP1 DUP2 SWAP1 KECCAK256 PUSH1 0x40 DUP1 MLOAD PUSH1 0xA0 DUP2 ADD DUP3 MSTORE PUSH1 0x5 DUP7 MUL SWAP1 SWAP3 ADD DUP1 SLOAD PUSH1 0x1 PUSH1 0x1 PUSH1 0xA0 SHL SUB AND DUP4 MSTORE PUSH1 0x1 DUP1 DUP3 ADD SLOAD DUP5 DUP7 ADD MSTORE PUSH1 0x2 DUP3 ADD SLOAD PUSH1 0xFF AND ISZERO ISZERO SWAP3 DUP5 ADD SWAP3 SWAP1 SWAP3 MSTORE PUSH1 0x3 DUP2 ADD SLOAD PUSH1 0x60 DUP5 ADD MSTORE PUSH1 0x4 ADD SLOAD PUSH1 0x80 DUP4 ADD MSTORE SWAP1 DUP4 MSTORE SWAP1 SWAP3 ADD SWAP2 ADD PUSH2 0xB28 JUMP JUMPDEST POP POP POP POP SWAP1 POP PUSH0 JUMPDEST DUP2 MLOAD DUP2 LT ISZERO PUSH2 0xC27 JUMPI CALLER PUSH1 0x1 PUSH1 0x1 PUSH1 0xA0 SHL SUB AND DUP3 DUP3 DUP2 MLOAD DUP2 LT PUSH2 0xBC0 JUMPI PUSH2 0xBC0 PUSH2 0x1BE0 JUMP JUMPDEST PUSH1 0x20 MUL PUSH1 0x20 ADD ADD MLOAD PUSH0 ADD MLOAD PUSH1 0x1 PUSH1 0x1 PUSH1 0xA0 SHL SUB AND SUB PUSH2 0xC15 JUMPI PUSH1 0x40 MLOAD PUSH3 0x461BCD PUSH1 0xE5 SHL DUP2 MSTORE PUSH1 0x20 PUSH1 0x4 DUP3 ADD MSTORE PUSH1 0x11 PUSH1 0x24 DUP3 ADD MSTORE PUSH17 0x105B1C9958591E481CDD589B5A5D1D1959 PUSH1 0x7A SHL PUSH1 0x44 DUP3 ADD MSTORE PUSH1 0x64 ADD PUSH2 0x513 JUMP JUMPDEST DUP1 PUSH2 0xC1F DUP2 PUSH2 0x1C08 JUMP JUMPDEST SWAP2 POP POP PUSH2 0xB9B JUMP JUMPDEST POP PUSH0 DUP7 DUP2 MSTORE PUSH1 0x1 PUSH1 0x20 DUP2 DUP2 MSTORE PUSH1 0x40 DUP1 DUP5 KECCAK256 DUP2 MLOAD PUSH1 0xA0 DUP2 ADD DUP4 MSTORE CALLER DUP1 DUP3 MSTORE DUP2 DUP6 ADD DUP13 DUP2 MSTORE DUP12 ISZERO ISZERO DUP4 DUP7 ADD DUP2 DUP2 MSTORE PUSH1 0x60 DUP6 ADD DUP14 DUP2 MSTORE TIMESTAMP PUSH1 0x80 DUP8 ADD SWAP1 DUP2 MSTORE DUP8 SLOAD DUP1 DUP13 ADD DUP10 SSTORE SWAP8 DUP13 MSTORE SWAP11 DUP10 SWAP1 KECCAK256 SWAP6 MLOAD PUSH1 0x5 SWAP1 SWAP8 MUL SWAP1 SWAP6 ADD DUP1 SLOAD PUSH1 0x1 PUSH1 0x1 PUSH1 0xA0 SHL SUB NOT AND PUSH1 0x1 PUSH1 0x1 PUSH1 0xA0 SHL SUB SWAP1 SWAP8 AND SWAP7 SWAP1 SWAP7 OR DUP7 SSTORE SWAP2 MLOAD SWAP8 DUP6 ADD SWAP8 SWAP1 SWAP8 SSTORE MLOAD PUSH1 0x2 DUP5 ADD DUP1 SLOAD PUSH1 0xFF NOT AND SWAP2 ISZERO ISZERO SWAP2 SWAP1 SWAP2 OR SWAP1 SSTORE SWAP1 MLOAD PUSH1 0x3 DUP4 ADD SSTORE SWAP5 MLOAD PUSH1 0x4 SWAP1 SWAP2 ADD SSTORE DUP1 MLOAD SWAP3 DUP4 MSTORE SWAP1 DUP3 ADD DUP7 SWAP1 MSTORE DUP9 SWAP2 PUSH32 0xEB2D6CF0F91A0FBF91681A90A6842098CE1438F56122FFFA6ACAD4886E87C6C4 SWAP2 ADD PUSH1 0x40 MLOAD DUP1 SWAP2 SUB SWAP1 LOG3 PUSH1 0x40 MLOAD CALLER SWAP1 PUSH0 SWAP1 PUSH7 0x12C221CC6A000 SWAP1 DUP3 DUP2 DUP2 DUP2 DUP6 DUP9 DUP4 CALL SWAP4 POP POP POP POP ISZERO DUP1 ISZERO PUSH2 0xD27 JUMPI RETURNDATASIZE PUSH0 DUP1 RETURNDATACOPY RETURNDATASIZE PUSH0 REVERT JUMPDEST POP CALLER PUSH0 SWAP1 DUP2 MSTORE PUSH1 0x4 PUSH1 0x20 MSTORE PUSH1 0x40 DUP2 KECCAK256 DUP1 SLOAD SWAP2 PUSH2 0xD42 DUP4 PUSH2 0x1C08 JUMP JUMPDEST SWAP2 SWAP1 POP SSTORE POP POP POP POP POP POP POP JUMP JUMPDEST PUSH1 0x1 PUSH1 0x1 PUSH1 0xA0 SHL SUB DUP2 AND PUSH0 SWAP1 DUP2 MSTORE PUSH1 0x4 PUSH1 0x20 MSTORE PUSH1 0x40 SWAP1 KECCAK256 SLOAD PUSH1 0x1E GT PUSH2 0xDAC JUMPI PUSH1 0x40 MLOAD PUSH3 0x461BCD PUSH1 0xE5 SHL DUP2 MSTORE PUSH1 0x20 PUSH1 0x4 DUP3 ADD MSTORE PUSH1 0x13 PUSH1 0x24 DUP3 ADD MSTORE PUSH19 0xA4CAE0EAE8C2E8D2DEDC40E8DEDE40D0D2CED PUSH1 0x6B SHL PUSH1 0x44 DUP3 ADD MSTORE PUSH1 0x64 ADD PUSH2 0x513 JUMP JUMPDEST PUSH1 0x1 PUSH1 0x1 PUSH1 0xA0 SHL SUB DUP2 AND PUSH0 SWAP1 DUP2 MSTORE PUSH1 0x3 PUSH1 0x20 MSTORE PUSH1 0x40 DUP2 KECCAK256 SLOAD PUSH2 0xDD0 SWAP1 PUSH1 0xA SWAP1 PUSH2 0x1C39 JUMP JUMPDEST PUSH1 0x1 PUSH1 0x1 PUSH1 0xA0 SHL SUB DUP4 AND PUSH0 SWAP1 DUP2 MSTORE PUSH1 0x3 PUSH1 0x20 MSTORE PUSH1 0x40 DUP2 KECCAK256 DUP1 SLOAD SWAP3 SWAP4 POP DUP4 SWAP3 SWAP1 SWAP2 SWAP1 PUSH2 0xDFC SWAP1 DUP5 SWAP1 PUSH2 0x1DEF JUMP JUMPDEST SWAP3 POP POP DUP2 SWAP1 SSTORE POP DUP1 PUSH1 0x6 PUSH0 DUP3 DUP3 SLOAD PUSH2 0xE14 SWAP2 SWAP1 PUSH2 0x1C20 JUMP JUMPDEST SWAP1 SWAP2 SSTORE POP POP PUSH1 0x40 MLOAD DUP2 DUP2 MSTORE PUSH1 0x1 PUSH1 0x1 PUSH1 0xA0 SHL SUB DUP4 AND SWAP1 PUSH32 0x1E47E6DBB9F53156B118857B7C5D03B4ADD354E2BE4B072201BF390DA18B83FC SWAP1 PUSH1 0x20 ADD JUMPDEST PUSH1 0x40 MLOAD DUP1 SWAP2 SUB SWAP1 LOG2 POP POP JUMP JUMPDEST PUSH0 DUP2 DUP2 MSTORE PUSH1 0x20 DUP2 SWAP1 MSTORE PUSH1 0x40 SWAP1 KECCAK256 DUP1 SLOAD PUSH1 0x1 PUSH1 0x1 PUSH1 0xA0 SHL SUB AND CALLER EQ PUSH2 0xEB3 JUMPI PUSH1 0x40 MLOAD PUSH3 0x461BCD PUSH1 0xE5 SHL DUP2 MSTORE PUSH1 0x20 PUSH1 0x4 DUP3 ADD MSTORE PUSH1 0xE PUSH1 0x24 DUP3 ADD MSTORE PUSH14 0x139BDD08185D5D1A1BDC9A5E9959 PUSH1 0x92 SHL PUSH1 0x44 DUP3 ADD MSTORE PUSH1 0x64 ADD PUSH2 0x513 JUMP JUMPDEST PUSH1 0x6 DUP2 ADD SLOAD PUSH2 0x100 SWAP1 DIV PUSH1 0xFF AND ISZERO PUSH2 0xF00 JUMPI PUSH1 0x40 MLOAD PUSH3 0x461BCD PUSH1 0xE5 SHL DUP2 MSTORE PUSH1 0x20 PUSH1 0x4 DUP3 ADD MSTORE PUSH1 0x10 PUSH1 0x24 DUP3 ADD MSTORE PUSH16 0x105B1C9958591E48195E1958DD5D1959 PUSH1 0x82 SHL PUSH1 0x44 DUP3 ADD MSTORE PUSH1 0x64 ADD PUSH2 0x513 JUMP JUMPDEST DUP1 PUSH1 0x5 ADD SLOAD TIMESTAMP GT ISZERO PUSH2 0xF3E JUMPI PUSH1 0x40 MLOAD PUSH3 0x461BCD PUSH1 0xE5 SHL DUP2 MSTORE PUSH1 0x20 PUSH1 0x4 DUP3 ADD MSTORE PUSH1 0x7 PUSH1 0x24 DUP3 ADD MSTORE PUSH7 0x115E1C1A5C9959 PUSH1 0xCA SHL PUSH1 0x44 DUP3 ADD MSTORE PUSH1 0x64 ADD PUSH2 0x513 JUMP JUMPDEST PUSH0 DUP1 PUSH0 PUSH2 0xF4A DUP6 PUSH2 0x42A JUMP JUMPDEST SWAP3 POP SWAP3 POP SWAP3 POP DUP3 PUSH2 0xF90 JUMPI PUSH1 0x40 MLOAD PUSH3 0x461BCD PUSH1 0xE5 SHL DUP2 MSTORE PUSH1 0x20 PUSH1 0x4 DUP3 ADD MSTORE PUSH1 0x10 PUSH1 0x24 DUP3 ADD MSTORE PUSH16 0x139BC818DBDB9CD95B9CDD5CC81E595D PUSH1 0x82 SHL PUSH1 0x44 DUP3 ADD MSTORE PUSH1 0x64 ADD PUSH2 0x513 JUMP JUMPDEST PUSH0 DUP6 DUP2 MSTORE PUSH1 0x2 PUSH1 0x20 MSTORE PUSH1 0x40 SWAP1 KECCAK256 SLOAD PUSH1 0xFF AND ISZERO PUSH2 0x1084 JUMPI PUSH1 0x1 DUP5 ADD SLOAD PUSH0 SWAP1 PUSH2 0xFBF SWAP1 PUSH1 0x1 PUSH1 0x1 PUSH1 0xA0 SHL SUB AND PUSH2 0x1866 JUMP JUMPDEST SWAP1 POP DUP5 PUSH1 0x7 ADD SLOAD DUP2 EQ PUSH2 0x1082 JUMPI DUP6 PUSH32 0x4C1D8DD193E6F5DA130C5F803490CD0CA085B0385DB8EBA187B72E0D17D39682 DUP4 PUSH1 0x40 MLOAD PUSH2 0x1026 SWAP2 SWAP1 PUSH1 0x40 DUP1 DUP3 MSTORE PUSH1 0xD SWAP1 DUP3 ADD MSTORE PUSH13 0x14DD185D194818DA185B99D959 PUSH1 0x9A SHL PUSH1 0x60 DUP3 ADD MSTORE PUSH1 0x20 DUP2 ADD SWAP2 SWAP1 SWAP2 MSTORE PUSH1 0x80 ADD SWAP1 JUMP JUMPDEST PUSH1 0x40 MLOAD DUP1 SWAP2 SUB SWAP1 LOG2 PUSH1 0x40 MLOAD PUSH3 0x461BCD PUSH1 0xE5 SHL DUP2 MSTORE PUSH1 0x20 PUSH1 0x4 DUP3 ADD MSTORE PUSH1 0x23 PUSH1 0x24 DUP3 ADD MSTORE PUSH32 0x5374617465206368616E676564202D207472616E73616374696F6E20626C6F63 PUSH1 0x44 DUP3 ADD MSTORE PUSH3 0x1AD959 PUSH1 0xEA SHL PUSH1 0x64 DUP3 ADD MSTORE PUSH1 0x84 ADD PUSH2 0x513 JUMP JUMPDEST POP JUMPDEST DUP2 ISZERO DUP1 PUSH2 0x1092 JUMPI POP PUSH1 0x32 DUP2 LT ISZERO JUMPDEST ISZERO PUSH2 0x117F JUMPI DUP5 PUSH32 0x4C1D8DD193E6F5DA130C5F803490CD0CA085B0385DB8EBA187B72E0D17D39682 DUP3 PUSH1 0x40 MLOAD PUSH2 0x10F6 SWAP2 SWAP1 PUSH1 0x40 DUP1 DUP3 MSTORE PUSH1 0x12 SWAP1 DUP3 ADD MSTORE PUSH18 0x121A59DA081C9A5CDAC819195D1958DD1959 PUSH1 0x72 SHL PUSH1 0x60 DUP3 ADD MSTORE PUSH1 0x20 DUP2 ADD SWAP2 SWAP1 SWAP2 MSTORE PUSH1 0x80 ADD SWAP1 JUMP JUMPDEST PUSH1 0x40 MLOAD DUP1 SWAP2 SUB SWAP1 LOG2 DUP4 SLOAD PUSH1 0x40 MLOAD PUSH1 0x1 PUSH1 0x1 PUSH1 0xA0 SHL SUB SWAP1 SWAP2 AND SWAP1 PUSH0 SWAP1 PUSH7 0x38D7EA4C68000 SWAP1 DUP3 DUP2 DUP2 DUP2 DUP6 DUP9 DUP4 CALL SWAP4 POP POP POP POP ISZERO DUP1 ISZERO PUSH2 0x1136 JUMPI RETURNDATASIZE PUSH0 DUP1 RETURNDATACOPY RETURNDATASIZE PUSH0 REVERT JUMPDEST POP PUSH1 0x40 MLOAD PUSH3 0x461BCD PUSH1 0xE5 SHL DUP2 MSTORE PUSH1 0x20 PUSH1 0x4 DUP3 ADD MSTORE PUSH1 0x1F PUSH1 0x24 DUP3 ADD MSTORE PUSH32 0x5472616E73616374696F6E20626C6F636B6564202D2068696768207269736B00 PUSH1 0x44 DUP3 ADD MSTORE PUSH1 0x64 ADD PUSH2 0x513 JUMP JUMPDEST PUSH1 0x6 DUP5 ADD DUP1 SLOAD PUSH2 0xFF00 NOT AND PUSH2 0x100 OR SWAP1 SSTORE PUSH1 0x1 DUP5 ADD SLOAD PUSH1 0x3 DUP6 ADD SLOAD PUSH1 0x40 MLOAD PUSH0 SWAP3 PUSH1 0x1 PUSH1 0x1 PUSH1 0xA0 SHL SUB AND SWAP2 SWAP1 PUSH2 0x11B8 SWAP1 PUSH1 0x2 DUP10 ADD SWAP1 PUSH2 0x1E02 JUMP JUMPDEST PUSH0 PUSH1 0x40 MLOAD DUP1 DUP4 SUB DUP2 DUP6 DUP8 GAS CALL SWAP3 POP POP POP RETURNDATASIZE DUP1 PUSH0 DUP2 EQ PUSH2 0x11F2 JUMPI PUSH1 0x40 MLOAD SWAP2 POP PUSH1 0x1F NOT PUSH1 0x3F RETURNDATASIZE ADD AND DUP3 ADD PUSH1 0x40 MSTORE RETURNDATASIZE DUP3 MSTORE RETURNDATASIZE PUSH0 PUSH1 0x20 DUP5 ADD RETURNDATACOPY PUSH2 0x11F7 JUMP JUMPDEST PUSH1 0x60 SWAP2 POP JUMPDEST POP POP PUSH1 0x40 DUP1 MLOAD DUP3 ISZERO ISZERO DUP2 MSTORE PUSH1 0x20 DUP2 ADD DUP6 SWAP1 MSTORE SWAP2 SWAP3 POP DUP8 SWAP2 PUSH32 0x318779CA6603AF3177F69050C37BCBD11CDA39233F1BDEEBE4F3E557B92134DC SWAP2 ADD PUSH1 0x40 MLOAD DUP1 SWAP2 SUB SWAP1 LOG2 DUP1 PUSH2 0x1279 JUMPI PUSH1 0x40 MLOAD PUSH3 0x461BCD PUSH1 0xE5 SHL DUP2 MSTORE PUSH1 0x20 PUSH1 0x4 DUP3 ADD MSTORE PUSH1 0x10 PUSH1 0x24 DUP3 ADD MSTORE PUSH16 0x115E1958DD5D1A5BDB8819985A5B1959 PUSH1 0x82 SHL PUSH1 0x44 DUP3 ADD MSTORE PUSH1 0x64 ADD PUSH2 0x513 JUMP JUMPDEST POP POP POP POP POP POP JUMP JUMPDEST PUSH8 0x8AC7230489E80000 CALLVALUE LT ISZERO PUSH2 0x12CE JUMPI PUSH1 0x40 MLOAD PUSH3 0x461BCD PUSH1 0xE5 SHL DUP2 MSTORE PUSH1 0x20 PUSH1 0x4 DUP3 ADD MSTORE PUSH1 0x12 PUSH1 0x24 DUP3 ADD MSTORE PUSH18 0x496E73756666696369656E74207374616B65 PUSH1 0x70 SHL PUSH1 0x44 DUP3 ADD MSTORE PUSH1 0x64 ADD PUSH2 0x513 JUMP JUMPDEST CALLER PUSH0 SWAP1 DUP2 MSTORE PUSH1 0x3 PUSH1 0x20 MSTORE PUSH1 0x40 SWAP1 KECCAK256 SLOAD ISZERO PUSH2 0x131F JUMPI PUSH1 0x40 MLOAD PUSH3 0x461BCD PUSH1 0xE5 SHL DUP2 MSTORE PUSH1 0x20 PUSH1 0x4 DUP3 ADD MSTORE PUSH1 0x12 PUSH1 0x24 DUP3 ADD MSTORE PUSH18 0x105B1C9958591E481C9959DA5CDD195C9959 PUSH1 0x72 SHL PUSH1 0x44 DUP3 ADD MSTORE PUSH1 0x64 ADD PUSH2 0x513 JUMP JUMPDEST CALLER PUSH0 SWAP1 DUP2 MSTORE PUSH1 0x3 PUSH1 0x20 SWAP1 DUP2 MSTORE PUSH1 0x40 DUP1 DUP4 KECCAK256 CALLVALUE SWAP1 SSTORE PUSH1 0x4 SWAP1 SWAP2 MSTORE DUP2 KECCAK256 PUSH1 0x64 SWAP1 SSTORE PUSH1 0x5 DUP1 SLOAD SWAP2 PUSH2 0x134C DUP4 PUSH2 0x1C08 JUMP JUMPDEST SWAP1 SWAP2 SSTORE POP POP PUSH1 0x40 MLOAD CALLVALUE DUP2 MSTORE CALLER SWAP1 PUSH32 0x35D0894DEC0C0BDDD9875096D467A927EF15C68BC2BA727DEF28646A258CCAD3 SWAP1 PUSH1 0x20 ADD PUSH1 0x40 MLOAD DUP1 SWAP2 SUB SWAP1 LOG2 JUMP JUMPDEST PUSH0 PUSH1 0x20 DUP2 SWAP1 MSTORE SWAP1 DUP2 MSTORE PUSH1 0x40 SWAP1 KECCAK256 DUP1 SLOAD PUSH1 0x1 DUP3 ADD SLOAD PUSH1 0x2 DUP4 ADD DUP1 SLOAD PUSH1 0x1 PUSH1 0x1 PUSH1 0xA0 SHL SUB SWAP4 DUP5 AND SWAP5 SWAP3 SWAP1 SWAP4 AND SWAP3 PUSH2 0x13BC SWAP1 PUSH2 0x1CB1 JUMP JUMPDEST DUP1 PUSH1 0x1F ADD PUSH1 0x20 DUP1 SWAP2 DIV MUL PUSH1 0x20 ADD PUSH1 0x40 MLOAD SWAP1 DUP2 ADD PUSH1 0x40 MSTORE DUP1 SWAP3 SWAP2 SWAP1 DUP2 DUP2 MSTORE PUSH1 0x20 ADD DUP3 DUP1 SLOAD PUSH2 0x13E8 SWAP1 PUSH2 0x1CB1 JUMP JUMPDEST DUP1 ISZERO PUSH2 0x1433 JUMPI DUP1 PUSH1 0x1F LT PUSH2 0x140A JUMPI PUSH2 0x100 DUP1 DUP4 SLOAD DIV MUL DUP4 MSTORE SWAP2 PUSH1 0x20 ADD SWAP2 PUSH2 0x1433 JUMP JUMPDEST DUP3 ADD SWAP2 SWAP1 PUSH0 MSTORE PUSH1 0x20 PUSH0 KECCAK256 SWAP1 JUMPDEST DUP2 SLOAD DUP2 MSTORE SWAP1 PUSH1 0x1 ADD SWAP1 PUSH1 0x20 ADD DUP1 DUP4 GT PUSH2 0x1416 JUMPI DUP3 SWAP1 SUB PUSH1 0x1F AND DUP3 ADD SWAP2 JUMPDEST POP POP POP PUSH1 0x3 DUP5 ADD SLOAD PUSH1 0x4 DUP6 ADD SLOAD PUSH1 0x5 DUP7 ADD SLOAD PUSH1 0x6 DUP8 ADD SLOAD PUSH1 0x7 SWAP1 SWAP8 ADD SLOAD SWAP6 SWAP7 SWAP3 SWAP6 SWAP2 SWAP5 POP SWAP3 POP PUSH1 0xFF DUP1 DUP4 AND SWAP3 PUSH2 0x100 SWAP1 DIV AND SWAP1 DUP10 JUMP JUMPDEST PUSH0 DUP3 DUP2 MSTORE PUSH1 0x20 DUP2 SWAP1 MSTORE PUSH1 0x40 SWAP1 KECCAK256 SLOAD PUSH1 0x1 PUSH1 0x1 PUSH1 0xA0 SHL SUB AND PUSH2 0x14BF JUMPI PUSH1 0x40 MLOAD PUSH3 0x461BCD PUSH1 0xE5 SHL DUP2 MSTORE PUSH1 0x20 PUSH1 0x4 DUP3 ADD MSTORE PUSH1 0x10 PUSH1 0x24 DUP3 ADD MSTORE PUSH16 0x125B9D195B9D081B9BDD08199BDD5B99 PUSH1 0x82 SHL PUSH1 0x44 DUP3 ADD MSTORE PUSH1 0x64 ADD PUSH2 0x513 JUMP JUMPDEST PUSH0 DUP3 DUP2 MSTORE PUSH1 0x2 PUSH1 0x20 MSTORE PUSH1 0x40 SWAP1 DUP2 SWAP1 KECCAK256 DUP1 SLOAD PUSH1 0xFF NOT AND PUSH1 0x1 OR SWAP1 SSTORE MLOAD DUP3 SWAP1 PUSH32 0x67B3BE42D6F00D96D423921D7F71B20808F2CDAB144CC750107744A31F7C39E7 SWAP1 PUSH2 0xE50 SWAP1 DUP5 SWAP1 TIMESTAMP SWAP1 PUSH1 0x1 PUSH1 0x1 PUSH1 0xA0 SHL SUB SWAP3 SWAP1 SWAP3 AND DUP3 MSTORE PUSH1 0x20 DUP3 ADD MSTORE PUSH1 0x40 ADD SWAP1 JUMP JUMPDEST PUSH1 0x60 PUSH1 0x1 PUSH0 DUP4 DUP2 MSTORE PUSH1 0x20 ADD SWAP1 DUP2 MSTORE PUSH1 0x20 ADD PUSH0 KECCAK256 DUP1 SLOAD DUP1 PUSH1 0x20 MUL PUSH1 0x20 ADD PUSH1 0x40 MLOAD SWAP1 DUP2 ADD PUSH1 0x40 MSTORE DUP1 SWAP3 SWAP2 SWAP1 DUP2 DUP2 MSTORE PUSH1 0x20 ADD PUSH0 SWAP1 JUMPDEST DUP3 DUP3 LT ISZERO PUSH2 0x15BC JUMPI PUSH0 DUP5 DUP2 MSTORE PUSH1 0x20 SWAP1 DUP2 SWAP1 KECCAK256 PUSH1 0x40 DUP1 MLOAD PUSH1 0xA0 DUP2 ADD DUP3 MSTORE PUSH1 0x5 DUP7 MUL SWAP1 SWAP3 ADD DUP1 SLOAD PUSH1 0x1 PUSH1 0x1 PUSH1 0xA0 SHL SUB AND DUP4 MSTORE PUSH1 0x1 DUP1 DUP3 ADD SLOAD DUP5 DUP7 ADD MSTORE PUSH1 0x2 DUP3 ADD SLOAD PUSH1 0xFF AND ISZERO ISZERO SWAP3 DUP5 ADD SWAP3 SWAP1 SWAP3 MSTORE PUSH1 0x3 DUP2 ADD SLOAD PUSH1 0x60 DUP5 ADD MSTORE PUSH1 0x4 ADD SLOAD PUSH1 0x80 DUP4 ADD MSTORE SWAP1 DUP4 MSTORE SWAP1 SWAP3 ADD SWAP2 ADD PUSH2 0x1551 JUMP JUMPDEST POP POP POP POP SWAP1 POP SWAP2 SWAP1 POP JUMP JUMPDEST CALLER PUSH0 SWAP1 DUP2 MSTORE PUSH1 0x3 PUSH1 0x20 MSTORE PUSH1 0x40 SWAP1 KECCAK256 SLOAD PUSH2 0x160D JUMPI PUSH1 0x40 MLOAD PUSH3 0x461BCD PUSH1 0xE5 SHL DUP2 MSTORE PUSH1 0x20 PUSH1 0x4 DUP3 ADD MSTORE PUSH1 0x8 PUSH1 0x24 DUP3 ADD MSTORE PUSH8 0x4E6F207374616B65 PUSH1 0xC0 SHL PUSH1 0x44 DUP3 ADD MSTORE PUSH1 0x64 ADD PUSH2 0x513 JUMP JUMPDEST CALLER PUSH0 SWAP1 DUP2 MSTORE PUSH1 0x4 PUSH1 0x20 MSTORE PUSH1 0x40 SWAP1 KECCAK256 SLOAD PUSH1 0x32 GT ISZERO PUSH2 0x165D JUMPI PUSH1 0x40 MLOAD PUSH3 0x461BCD PUSH1 0xE5 SHL DUP2 MSTORE PUSH1 0x20 PUSH1 0x4 DUP3 ADD MSTORE PUSH1 0xE PUSH1 0x24 DUP3 ADD MSTORE PUSH14 0x2637BB903932B83ABA30BA34B7B7 PUSH1 0x91 SHL PUSH1 0x44 DUP3 ADD MSTORE PUSH1 0x64 ADD PUSH2 0x513 JUMP JUMPDEST CALLER PUSH0 SWAP1 DUP2 MSTORE PUSH1 0x3 PUSH1 0x20 MSTORE PUSH1 0x40 DUP2 KECCAK256 DUP1 SLOAD SWAP1 DUP3 SWAP1 SSTORE PUSH1 0x5 DUP1 SLOAD SWAP2 SWAP3 PUSH2 0x1680 DUP4 PUSH2 0x1E74 JUMP JUMPDEST SWAP1 SWAP2 SSTORE POP POP PUSH1 0x40 MLOAD CALLER SWAP1 DUP3 ISZERO PUSH2 0x8FC MUL SWAP1 DUP4 SWAP1 PUSH0 DUP2 DUP2 DUP2 DUP6 DUP9 DUP9 CALL SWAP4 POP POP POP POP ISZERO DUP1 ISZERO PUSH2 0x16AF JUMPI RETURNDATASIZE PUSH0 DUP1 RETURNDATACOPY RETURNDATASIZE PUSH0 REVERT JUMPDEST POP POP JUMP JUMPDEST PUSH1 0x1 PUSH1 0x20 MSTORE DUP2 PUSH0 MSTORE PUSH1 0x40 PUSH0 KECCAK256 DUP2 DUP2 SLOAD DUP2 LT PUSH2 0x16CC JUMPI PUSH0 DUP1 REVERT JUMPDEST PUSH0 SWAP2 DUP3 MSTORE PUSH1 0x20 SWAP1 SWAP2 KECCAK256 PUSH1 0x5 SWAP1 SWAP2 MUL ADD DUP1 SLOAD PUSH1 0x1 DUP3 ADD SLOAD PUSH1 0x2 DUP4 ADD SLOAD PUSH1 0x3 DUP5 ADD SLOAD PUSH1 0x4 SWAP1 SWAP5 ADD SLOAD PUSH1 0x1 PUSH1 0x1 PUSH1 0xA0 SHL SUB SWAP1 SWAP4 AND SWAP6 POP SWAP1 SWAP4 POP PUSH1 0xFF AND SWAP2 SWAP1 DUP6 JUMP JUMPDEST PUSH1 0x40 DUP1 MLOAD PUSH2 0x120 DUP1 DUP3 ADD DUP4 MSTORE PUSH0 DUP1 DUP4 MSTORE PUSH1 0x20 DUP1 DUP5 ADD DUP3 SWAP1 MSTORE PUSH1 0x60 DUP5 DUP7 ADD DUP2 SWAP1 MSTORE DUP5 ADD DUP3 SWAP1 MSTORE PUSH1 0x80 DUP5 ADD DUP3 SWAP1 MSTORE PUSH1 0xA0 DUP5 ADD DUP3 SWAP1 MSTORE PUSH1 0xC0 DUP5 ADD DUP3 SWAP1 MSTORE PUSH1 0xE0 DUP5 ADD DUP3 SWAP1 MSTORE PUSH2 0x100 DUP5 ADD DUP3 SWAP1 MSTORE DUP6 DUP3 MSTORE DUP2 DUP2 MSTORE SWAP1 DUP5 SWAP1 KECCAK256 DUP5 MLOAD SWAP3 DUP4 ADD DUP6 MSTORE DUP1 SLOAD PUSH1 0x1 PUSH1 0x1 PUSH1 0xA0 SHL SUB SWAP1 DUP2 AND DUP5 MSTORE PUSH1 0x1 DUP3 ADD SLOAD AND SWAP2 DUP4 ADD SWAP2 SWAP1 SWAP2 MSTORE PUSH1 0x2 DUP2 ADD DUP1 SLOAD SWAP4 SWAP5 SWAP3 SWAP4 SWAP2 SWAP3 DUP5 ADD SWAP2 PUSH2 0x1798 SWAP1 PUSH2 0x1CB1 JUMP JUMPDEST DUP1 PUSH1 0x1F ADD PUSH1 0x20 DUP1 SWAP2 DIV MUL PUSH1 0x20 ADD PUSH1 0x40 MLOAD SWAP1 DUP2 ADD PUSH1 0x40 MSTORE DUP1 SWAP3 SWAP2 SWAP1 DUP2 DUP2 MSTORE PUSH1 0x20 ADD DUP3 DUP1 SLOAD PUSH2 0x17C4 SWAP1 PUSH2 0x1CB1 JUMP JUMPDEST DUP1 ISZERO PUSH2 0x180F JUMPI DUP1 PUSH1 0x1F LT PUSH2 0x17E6 JUMPI PUSH2 0x100 DUP1 DUP4 SLOAD DIV MUL DUP4 MSTORE SWAP2 PUSH1 0x20 ADD SWAP2 PUSH2 0x180F JUMP JUMPDEST DUP3 ADD SWAP2 SWAP1 PUSH0 MSTORE PUSH1 0x20 PUSH0 KECCAK256 SWAP1 JUMPDEST DUP2 SLOAD DUP2 MSTORE SWAP1 PUSH1 0x1 ADD SWAP1 PUSH1 0x20 ADD DUP1 DUP4 GT PUSH2 0x17F2 JUMPI DUP3 SWAP1 SUB PUSH1 0x1F AND DUP3 ADD SWAP2 JUMPDEST POP POP POP SWAP2 DUP4 MSTORE POP POP PUSH1 0x3 DUP3 ADD SLOAD PUSH1 0x20 DUP3 ADD MSTORE PUSH1 0x4 DUP3 ADD SLOAD PUSH1 0x40 DUP3 ADD MSTORE PUSH1 0x5 DUP3 ADD SLOAD PUSH1 0x60 DUP3 ADD MSTORE PUSH1 0x6 DUP3 ADD SLOAD PUSH1 0xFF DUP1 DUP3 AND ISZERO ISZERO PUSH1 0x80 DUP5 ADD MSTORE PUSH2 0x100 SWAP1 SWAP2 DIV AND ISZERO ISZERO PUSH1 0xA0 DUP3 ADD MSTORE PUSH1 0x7 SWAP1 SWAP2 ADD SLOAD PUSH1 0xC0 SWAP1 SWAP2 ADD MSTORE SWAP3 SWAP2 POP POP JUMP JUMPDEST PUSH0 PUSH1 0x1 PUSH1 0x1 PUSH1 0xA0 SHL SUB DUP3 AND DUP1 BALANCE SWAP1 EXTCODESIZE PUSH2 0x1880 PUSH1 0x1 NUMBER PUSH2 0x1DEF JUMP JUMPDEST PUSH1 0x40 DUP1 MLOAD PUSH1 0x20 DUP2 ADD SWAP5 SWAP1 SWAP5 MSTORE DUP4 ADD SWAP2 SWAP1 SWAP2 MSTORE BLOCKHASH PUSH1 0x60 DUP3 ADD MSTORE PUSH1 0x80 ADD PUSH1 0x40 MLOAD PUSH1 0x20 DUP2 DUP4 SUB SUB DUP2 MSTORE SWAP1 PUSH1 0x40 MSTORE DUP1 MLOAD SWAP1 PUSH1 0x20 ADD KECCAK256 SWAP1 POP SWAP2 SWAP1 POP JUMP JUMPDEST DUP1 CALLDATALOAD PUSH1 0x1 PUSH1 0x1 PUSH1 0xA0 SHL SUB DUP2 AND DUP2 EQ PUSH2 0x18CE JUMPI PUSH0 DUP1 REVERT JUMPDEST SWAP2 SWAP1 POP JUMP JUMPDEST PUSH0 PUSH1 0x20 DUP3 DUP5 SUB SLT ISZERO PUSH2 0x18E3 JUMPI PUSH0 DUP1 REVERT JUMPDEST PUSH2 0x18EC DUP3 PUSH2 0x18B8 JUMP JUMPDEST SWAP4 SWAP3 POP POP POP JUMP JUMPDEST PUSH0 PUSH1 0x20 DUP3 DUP5 SUB SLT ISZERO PUSH2 0x1903 JUMPI PUSH0 DUP1 REVERT JUMPDEST POP CALLDATALOAD SWAP2 SWAP1 POP JUMP JUMPDEST PUSH0 DUP1 PUSH0 DUP1 PUSH1 0x60 DUP6 DUP8 SUB SLT ISZERO PUSH2 0x191D JUMPI PUSH0 DUP1 REVERT JUMPDEST PUSH2 0x1926 DUP6 PUSH2 0x18B8 JUMP JUMPDEST SWAP4 POP PUSH1 0x20 DUP6 ADD CALLDATALOAD PUSH8 0xFFFFFFFFFFFFFFFF DUP1 DUP3 GT ISZERO PUSH2 0x1942 JUMPI PUSH0 DUP1 REVERT JUMPDEST DUP2 DUP8 ADD SWAP2 POP DUP8 PUSH1 0x1F DUP4 ADD SLT PUSH2 0x1955 JUMPI PUSH0 DUP1 REVERT JUMPDEST DUP2 CALLDATALOAD DUP2 DUP2 GT ISZERO PUSH2 0x1963 JUMPI PUSH0 DUP1 REVERT JUMPDEST DUP9 PUSH1 0x20 DUP3 DUP6 ADD ADD GT ISZERO PUSH2 0x1974 JUMPI PUSH0 DUP1 REVERT JUMPDEST SWAP6 SWAP9 PUSH1 0x20 SWAP3 SWAP1 SWAP3 ADD SWAP8 POP SWAP5 SWAP6 PUSH1 0x40 ADD CALLDATALOAD SWAP5 POP SWAP3 POP POP POP JUMP JUMPDEST PUSH0 DUP1 PUSH0 DUP1 PUSH1 0x80 DUP6 DUP8 SUB SLT ISZERO PUSH2 0x199F JUMPI PUSH0 DUP1 REVERT JUMPDEST DUP5 CALLDATALOAD SWAP4 POP PUSH1 0x20 DUP6 ADD CALLDATALOAD SWAP3 POP PUSH1 0x40 DUP6 ADD CALLDATALOAD DUP1 ISZERO ISZERO DUP2 EQ PUSH2 0x19BC JUMPI PUSH0 DUP1 REVERT JUMPDEST SWAP4 SWAP7 SWAP3 SWAP6 POP SWAP3 SWAP4 PUSH1 0x60 ADD CALLDATALOAD SWAP3 POP POP JUMP JUMPDEST PUSH0 DUP2 MLOAD DUP1 DUP5 MSTORE PUSH0 JUMPDEST DUP2 DUP2 LT ISZERO PUSH2 0x19F0 JUMPI PUSH1 0x20 DUP2 DUP6 ADD DUP2 ADD MLOAD DUP7 DUP4 ADD DUP3 ADD MSTORE ADD PUSH2 0x19D4 JUMP JUMPDEST POP PUSH0 PUSH1 0x20 DUP3 DUP7 ADD ADD MSTORE PUSH1 0x20 PUSH1 0x1F NOT PUSH1 0x1F DUP4 ADD AND DUP6 ADD ADD SWAP2 POP POP SWAP3 SWAP2 POP POP JUMP JUMPDEST PUSH1 0x1 PUSH1 0x1 PUSH1 0xA0 SHL SUB DUP11 DUP2 AND DUP3 MSTORE DUP10 AND PUSH1 0x20 DUP3 ADD MSTORE PUSH2 0x120 PUSH1 0x40 DUP3 ADD DUP2 SWAP1 MSTORE PUSH0 SWAP1 PUSH2 0x1A3B DUP4 DUP3 ADD DUP12 PUSH2 0x19CC JUMP JUMPDEST PUSH1 0x60 DUP5 ADD SWAP10 SWAP1 SWAP10 MSTORE POP POP PUSH1 0x80 DUP2 ADD SWAP6 SWAP1 SWAP6 MSTORE PUSH1 0xA0 DUP6 ADD SWAP4 SWAP1 SWAP4 MSTORE SWAP1 ISZERO ISZERO PUSH1 0xC0 DUP5 ADD MSTORE ISZERO ISZERO PUSH1 0xE0 DUP4 ADD MSTORE PUSH2 0x100 SWAP1 SWAP2 ADD MSTORE SWAP4 SWAP3 POP POP POP JUMP JUMPDEST PUSH0 DUP1 PUSH1 0x40 DUP4 DUP6 SUB SLT ISZERO PUSH2 0x1A83 JUMPI PUSH0 DUP1 REVERT JUMPDEST DUP3 CALLDATALOAD SWAP2 POP PUSH2 0x1A93 PUSH1 0x20 DUP5 ADD PUSH2 0x18B8 JUMP JUMPDEST SWAP1 POP SWAP3 POP SWAP3 SWAP1 POP JUMP JUMPDEST PUSH1 0x20 DUP1 DUP3 MSTORE DUP3 MLOAD DUP3 DUP3 ADD DUP2 SWAP1 MSTORE PUSH0 SWAP2 SWAP1 PUSH1 0x40 SWAP1 DUP2 DUP6 ADD SWAP1 DUP7 DUP5 ADD DUP6 JUMPDEST DUP3 DUP2 LT ISZERO PUSH2 0x1B07 JUMPI DUP2 MLOAD DUP1 MLOAD PUSH1 0x1 PUSH1 0x1 PUSH1 0xA0 SHL SUB AND DUP6 MSTORE DUP7 DUP2 ADD MLOAD DUP8 DUP7 ADD MSTORE DUP6 DUP2 ADD MLOAD ISZERO ISZERO DUP7 DUP7 ADD MSTORE PUSH1 0x60 DUP1 DUP3 ADD MLOAD SWAP1 DUP7 ADD MSTORE PUSH1 0x80 SWAP1 DUP2 ADD MLOAD SWAP1 DUP6 ADD MSTORE PUSH1 0xA0 SWAP1 SWAP4 ADD SWAP3 SWAP1 DUP6 ADD SWAP1 PUSH1 0x1 ADD PUSH2 0x1AB8 JUMP JUMPDEST POP SWAP2 SWAP8 SWAP7 POP POP POP POP POP POP POP JUMP JUMPDEST PUSH0 DUP1 PUSH1 0x40 DUP4 DUP6 SUB SLT ISZERO PUSH2 0x1B25 JUMPI PUSH0 DUP1 REVERT JUMPDEST POP POP DUP1 CALLDATALOAD SWAP3 PUSH1 0x20 SWAP1 SWAP2 ADD CALLDATALOAD SWAP2 POP JUMP JUMPDEST PUSH1 0x20 DUP2 MSTORE PUSH2 0x1B4E PUSH1 0x20 DUP3 ADD DUP4 MLOAD PUSH1 0x1 PUSH1 0x1 PUSH1 0xA0 SHL SUB AND SWAP1 MSTORE JUMP JUMPDEST PUSH0 PUSH1 0x20 DUP4 ADD MLOAD PUSH2 0x1B69 PUSH1 0x40 DUP5 ADD DUP3 PUSH1 0x1 PUSH1 0x1 PUSH1 0xA0 SHL SUB AND SWAP1 MSTORE JUMP JUMPDEST POP PUSH1 0x40 DUP4 ADD MLOAD PUSH2 0x120 DUP1 PUSH1 0x60 DUP6 ADD MSTORE PUSH2 0x1B86 PUSH2 0x140 DUP6 ADD DUP4 PUSH2 0x19CC JUMP JUMPDEST SWAP2 POP PUSH1 0x60 DUP6 ADD MLOAD PUSH1 0x80 DUP6 ADD MSTORE PUSH1 0x80 DUP6 ADD MLOAD PUSH1 0xA0 DUP6 ADD MSTORE PUSH1 0xA0 DUP6 ADD MLOAD PUSH1 0xC0 DUP6 ADD MSTORE PUSH1 0xC0 DUP6 ADD MLOAD PUSH2 0x1BB9 PUSH1 0xE0 DUP7 ADD DUP3 ISZERO ISZERO SWAP1 MSTORE JUMP JUMPDEST POP PUSH1 0xE0 DUP6 ADD MLOAD PUSH2 0x100 PUSH2 0x1BCF DUP2 DUP8 ADD DUP4 ISZERO ISZERO SWAP1 MSTORE JUMP JUMPDEST SWAP6 SWAP1 SWAP6 ADD MLOAD SWAP4 ADD SWAP3 SWAP1 SWAP3 MSTORE POP SWAP2 SWAP1 POP JUMP JUMPDEST PUSH4 0x4E487B71 PUSH1 0xE0 SHL PUSH0 MSTORE PUSH1 0x32 PUSH1 0x4 MSTORE PUSH1 0x24 PUSH0 REVERT JUMPDEST PUSH4 0x4E487B71 PUSH1 0xE0 SHL PUSH0 MSTORE PUSH1 0x11 PUSH1 0x4 MSTORE PUSH1 0x24 PUSH0 REVERT JUMPDEST PUSH0 PUSH1 0x1 DUP3 ADD PUSH2 0x1C19 JUMPI PUSH2 0x1C19 PUSH2 0x1BF4 JUMP JUMPDEST POP PUSH1 0x1 ADD SWAP1 JUMP JUMPDEST DUP1 DUP3 ADD DUP1 DUP3 GT ISZERO PUSH2 0x1C33 JUMPI PUSH2 0x1C33 PUSH2 0x1BF4 JUMP JUMPDEST SWAP3 SWAP2 POP POP JUMP JUMPDEST PUSH0 DUP3 PUSH2 0x1C53 JUMPI PUSH4 0x4E487B71 PUSH1 0xE0 SHL PUSH0 MSTORE PUSH1 0x12 PUSH1 0x4 MSTORE PUSH1 0x24 PUSH0 REVERT JUMPDEST POP DIV SWAP1 JUMP JUMPDEST PUSH0 PUSH12 0xFFFFFFFFFFFFFFFFFFFFFFFF NOT DUP1 DUP10 PUSH1 0x60 SHL AND DUP4 MSTORE DUP1 DUP9 PUSH1 0x60 SHL AND PUSH1 0x14 DUP5 ADD MSTORE POP DUP5 DUP7 PUSH1 0x28 DUP5 ADD CALLDATACOPY POP PUSH1 0x28 SWAP4 ADD SWAP3 DUP4 ADD SWAP2 SWAP1 SWAP2 MSTORE PUSH1 0x48 DUP3 ADD MSTORE PUSH1 0x68 ADD SWAP4 SWAP3 POP POP POP JUMP JUMPDEST PUSH4 0x4E487B71 PUSH1 0xE0 SHL PUSH0 MSTORE PUSH1 0x41 PUSH1 0x4 MSTORE PUSH1 0x24 PUSH0 REVERT JUMPDEST PUSH1 0x1 DUP2 DUP2 SHR SWAP1 DUP3 AND DUP1 PUSH2 0x1CC5 JUMPI PUSH1 0x7F DUP3 AND SWAP2 POP JUMPDEST PUSH1 0x20 DUP3 LT DUP2 SUB PUSH2 0x1CE3 JUMPI PUSH4 0x4E487B71 PUSH1 0xE0 SHL PUSH0 MSTORE PUSH1 0x22 PUSH1 0x4 MSTORE PUSH1 0x24 PUSH0 REVERT JUMPDEST POP SWAP2 SWAP1 POP JUMP JUMPDEST PUSH1 0x1F DUP3 GT ISZERO PUSH2 0x1D2E JUMPI PUSH0 DUP2 DUP2 MSTORE PUSH1 0x20 DUP2 KECCAK256 PUSH1 0x1F DUP6 ADD PUSH1 0x5 SHR DUP2 ADD PUSH1 0x20 DUP7 LT ISZERO PUSH2 0x1D0F JUMPI POP DUP1 JUMPDEST PUSH1 0x1F DUP6 ADD PUSH1 0x5 SHR DUP3 ADD SWAP2 POP JUMPDEST DUP2 DUP2 LT ISZERO PUSH2 0x1279 JUMPI DUP3 DUP2 SSTORE PUSH1 0x1 ADD PUSH2 0x1D1B JUMP JUMPDEST POP POP POP JUMP JUMPDEST DUP2 MLOAD PUSH8 0xFFFFFFFFFFFFFFFF DUP2 GT ISZERO PUSH2 0x1D4D JUMPI PUSH2 0x1D4D PUSH2 0x1C9D JUMP JUMPDEST PUSH2 0x1D61 DUP2 PUSH2 0x1D5B DUP5 SLOAD PUSH2 0x1CB1 JUMP JUMPDEST DUP5 PUSH2 0x1CE9 JUMP JUMPDEST PUSH1 0x20 DUP1 PUSH1 0x1F DUP4 GT PUSH1 0x1 DUP2 EQ PUSH2 0x1D94 JUMPI PUSH0 DUP5 ISZERO PUSH2 0x1D7D JUMPI POP DUP6 DUP4 ADD MLOAD JUMPDEST PUSH0 NOT PUSH1 0x3 DUP7 SWAP1 SHL SHR NOT AND PUSH1 0x1 DUP6 SWAP1 SHL OR DUP6 SSTORE PUSH2 0x1279 JUMP JUMPDEST PUSH0 DUP6 DUP2 MSTORE PUSH1 0x20 DUP2 KECCAK256 PUSH1 0x1F NOT DUP7 AND SWAP2 JUMPDEST DUP3 DUP2 LT ISZERO PUSH2 0x1DC2 JUMPI DUP9 DUP7 ADD MLOAD DUP3 SSTORE SWAP5 DUP5 ADD SWAP5 PUSH1 0x1 SWAP1 SWAP2 ADD SWAP1 DUP5 ADD PUSH2 0x1DA3 JUMP JUMPDEST POP DUP6 DUP3 LT ISZERO PUSH2 0x1DDF JUMPI DUP8 DUP6 ADD MLOAD PUSH0 NOT PUSH1 0x3 DUP9 SWAP1 SHL PUSH1 0xF8 AND SHR NOT AND DUP2 SSTORE JUMPDEST POP POP POP POP POP PUSH1 0x1 SWAP1 DUP2 SHL ADD SWAP1 SSTORE POP JUMP JUMPDEST DUP2 DUP2 SUB DUP2 DUP2 GT ISZERO PUSH2 0x1C33 JUMPI PUSH2 0x1C33 PUSH2 0x1BF4 JUMP JUMPDEST PUSH0 DUP1 DUP4 SLOAD PUSH2 0x1E0F DUP2 PUSH2 0x1CB1 JUMP JUMPDEST PUSH1 0x1 DUP3 DUP2 AND DUP1 ISZERO PUSH2 0x1E27 JUMPI PUSH1 0x1 DUP2 EQ PUSH2 0x1E3C JUMPI PUSH2 0x1E68 JUMP JUMPDEST PUSH1 0xFF NOT DUP5 AND DUP8 MSTORE DUP3 ISZERO ISZERO DUP4 MUL DUP8 ADD SWAP5 POP PUSH2 0x1E68 JUMP JUMPDEST DUP8 PUSH0 MSTORE PUSH1 0x20 DUP1 PUSH0 KECCAK256 PUSH0 JUMPDEST DUP6 DUP2 LT ISZERO PUSH2 0x1E5F JUMPI DUP2 SLOAD DUP11 DUP3 ADD MSTORE SWAP1 DUP5 ADD SWAP1 DUP3 ADD PUSH2 0x1E46 JUMP JUMPDEST POP POP POP DUP3 DUP8 ADD SWAP5 POP JUMPDEST POP SWAP3 SWAP7 SWAP6 POP POP POP POP POP POP JUMP JUMPDEST PUSH0 DUP2 PUSH2 0x1E82 JUMPI PUSH2 0x1E82 PUSH2 0x1BF4 JUMP JUMPDEST POP PUSH0 NOT ADD SWAP1 JUMP INVALID LOG2 PUSH5 0x6970667358 0x22 SLT KECCAK256 GT MOD ISZERO PUSH22 0xF08ED06D227BA05C0FC90C4E32C21EAB21033B332A18 PUSH24 0x84D679B88D64736F6C634300081400330000000000000000 "},"methodIdentifiers":{"MIN_STAKE()":"cb1c2b5c","SIMULATOR_REWARD()":"9601bd23","VERIFICATION_FEE()":"78a1bffd","activeSimulators()":"ddfeb4e2","checkConsensus(bytes32)":"2946cd56","executeIntent(bytes32)":"7a1c9ca7","flagStateChange(bytes32,address)":"9c724c4a","getInsurancePool()":"d0d5665b","getIntent(bytes32)":"f13c46aa","getSimulations(bytes32)":"9d1ac7bf","insurancePool()":"ab2adc00","intents(bytes32)":"9021578a","registerSimulator()":"865d8747","simulations(bytes32,uint256)":"e1daa5a5","simulatorReputation(address)":"b5a0c8c0","simulatorStakes(address)":"1bdf5e64","slashSimulator(address)":"6b9498d3","stateChangeFlagged(bytes32)":"5b8a0104","submitIntent(address,bytes,uint256)":"2bcd10cb","submitSimulation(bytes32,bytes32,bool,uint256)":"2fbbe156","withdrawStake()":"bed9d861"}}}}}