{
  "_format": "hh3-artifact-1",
  "contractName": "VigilantSimple",
  "sourceName": "contracts/VigilantSimple.sol",
  "abi": [
    {
      "anonymous": false,
      "inputs": [
        {
          "indexed": true,
          "internalType": "bytes32",
          "name": "intentId",
          "type": "bytes32"
        },
        {
          "indexed": false,
          "internalType": "uint256",
          "name": "avgRiskScore",
          "type": "uint256"
        }
      ],
      "name": "IntentApproved",
      "type": "event"
    },
    {
      "anonymous": false,
      "inputs": [
        {
          "indexed": true,
          "internalType": "bytes32",
          "name": "intentId",
          "type": "bytes32"
        },
        {
          "indexed": false,
          "internalType": "string",
          "name": "reason",
          "type": "string"
        }
      ],
      "name": "IntentBlocked",
      "type": "event"
    },
    {
      "anonymous": false,
      "inputs": [
        {
          "indexed": true,
          "internalType": "bytes32",
          "name": "intentId",
          "type": "bytes32"
        },
        {
          "indexed": false,
          "internalType": "bool",
          "name": "success",
          "type": "bool"
        },
        {
          "indexed": false,
          "internalType": "bytes",
          "name": "returnData",
          "type": "bytes"
        }
      ],
      "name": "IntentExecuted",
      "type": "event"
    },
    {
      "anonymous": false,
      "inputs": [
        {
          "indexed": true,
          "internalType": "bytes32",
          "name": "intentId",
          "type": "bytes32"
        },
        {
          "indexed": true,
          "internalType": "address",
          "name": "user",
          "type": "address"
        },
        {
          "indexed": true,
          "internalType": "address",
          "name": "target",
          "type": "address"
        },
        {
          "indexed": false,
          "internalType": "bytes32",
          "name": "stateSnapshot",
          "type": "bytes32"
        },
        {
          "indexed": false,
          "internalType": "uint256",
          "name": "timestamp",
          "type": "uint256"
        }
      ],
      "name": "IntentSubmitted",
      "type": "event"
    },
    {
      "anonymous": false,
      "inputs": [
        {
          "indexed": true,
          "internalType": "bytes32",
          "name": "intentId",
          "type": "bytes32"
        },
        {
          "indexed": true,
          "internalType": "address",
          "name": "simulator",
          "type": "address"
        },
        {
          "indexed": false,
          "internalType": "bool",
          "name": "isRisky",
          "type": "bool"
        },
        {
          "indexed": false,
          "internalType": "uint256",
          "name": "riskScore",
          "type": "uint256"
        }
      ],
      "name": "SimulationSubmitted",
      "type": "event"
    },
    {
      "anonymous": false,
      "inputs": [
        {
          "indexed": true,
          "internalType": "bytes32",
          "name": "intentId",
          "type": "bytes32"
        },
        {
          "indexed": false,
          "internalType": "bytes32",
          "name": "oldStateHash",
          "type": "bytes32"
        },
        {
          "indexed": false,
          "internalType": "bytes32",
          "name": "newStateHash",
          "type": "bytes32"
        }
      ],
      "name": "StateChangeDetected",
      "type": "event"
    },
    {
      "inputs": [],
      "name": "MIN_SIMULATORS",
      "outputs": [
        {
          "internalType": "uint256",
          "name": "",
          "type": "uint256"
        }
      ],
      "stateMutability": "view",
      "type": "function"
    },
    {
      "inputs": [],
      "name": "VERIFICATION_FEE",
      "outputs": [
        {
          "internalType": "uint256",
          "name": "",
          "type": "uint256"
        }
      ],
      "stateMutability": "view",
      "type": "function"
    },
    {
      "inputs": [
        {
          "internalType": "address",
          "name": "simulator",
          "type": "address"
        }
      ],
      "name": "addSimulator",
      "outputs": [],
      "stateMutability": "nonpayable",
      "type": "function"
    },
    {
      "inputs": [
        {
          "internalType": "address",
          "name": "",
          "type": "address"
        }
      ],
      "name": "authorizedSimulators",
      "outputs": [
        {
          "internalType": "bool",
          "name": "",
          "type": "bool"
        }
      ],
      "stateMutability": "view",
      "type": "function"
    },
    {
      "inputs": [
        {
          "internalType": "bytes32",
          "name": "intentId",
          "type": "bytes32"
        }
      ],
      "name": "cancelIntent",
      "outputs": [],
      "stateMutability": "nonpayable",
      "type": "function"
    },
    {
      "inputs": [
        {
          "internalType": "bytes32",
          "name": "intentId",
          "type": "bytes32"
        }
      ],
      "name": "checkConsensus",
      "outputs": [
        {
          "internalType": "bool",
          "name": "hasConsensus",
          "type": "bool"
        },
        {
          "internalType": "bool",
          "name": "isSafe",
          "type": "bool"
        },
        {
          "internalType": "uint256",
          "name": "avgRiskScore",
          "type": "uint256"
        }
      ],
      "stateMutability": "view",
      "type": "function"
    },
    {
      "inputs": [
        {
          "internalType": "bytes32",
          "name": "intentId",
          "type": "bytes32"
        }
      ],
      "name": "executeIntent",
      "outputs": [
        {
          "internalType": "bool",
          "name": "",
          "type": "bool"
        },
        {
          "internalType": "bytes",
          "name": "",
          "type": "bytes"
        }
      ],
      "stateMutability": "nonpayable",
      "type": "function"
    },
    {
      "inputs": [
        {
          "internalType": "bytes32",
          "name": "intentId",
          "type": "bytes32"
        }
      ],
      "name": "flagStateChange",
      "outputs": [],
      "stateMutability": "nonpayable",
      "type": "function"
    },
    {
      "inputs": [
        {
          "internalType": "bytes32",
          "name": "intentId",
          "type": "bytes32"
        }
      ],
      "name": "getIntent",
      "outputs": [
        {
          "components": [
            {
              "internalType": "address",
              "name": "user",
              "type": "address"
            },
            {
              "internalType": "address",
              "name": "target",
              "type": "address"
            },
            {
              "internalType": "bytes",
              "name": "callData",
              "type": "bytes"
            },
            {
              "internalType": "uint256",
              "name": "value",
              "type": "uint256"
            },
            {
              "internalType": "uint256",
              "name": "timestamp",
              "type": "uint256"
            },
            {
              "internalType": "uint256",
              "name": "deadline",
              "type": "uint256"
            },
            {
              "internalType": "bytes32",
              "name": "stateSnapshot",
              "type": "bytes32"
            },
            {
              "internalType": "uint8",
              "name": "status",
              "type": "uint8"
            },
            {
              "internalType": "bool",
              "name": "exists",
              "type": "bool"
            }
          ],
          "internalType": "struct VigilantSimple.TransactionIntent",
          "name": "",
          "type": "tuple"
        }
      ],
      "stateMutability": "view",
      "type": "function"
    },
    {
      "inputs": [
        {
          "internalType": "bytes32",
          "name": "intentId",
          "type": "bytes32"
        }
      ],
      "name": "getSimulations",
      "outputs": [
        {
          "components": [
            {
              "internalType": "address",
              "name": "simulator",
              "type": "address"
            },
            {
              "internalType": "bool",
              "name": "isRisky",
              "type": "bool"
            },
            {
              "internalType": "uint256",
              "name": "riskScore",
              "type": "uint256"
            },
            {
              "internalType": "uint256",
              "name": "timestamp",
              "type": "uint256"
            }
          ],
          "internalType": "struct VigilantSimple.SimulationResult[]",
          "name": "",
          "type": "tuple[]"
        }
      ],
      "stateMutability": "view",
      "type": "function"
    },
    {
      "inputs": [
        {
          "internalType": "bytes32",
          "name": "",
          "type": "bytes32"
        }
      ],
      "name": "intents",
      "outputs": [
        {
          "internalType": "address",
          "name": "user",
          "type": "address"
        },
        {
          "internalType": "address",
          "name": "target",
          "type": "address"
        },
        {
          "internalType": "bytes",
          "name": "callData",
          "type": "bytes"
        },
        {
          "internalType": "uint256",
          "name": "value",
          "type": "uint256"
        },
        {
          "internalType": "uint256",
          "name": "timestamp",
          "type": "uint256"
        },
        {
          "internalType": "uint256",
          "name": "deadline",
          "type": "uint256"
        },
        {
          "internalType": "bytes32",
          "name": "stateSnapshot",
          "type": "bytes32"
        },
        {
          "internalType": "uint8",
          "name": "status",
          "type": "uint8"
        },
        {
          "internalType": "bool",
          "name": "exists",
          "type": "bool"
        }
      ],
      "stateMutability": "view",
      "type": "function"
    },
    {
      "inputs": [
        {
          "internalType": "bytes32",
          "name": "intentId",
          "type": "bytes32"
        }
      ],
      "name": "isIntentApproved",
      "outputs": [
        {
          "internalType": "bool",
          "name": "",
          "type": "bool"
        }
      ],
      "stateMutability": "view",
      "type": "function"
    },
    {
      "inputs": [
        {
          "internalType": "bytes32",
          "name": "",
          "type": "bytes32"
        },
        {
          "internalType": "uint256",
          "name": "",
          "type": "uint256"
        }
      ],
      "name": "simulations",
      "outputs": [
        {
          "internalType": "address",
          "name": "simulator",
          "type": "address"
        },
        {
          "internalType": "bool",
          "name": "isRisky",
          "type": "bool"
        },
        {
          "internalType": "uint256",
          "name": "riskScore",
          "type": "uint256"
        },
        {
          "internalType": "uint256",
          "name": "timestamp",
          "type": "uint256"
        }
      ],
      "stateMutability": "view",
      "type": "function"
    },
    {
      "inputs": [
        {
          "internalType": "address",
          "name": "target",
          "type": "address"
        },
        {
          "internalType": "bytes",
          "name": "data",
          "type": "bytes"
        },
        {
          "internalType": "uint256",
          "name": "value",
          "type": "uint256"
        }
      ],
      "name": "submitIntent",
      "outputs": [
        {
          "internalType": "bytes32",
          "name": "",
          "type": "bytes32"
        }
      ],
      "stateMutability": "payable",
      "type": "function"
    },
    {
      "inputs": [
        {
          "internalType": "bytes32",
          "name": "intentId",
          "type": "bytes32"
        },
        {
          "internalType": "bool",
          "name": "isRisky",
          "type": "bool"
        },
        {
          "internalType": "uint256",
          "name": "riskScore",
          "type": "uint256"
        }
      ],
      "name": "submitSimulation",
      "outputs": [],
      "stateMutability": "nonpayable",
      "type": "function"
    }
  ],
  "bytecode": "0x608060405234801561000f575f80fd5b50611a4d8061001d5f395ff3fe6080604052600436106100e3575f3560e01c80639021578a11610087578063d7f2060f11610057578063d7f2060f146102a1578063e1daa5a5146102c0578063eb31314214610309578063f13c46aa14610346575f80fd5b80639021578a1461020e5780639cfa181c146102425780639d1ac7bf14610256578063d55f960d14610282575f80fd5b80632bcd10cb116100c25780632bcd10cb146101855780636ffae0e7146101a657806378a1bffd146101c75780637a1c9ca7146101e1575f80fd5b8062a8fcf5146100e75780632946cd561461012a5780632b144aaf14610166575b5f80fd5b3480156100f2575f80fd5b5061011561010136600461146d565b60026020525f908152604090205460ff1681565b60405190151581526020015b60405180910390f35b348015610135575f80fd5b5061014961014436600461148d565b610372565b604080519315158452911515602084015290820152606001610121565b348015610171575f80fd5b5061011561018036600461148d565b6104d2565b6101986101933660046114a4565b61052c565b604051908152602001610121565b3480156101b1575f80fd5b506101c56101c0366004611526565b610800565b005b3480156101d2575f80fd5b5061019866038d7ea4c6800081565b3480156101ec575f80fd5b506102006101fb36600461148d565b610a17565b6040516101219291906115a2565b348015610219575f80fd5b5061022d61022836600461148d565b610c69565b604051610121999897969594939291906115c4565b34801561024d575f80fd5b50610198600281565b348015610261575f80fd5b5061027561027036600461148d565b610d49565b604051610121919061162a565b34801561028d575f80fd5b506101c561029c36600461148d565b610dea565b3480156102ac575f80fd5b506101c56102bb36600461148d565b610eff565b3480156102cb575f80fd5b506102df6102da366004611698565b611067565b604080516001600160a01b0390951685529215156020850152918301526060820152608001610121565b348015610314575f80fd5b506101c561032336600461146d565b6001600160a01b03165f908152600260205260409020805460ff19166001179055565b348015610351575f80fd5b5061036561036036600461148d565b6110b8565b60405161012191906116b8565b5f805f8060015f8681526020019081526020015f20805480602002602001604051908101604052809291908181526020015f905b8282101561040a575f848152602090819020604080516080810182526003860290920180546001600160a01b0381168452600160a01b900460ff161515838501526001808201549284019290925260020154606083015290835290920191016103a6565b505050509050600281511015610429575f805f935093509350506104cb565b5f805f5b83518110156104a4578381815181106104485761044861175c565b6020026020010151604001518361045f9190611784565b92508381815181106104735761047361175c565b60200260200101516020015115610492578161048e81611797565b9250505b8061049c81611797565b91505061042d565b5082516104b190836117af565b600196509350801580156104c55750603284105b94505050505b9193909250565b5f81815260208190526040812060070154610100900460ff16801561050a57505f8281526020819052604090206007015460ff166001145b801561052657505f828152602081905260409020600501544211155b92915050565b5f61053e66038d7ea4c6800083611784565b3410156105895760405162461bcd60e51b8152602060048201526014602482015273125b9cdd59999a58da595b9d081c185e5b595b9d60621b60448201526064015b60405180910390fd5b6001600160a01b0385166105d05760405162461bcd60e51b815260206004820152600e60248201526d125b9d985b1a59081d185c99d95d60921b6044820152606401610580565b5f3386868642436040516020016105ec969594939291906117ce565b60408051808303601f1901815291815281516020928301205f81815292839052912060070154909150610100900460ff16156106625760405162461bcd60e51b8152602060048201526015602482015274496e74656e7420616c72656164792065786973747360581b6044820152606401610580565b5f61066c8761124d565b9050604051806101200160405280336001600160a01b03168152602001886001600160a01b0316815260200187878080601f0160208091040260200160405190810160405280939291908181526020018383808284375f920191909152505050908252506020810186905242604082018190526060909101906106f19061012c611784565b815260208082018490525f60408084018290526001606090940184905286825281835290819020845181546001600160a01b03199081166001600160a01b03928316178355938601519482018054909416941693909317909155820151600282019061075d90826118ac565b50606082015160038201556080820151600482015560a0820151600582015560c0820151600682015560e0820151600790910180546101009384015160ff90931661ffff1990911617911515909202179055604080518281524260208201526001600160a01b03891691339185917f4ddd5a7b0c2a4e1df96a3eca10f2cf2a35f50c5aca783e8b22617678c7f4eb68910160405180910390a45095945050505050565b5f83815260208190526040902060070154610100900460ff166108355760405162461bcd60e51b815260040161058090611968565b335f9081526002602052604090205460ff166108935760405162461bcd60e51b815260206004820152601860248201527f4e6f7420617574686f72697a65642073696d756c61746f7200000000000000006044820152606401610580565b5f8381526020819052604090206007015460ff16156108e35760405162461bcd60e51b815260206004820152600c60248201526b57726f6e672073746174757360a01b6044820152606401610580565b5f838152602081905260409020600501544211156109345760405162461bcd60e51b815260206004820152600e60248201526d125b9d195b9d08195e1c1a5c995960921b6044820152606401610580565b5f8381526001602081815260408084208151608081018352338082528815158286018181528386018a815242606086019081528654808b018855968b529988902094516003909602909401805491511515600160a01b026001600160a81b03199092166001600160a01b039096169590951717845591519583019590955594516002909101558051938452908301849052909185917feb2d6cf0f91a0fbf91681a90a6842098ce1438f56122fffa6acad4886e87c6c4910160405180910390a35f83815260016020526040902054600211610a1257610a12836112a2565b505050565b5f818152602081905260408120600781015460609190610100900460ff16610a515760405162461bcd60e51b815260040161058090611968565b80546001600160a01b03163314610a9b5760405162461bcd60e51b815260206004820152600e60248201526d139bdd08185d5d1a1bdc9a5e995960921b6044820152606401610580565b600781015460ff16600114610ae15760405162461bcd60e51b815260206004820152600c60248201526b139bdd08185c1c1c9bdd995960a21b6044820152606401610580565b8060050154421115610b265760405162461bcd60e51b815260206004820152600e60248201526d125b9d195b9d08195e1c1a5c995960921b6044820152606401610580565b60018101545f90610b3f906001600160a01b031661124d565b905081600601548114610ba35760405162461bcd60e51b815260206004820152602660248201527f5374617465206368616e676564202d2072652d73696d756c6174696f6e2072656044820152651c5d5a5c995960d21b6064820152608401610580565b60078201805460ff191660039081179091556001830154908301546040515f9283926001600160a01b0390911691610bdf906002880190611992565b5f6040518083038185875af1925050503d805f8114610c19576040519150601f19603f3d011682016040523d82523d5f602084013e610c1e565b606091505b5091509150867f14c9fd8a24b7b84bd5cfe9866496bcc0f4c4fad9f9b37fda3d553b4a19e85cad8383604051610c559291906115a2565b60405180910390a290969095509350505050565b5f602081905290815260409020805460018201546002830180546001600160a01b03938416949290931692610c9d90611827565b80601f0160208091040260200160405190810160405280929190818152602001828054610cc990611827565b8015610d145780601f10610ceb57610100808354040283529160200191610d14565b820191905f5260205f20905b815481529060010190602001808311610cf757829003601f168201915b505050600384015460048501546005860154600687015460079097015495969295919450925060ff8082169161010090041689565b606060015f8381526020019081526020015f20805480602002602001604051908101604052809291908181526020015f905b82821015610ddf575f848152602090819020604080516080810182526003860290920180546001600160a01b0381168452600160a01b900460ff16151583850152600180820154928401929092526002015460608301529083529092019101610d7b565b505050509050919050565b5f8181526020819052604090206007810154610100900460ff16610e205760405162461bcd60e51b815260040161058090611968565b80546001600160a01b03163314610e6a5760405162461bcd60e51b815260206004820152600e60248201526d139bdd08185d5d1a1bdc9a5e995960921b6044820152606401610580565b600781015460ff1660021901610eb55760405162461bcd60e51b815260206004820152601060248201526f105b1c9958591e48195e1958dd5d195960821b6044820152606401610580565b60078101805460ff19166002179055600381015415610efb576003810154604051339180156108fc02915f818181858888f19350505050158015610a12573d5f803e3d5ffd5b5050565b5f81815260208190526040902060070154610100900460ff16610f345760405162461bcd60e51b815260040161058090611968565b5f8181526020819052604090206007015460ff161580610f6757505f8181526020819052604090206007015460ff166001145b610fa25760405162461bcd60e51b815260206004820152600c60248201526b57726f6e672073746174757360a01b6044820152606401610580565b5f81815260208190526040812060010154610fc5906001600160a01b031661124d565b5f838152602081905260409020600601549091508114610efb575f82815260208181526040808320600701805460ff191690556001909152812061100891611401565b5f828152602081815260409182902060060154825190815290810183905283917fbf09503e4f577ee083a2fe8ca336b375d1b1afc989d2a68ef064abf88da22072910160405180910390a25f9182526020829052604090912060060155565b6001602052815f5260405f208181548110611080575f80fd5b5f9182526020909120600390910201805460018201546002909201546001600160a01b0382169450600160a01b90910460ff16925084565b60408051610120810182525f8082526020820181905260609282018390529181018290526080810182905260a0810182905260c0810182905260e081018290526101008101919091525f82815260208190526040902060070154610100900460ff166111365760405162461bcd60e51b815260040161058090611968565b5f828152602081815260409182902082516101208101845281546001600160a01b03908116825260018301541692810192909252600281018054929391929184019161118190611827565b80601f01602080910402602001604051908101604052809291908181526020018280546111ad90611827565b80156111f85780601f106111cf576101008083540402835291602001916111f8565b820191905f5260205f20905b8154815290600101906020018083116111db57829003601f168201915b50505091835250506003820154602082015260048201546040820152600582015460608201526006820154608082015260079091015460ff80821660a084015261010090910416151560c09091015292915050565b5f806001600160a01b0383168031903b611268600143611a04565b60408051602081019490945283019190915240606082015260800160408051601f1981840301815291905280516020909101209392505050565b5f805f6112ae84610372565b925092509250826112bf5750505050565b8115611321575f8481526020819052604090819020600701805460ff191660011790555184907fef6909503ff04303797c0acbb3700634e2468a164761dae4c3cef0159750bcb1906113149084815260200190565b60405180910390a26113fb565b5f8481526020819052604090819020600701805460ff191660021790555184907f7102af2577f24c8a7455c2a39a31763d3349dae6f04991d40c003ae2cd8488829061139390602080825260129082015271121a59da081c9a5cdac819195d1958dd195960721b604082015260600190565b60405180910390a25f84815260208190526040902060030154156113fb575f84815260208190526040808220805460039091015491516001600160a01b039091169282156108fc02929190818181858888f193505050501580156113f9573d5f803e3d5ffd5b505b50505050565b5080545f8255600302905f5260205f209081019061141f9190611422565b50565b5b8082111561144e5780546001600160a81b03191681555f600182018190556002820155600301611423565b5090565b80356001600160a01b0381168114611468575f80fd5b919050565b5f6020828403121561147d575f80fd5b61148682611452565b9392505050565b5f6020828403121561149d575f80fd5b5035919050565b5f805f80606085870312156114b7575f80fd5b6114c085611452565b9350602085013567ffffffffffffffff808211156114dc575f80fd5b818701915087601f8301126114ef575f80fd5b8135818111156114fd575f80fd5b88602082850101111561150e575f80fd5b95986020929092019750949560400135945092505050565b5f805f60608486031215611538575f80fd5b833592506020840135801515811461154e575f80fd5b929592945050506040919091013590565b5f81518084525f5b8181101561158357602081850181015186830182015201611567565b505f602082860101526020601f19601f83011685010191505092915050565b8215158152604060208201525f6115bc604083018461155f565b949350505050565b6001600160a01b038a8116825289166020820152610120604082018190525f906115f08382018b61155f565b60608401999099525050608081019590955260a085019390935260c084019190915260ff1660e08301521515610100909101529392505050565b602080825282518282018190525f919060409081850190868401855b8281101561168b57815180516001600160a01b031685528681015115158786015285810151868601526060908101519085015260809093019290850190600101611646565b5091979650505050505050565b5f80604083850312156116a9575f80fd5b50508035926020909101359150565b602081526116d26020820183516001600160a01b03169052565b5f60208301516116ed60408401826001600160a01b03169052565b50604083015161012080606085015261170a61014085018361155f565b915060608501516080850152608085015160a085015260a085015160c085015260c085015160e085015260e085015161010061174a8187018360ff169052565b90950151151593019290925250919050565b634e487b7160e01b5f52603260045260245ffd5b634e487b7160e01b5f52601160045260245ffd5b8082018082111561052657610526611770565b5f600182016117a8576117a8611770565b5060010190565b5f826117c957634e487b7160e01b5f52601260045260245ffd5b500490565b5f6bffffffffffffffffffffffff19808960601b168352808860601b166014840152508486602884013750602893019283019190915260488201526068019392505050565b634e487b7160e01b5f52604160045260245ffd5b600181811c9082168061183b57607f821691505b60208210810361185957634e487b7160e01b5f52602260045260245ffd5b50919050565b601f821115610a12575f81815260208120601f850160051c810160208610156118855750805b601f850160051c820191505b818110156118a457828155600101611891565b505050505050565b815167ffffffffffffffff8111156118c6576118c6611813565b6118da816118d48454611827565b8461185f565b602080601f83116001811461190d575f84156118f65750858301515b5f19600386901b1c1916600185901b1785556118a4565b5f85815260208120601f198616915b8281101561193b5788860151825594840194600190910190840161191c565b508582101561195857878501515f19600388901b60f8161c191681555b5050505050600190811b01905550565b60208082526010908201526f125b9d195b9d081b9bdd08199bdd5b9960821b604082015260600190565b5f80835461199f81611827565b600182811680156119b757600181146119cc576119f8565b60ff19841687528215158302870194506119f8565b875f526020805f205f5b858110156119ef5781548a8201529084019082016119d6565b50505082870194505b50929695505050505050565b818103818111156105265761052661177056fea26469706673582212200e8ec31f0a9246ccdb57f0b6dfec583ff1938940da75d3b4dfc93728b49bfd8a64736f6c63430008140033",
  "linkReferences": {},
  "deployedLinkReferences": {},
  "immutableReferences": {},
  "inputSourceName": "project/contracts/VigilantSimple.sol",
  "buildInfoId": "solc-0_8_20-97063e54fbfffe41176295942b8edb9dc2663c8c"
}